:020000040800F2
:10000000B0040020D5000008A11400082512000843
:1000100000000000000000000000000000000000E0
:10002000000000000000000000000000D9170008D8
:100030000000000000000000CF160008DB170008D9
:10004000E7000008E7000008E7000008E7000008F4
:10005000E7000008E7000008E7000008E7000008E4
:1000600000000000E7000008E7000008E7000008C3
:10007000E7000008E7000008E7000008E7000008C4
:10008000E7000008E7000008E700000800000000A3
:10009000E7000008E7000008E7000008E7000008A4
:1000A000E7000008E7000008E7000008E700000894
:1000B000E7000008E7000008000000000000000062
:1000C0000348854600F08EF800480047711F00087D
:1000D000B00400200448804704480047FEE7FEE7DC
:1000E000FEE7FEE7FEE7FEE765180008C10000082E
:1000F00030B50B46014600202022012409E00D46C0
:10010000D5409D4205D31D469540491B2546954047
:1001100040191546521E002DF1DC30BDF0B51FB45C
:100120000646002082B005464024019100901BE065
:10013000019922460F46304600F042F8049A059B8A
:10014000801A994110D310461946224600F028F82B
:10015000361A8F410197224601200021009F00F0AE
:100160001FF838184D4100902046641E0028DFDC3F
:10017000019B00982946324607B0F0BDD2B201E09B
:100180000270401C491EFBD270470022F6E710B5F2
:1001900013460A4604461946FFF7F0FF204610BDF5
:1001A00010B5202A04DB0146203A9140002010BD02
:1001B000914020239C1A0346E3401943904010BD10
:1001C00010B5202A04DB0846203AD040002110BD9B
:1001D0000B46D340D0402024A21A91400843194630
:1001E00010BD0000064C0125064E05E0E36807CC73
:1001F0002B430C3C98471034B442F7D3FFF764FF0D
:100200003028000850280008704770B5044600F0F8
:10021000CFF80546601C00D0641C00F0C9F8401BF4
:10022000A042FAD370BD0000F0B400220B68002B8E
:1002300070D0012494400B68A4462340002B6AD060
:100240004C68022C01D0122C0CD1D408A400271821
:100250003D6A5407E40E0F26A640B5430E69A6403A
:100260002E433E624C68012C05D0022C03D0112C89
:1002700001D0122C11D1856854000326A640B54345
:10028000CE68A6402E43866044686546AC430D792F
:10029000ED06ED0F954025434560076854000325A2
:1002A000A540AF430E79B607B60FA6403E430660A1
:1002B000C668AE438D68A5403543C5604C68E40010
:1002C00050D52C4C656B01263543656395082A4C47
:1002D000AD002F19BD689407240F0F26A640B54323
:1002E00005263607B04201D100261BE0234EB0425E
:1002F00001D1012616E0224EB04201D1022611E0C2
:10030000204EB04201D103260CE01F4EB04203D173
:10031000042607E02BE025E01C4EB04201D1052663
:1003200000E00626A6402E43BE60194D2C689C4373
:100330004E68F60300D51C432C606C689C434E68E5
:10034000B60300D51C436C60AC689C434E68F60253
:1003500000D51C43AC60EC689C434E68B60200D5E7
:100360001C43EC60521C0B68D34000D061E7F0BC2A
:1003700070470000001002400000014000040050DF
:1003800000080050000C005000100050001C0050ED
:10039000000401400069084201D00120704700209C
:1003A0007047002A01D08161704781627047000068
:1003B00001480068704700000400002002480168FE
:1003C000491C0160704700000400002010B50024A3
:1003D00007480168402211430160002000F00AF83C
:1003E000002801D0012401E000F01CF8204610BDD7
:1003F0000020024070B50546002409487D21C9004F
:100400000068FFF775FE00F089FE002801D0012486
:1004100004E000222946501E00F010F8204670BD6E
:10042000000000200448416B012211434163816BAD
:100430000204114381637047001002408207D30E0B
:10044000FF229A408907090E994000280BDA00071D
:10045000000F0838830808489B001818C3699343A5
:100460000B43C3617047830804489B001818036856
:1004700093430B430360704700ED00E000E400E0AD
:10048000F8B5044620785D4D80067BD500265C4893
:10049000806BC00005D45A48816B0204114381630C
:1004A000012658480168C90517D40068FF210131A9
:1004B000084354490860FFF77BFF0746514800682E
:1004C000C0050AD4FFF774FFC01B642801D90320BC
:1004D000F8BD4C480068C005F4D5494F3868032181
:1004E0000905084062681140814208D09003800FDE
:1004F000032804D13868800301D50120F8BD28699C
:10050000032109040840002824D00A40824221D057
:10051000207880061ED5286988432A690121C904EC
:100520000A432A612A698A432A612861C00511D5D4
:10053000FFF73EFF0090286980050BD4FFF738FFD6
:100540000099411A3048814201D90320F8BD286939
:100550008005F3D560688103890F032905D13A68C6
:1005600009058A43084002433A602869032261680A
:100570001204114008432861012E03D1B96B3007E2
:100580008143B9632078C00705D0E868A168800876
:1005900080000843E8602078800705D5E8680C21D2
:1005A0008843E1680843E8602078400706D5E8689A
:1005B00003218902884321690843E8602078000705
:1005C00006D5E86803210903884361690843E860A8
:1005D0002088C00506D5E868032109048843A1697D
:1005E0000843E8602078000606D5E86803218904FE
:1005F0008843E1690843E8600020F8BD40100240EC
:10060000001002400070004088130000F8B5044656
:100610000E46002C12D066480068C007C00FB042DA
:100620000ED26348016849084900314301600068FF
:10063000C007C00FB04203D00120F8BD0120F8BDB3
:1006400020785C4F800705D5F868F0218843A168C1
:100650000843F8602078C00772D06068022808D08C
:1006600003280BD001280ED03968890510D4012049
:10067000F8BD396889030BD40120F8BD39688901B8
:1006800006D40120F8BD3968490701D40120F8BD1E
:10069000F968890889000143F960FFF789FE05467A
:1006A000616802290FD0032920D0012931D0F968CF
:1006B0000907890F44D0FFF77BFE411B3E4881426A
:1006C0003AD90320F8BDF9680907890F022937D004
:1006D000FFF76EFE411B3848814201D90320F8BD67
:1006E000F8680007800F0228F2D129E0F9680907AD
:1006F000890F032924D0FFF75BFE411B2E4881425E
:1007000001D90320F8BDF8680007800F0328F2D153
:1007100016E0F9680907890F012911D0FFF748FE93
:10072000411B2548814201D90320F8BDF868000724
:10073000800F0128F2D103E0F8680007800FBAD1DA
:100740001B480168C907C90FB1420BD901684908A4
:100750004900314301600068C007C00FB04201D0BA
:100760000120F8BD2078400706D5F8680721090266
:100770008843E1680843F8602078000707D5F868E7
:100780000721C90288432169C9000843F86000F0C5
:100790003FF8F968094A0906090F515CC840084941
:1007A00008600020FFF726FE0028DAD1F8BD00001F
:1007B0000020024000100240881300000C280008AE
:1007C0000000002001480068704700000000002081
:1007D00000B5FFF7F7FF0449C968044A4905490F06
:1007E000515CC84000BD00000010024025280008F0
:1007F00000B5FFF7E7FF0449C968044A8904490FB7
:10080000515CC84000BD00000010024025280008CF
:1008100010B51C4AD1680C230846184004280BD098
:10082000082810D00C2810D050680004410F491C33
:100830000120C003884010BD1068C00601D51248D1
:1008400010BD124810BD124810BD8802114B000F98
:10085000185C0902890F491CD368DB0304D50C4AD4
:100860005043FFF745FC10BD1268D20604D5064A76
:100870005043FFF73DFC10BD044A5043FFF738FCDE
:1008800010BD00000010024000093D000024F400EB
:1008900000127A001C280008F0B583B00446002C32
:1008A0000FD0F64EF5680C200540F76801200004D3
:1008B00007402078C0075BD0082D09D00C2D03D04D
:1008C0000FE0012003B0F0BD01200004874208D1F1
:1008D000306880034CD56068002849D1012003B0FE
:1008E000F0BD012061680004814203D131680143F9
:1008F000316015E0052301221B049204994206D1C0
:1009000031681143316031680143316008E031687A
:10091000814331603168014001913068904330601B
:100920006068002812D0FFF743FD02903068800312
:100930001ED4FFF73DFD0299401A642802D9032016
:1009400003B0F0BD30688003F3D511E0FFF730FD50
:100950000290306880030BD5FFF72AFD0299401AF8
:10096000642802D9032003B0F0BD30688003F3D4BB
:100970002078800767D5E068810604D53268202199
:100980000A43326088430923042D17D00C2D01D16E
:10099000002F13D0002841D03168994301433160C2
:1009A000FFF706FD0746306840072ED4FFF700FD2D
:1009B000C01B022826D9032003B0F0BD31684907C7
:1009C00001D500281BD071681F22120291432269B1
:1009D0001202114371603168994301433160FFF79E
:1009E00017FFF16809060A0FA549895CC840A549A7
:1009F00008600020FFF7FEFC0028DDD123E0012085
:100A000003B0F0BD30684007D0D570681F210902DF
:100A10008843216909020843706014E03068400887
:100A200040003060FFF7C4FC0746306840070AD535
:100A3000FFF7BEFCC01B022802D9032003B0F0BDA3
:100A400030684007F4D42078C0066AD5002D15D050
:100A5000A06900284FD03068FF2101310843306081
:100A6000FFF7A6FC07463068800535D4FFF7A0FCE9
:100A7000C01B02282DD9032003B0F0BD30688005CB
:100A800002D5A069002821D0706807214903884356
:100A9000216A084370607068217F0002000A09061D
:100AA00008437060206A410B491C0120C003884044
:100AB000F16809060A0F7249895CC84071490860EB
:100AC0000020FFF797FC0028D6D12AE0012003B0D0
:100AD000F0BD30688005C9D5706807214903884397
:100AE000216A084370607068217F0002000A0906CD
:100AF0000843706015E03168FF20013081433160A8
:100B0000FFF756FC0746306880050AD5FFF750FC12
:100B1000C01B022802D9032003B0F0BD3068800555
:100B2000F4D42078584F00072FD56069002816D0DC
:100B30003869012108433861FFF73AFC02903869AF
:100B4000800722D4FFF734FC0299401A022802D908
:100B5000032003B0F0BD38698007F3D515E038698C
:100B6000400840003861FFF723FC02903869800795
:100B70000BD5FFF71DFC0299401A022802D9032069
:100B800003B0F0BD38698007F3D42078400774D5EE
:100B900000200190B06BC00006D4B06B01210907A2
:100BA0000843B0630120019038480168C90518D492
:100BB00001688015014335480160FFF7F9FB029099
:100BC00032480068C0050CD4FFF7F2FB0299401AC6
:100BD000642802D9032003B0F0BD2C480068C0058A
:100BE000F2D5FF20A2680130824203D13969014366
:100BF00039611BE001218902002A0AD005231B026A
:100C00009A420DD13A690A433A613969014339611F
:100C10000CE03A6982433A6138698843386105E0FB
:100C20003A6982433A61386988433861A06800288C
:100C300013D0FFF7BDFB0290386980052DD4FFF774
:100C4000B7FB0299411A1248814202D9032003B02E
:100C5000F0BD38698005F2D51FE0FFF7A9FB0290CF
:100C60003869800519D5FFF7A3FB0299411A084896
:100C700081420FD9032003B0F0BD16E000100240FE
:100C80000C280008000000204010024000700040C6
:100C90008813000038698005E5D40198012804D143
:100CA000B06B012109078843B063606A002864D0F3
:100CB0000C2D49D001252D0602280FD03068A843FD
:100CC0003060FFF775FB04463068800155D5FFF7AB
:100CD0006FFB001B022833D90320CCE73068A84300
:100CE0003060FFF765FB07463068800109D5FFF7E4
:100CF0005FFBC01B022801D90320BCE730688001DC
:100D0000F5D4E16AA06AF2680843216BFD231B0455
:100D10009A4311430843F060306828433060FFF77E
:100D200047FB04463068800127D4FFF741FB001BD6
:100D3000022801D903209EE730688001F5D51CE028
:100D400030688001C3D418E0012814D0F068012174
:100D50000904A26A014091420BD10F218904E26A81
:100D60000140914205D1032189050840216B884249
:100D700003D001207FE701207DE700207BE7000012
:100D800010B50B46006841680D480140080CD8704A
:100D9000CC04E40E5C708C06A40E9C700904490F10
:100DA0001970002A0AD100F093FCD870587800F02E
:100DB0008FFC5870987800F08BFC9870002010BD64
:100DC0003FFFFF0010B50B460168896A5960016852
:100DD00009694904490C9960006801680E4801409E
:100DE0008802800E18704C04640E5C704C06640E11
:100DF0009C70090C40242140D970002A0AD100F0CF
:100E000067FC1870587800F063FC5870987800F010
:100E10005FFC9870002010BD7F7F7F00F8B504460E
:100E2000002C05D0254620356878002802D006E041
:100E30000120F8BD00202870204600F055F802205F
:100E400068702168CA2048622168532048622046A1
:100E500000F052FCFF260427002804D020684662D8
:100E60006F700120F8BD206881681E4A11408160C2
:100E7000206881686268A369114322691A4311439B
:100E800081602168E0680861206801692289120494
:100E9000114301612068C16880229143C1602068CC
:100EA000C16C89088900C164E169606901432068F7
:100EB000C26C1143C1642068806880060BD4204650
:100EC00000F00EF9002806D0206846626F700020FE
:100ED00028700120F8BD206846620120687000205B
:100EE000F8BD0000BFFF8FFF00680549884205D1AB
:100EF0000448016901229204114301617047000016
:100F00000028004040100240F8B504460B46254634
:100F100020352878012806D001202870022068702A
:100F2000002A02D008E00220F8BD5878C10603D597
:100F3000EF2108400A305870002A1DD0D8789E78DA
:100F40000004064358781978000249030843064311
:100F50002168CA204862216853204862204600F078
:100F6000CBFB0027002818D02168FF20486204200E
:100F700068702F700120F8BDD87800F0B1FB06042E
:100F8000587800F0ADFB00020643987800F0A8FB0B
:100F90000643187840030643DAE711480640206804
:100FA00046602068C16880229143C16020688068E3
:100FB00080060CD4204600F093F8002807D0216862
:100FC000FF204862042068702F700120F8BD21685E
:100FD000FF204862012068702F700020F8BD0000DB
:100FE0003FFFFF00F8B504460D4626462036307810
:100FF000012829D00120307002207070002A25D0ED
:1010000020688068400601D40020E8702878AF7816
:10101000000407436878E97800020904084307439D
:101020002168CA204862216853204862204600F0A7
:1010300063FB002821D02168FF20486204207070E3
:10104000002030700120F8BD0220F8BD20688068C3
:10105000400601D40020E870287800F041FB070426
:10106000687800F03DFB00020743A87800F038FBE9
:101070000743E87800040743D2E718480740206890
:101080000760206881680122920491438160E968C9
:101090002869014320688268114381602068C16823
:1010A00080229143C1602068806880060DD420466C
:1010B00000F016F8002808D02168FF2048620420BC
:1010C0007070002030700120F8BD2168FF20486258
:1010D0000120707000203070F8BD00007F7F7F001D
:1010E00070B504462068C168A0229143C160FFF733
:1010F0005FF905462068C06880060CD47D26F6009E
:10110000FFF756F9401BB04201D9032070BD20689B
:10111000C0688006F4D5002070BD000010B40B49F3
:10112000401E884202D910BC01207047084948611E
:1011300008480723C2691202120A4C042243C26102
:10114000002088610B6110BC70470000FFFFFF00AA
:1011500000E000E004ED00E010B50446002C03D0F0
:10116000606F002802D007E0012010BD0021702030
:101170000155204600F028F82420606720680168A7
:10118000490849000160204600F058FC012819D0A8
:10119000606A002802D0204600F0B8FB2068416851
:1011A0000922D20291434160206881682A2291433A
:1011B000816020680168012211430160204600F02F
:1011C0000BFC10BD012010BD10B586B004461421E3
:1011D0006846FEF7DAFF1149206888421BD11048A3
:1011E000816B0122520411438163C16A01221143C0
:1011F000C162C06A6946104005900C200090022030
:101200000190002002900320039004200490052008
:101210000007FFF709F806B010BD000000440040C9
:1012200000100240FEE770B50446082517E00020D4
:1012300000F081FA022000F094FEE009C00100F005
:10124000A7FA022000F08DFE6006040E022000F0D6
:1012500088FE012000F06FFA022000F082FE28468E
:101260006D1EEDB20028E2D100F065FA022000F018
:1012700078FE70BD10B5012000F08AFA022000F05F
:1012800070FE012000F057FA022000F06AFE0020F4
:1012900000F07EFA022000F064FE002000F04BFA1D
:1012A000022000F05EFE10BD10B5002000F043FAF1
:1012B000022000F056FE002000F06AFA022000F042
:1012C00050FE012000F037FA022000F04AFE012013
:1012D00000F05EFA022000F044FE10BD10B50524B7
:1012E00000F040FA022000F03CFE012000F023FA5A
:1012F000022000F036FE06E0641EA4B2022000F0D8
:1013000030FE002C0DD000F025FA0028F4D100F0BA
:101310004DFA002000F00FFA022000F022FE00201B
:1013200010BD00F043FAFFF7BFFF012010BD000021
:10133000F0B587B014216846FEF727FF2648C26A39
:1013400004210A43C262C26A0A400592C16A0125A9
:101350002943C162C16A29400591C26A02210A4338
:10136000C262C06A8E0308400590002231461B48C5
:10137000FFF717F82F020520002239460007FFF774
:1013800010F8002270211648FFF70BF8A80300247C
:1013900000900194694602941048FEF745FF0294BC
:1013A00069460E48009601950394FEF73DFF05201F
:1013B000029469460007009701950394FEF734FFF5
:1013C0007020009002946946019503940448FEF74A
:1013D0002BFF07B0F0BD00000010024000080050D5
:1013E0000004005010B586B014216846FEF7CDFE0B
:1013F00000241B491B48059412C07F2101608460B2
:10140000C460FF2104612D31446141600838FFF759
:1014100005FD002801D0FEF7F7FE0A21684601709D
:101420001921417084700394002269460D48049488
:10143000FFF7D8FD002801D0FEF7E6FE012069463F
:10144000087548758875CC75002205A90548FFF711
:101450005BFD002801D0FEF7D7FE06B010BD0000EE
:10146000002800400800002010B50C480A4901601F
:10147000E1214902416000218160C1600161816117
:10148000C1610C22016242614162FFF765FE0028E2
:1014900001D0FEF7B9FE10BD004400402C00002032
:1014A000704770B500242046B030C1B2002000F073
:1014B000F3F80021084600F0EFF81021002000F0BA
:1014C000EBF800250021012000F0E6F86D1CEDB2DC
:1014D000802DF7D3641CE4B2042CE4D370BD10B5A6
:1014E000AE21002000F0D8F8D521002000F0D4F87B
:1014F0008021002000F0D0F8A821002000F0CCF8D6
:101500001F21002000F0C8F8D321002000F0C4F80B
:101510000021084600F0C0F84021002000F0BCF88F
:10152000B021002000F0B8F88D21002000F0B4F8C0
:101530001421002000F0B0F8A121002000F0ACF848
:10154000C821002000F0A8F8DA21002000F0A4F85B
:101550000021084600F0A0F88121002000F09CF84E
:10156000FF21002000F098F8D921002000F094F825
:101570001F21002000F090F8DB21002000F08CF803
:101580004021002000F088F8A421002000F084F819
:10159000FFF787FFAF21002000F07EF810BD0000AC
:1015A00010B5054B012805D0012220211846FEF771
:1015B000F8FE10BD0022F8E70004005010B5044604
:1015C000B031C9B2002000F067F8210900201031C5
:1015D00000F062F82107090F002000F05DF810BD4F
:1015E000FFB581B0203A019800240D46D6B27F287D
:1015F00003D900208D1CEDB20190102B29460FD08D
:10160000FFF7DCFF0620464314483518295D01200A
:1016100000F042F8641CE4B2062CF7D305B0F0BD2C
:10162000FFF7CCFF37010E4E3819315C012000F076
:1016300033F8641CE4B2082CF6D36D1CE9B20198AF
:10164000FFF7BCFF002438198019017A012000F04F
:1016500023F8641CE4B2082CF5D3DFE7F41F00087C
:101660001C220008FFB581B017460E46044600252F
:101670000DE031462046049BFFF7B2FF0834E4B288
:10168000782C02D90024B61CF6B26D1CEDB27A5D3E
:10169000002AEED105B0F0BD70B50D460446FFF747
:1016A000E9FD7820FFF7BFFDFFF718FE002C0CD0F6
:1016B0004020FFF7B8FDFFF711FE2846FFF7B3FD06
:1016C000FFF70CFEFFF7F0FD70BD0020F1E770475B
:1016D00001090A2251430007000F4018C0B27047A9
:1016E00000210A2804D3491C0A38C0B20A28FAD2B9
:1016F0000907090E0843704770B504462068C168A1
:10170000490616D40021C943C160FEF751FE0546C3
:101710002068C06840060CD47D26F600FEF748FE1F
:10172000401BB04201D9032070BD2068C06840064C
:10173000F4D5002070BD0521FF22090701320028E1
:1017400003D08869104388617047886A10438862B3
:101750007047000010B510210148FEF71BFE10BDB8
:101760000004005000B585B014216846FEF70DFD59
:101770001020002100900120019103910290694600
:101780000248FEF751FD05B000BD00000004005006
:1017900005491022002803D08869104388617047EA
:1017A000886A1043886270470004005000B585B015
:1017B00014216846FEF7E9FC1020009001200190FA
:1017C00000200290039069460248FEF72DFD05B007
:1017D00000BD000000040050704710B5FEF7EEFD9C
:1017E00010BD000010B59AB034216846FEF7CDFC5C
:1017F000142115A8FEF7C9FC20210DA8FEF7C5FC91
:10180000174801680322D2029143C214891801606B
:101810000A20009010200490022009904004012129
:101820000B900001059100240C9003910A946846E6
:10183000FFF732F80F201590032016901794189494
:101840000121199415A8FEF7E1FE22200D90012038
:1018500040040E9010940DA8FEF712FE1AB010BDB1
:101860000070004010480168821511430160C16892
:101870000E4A1140C16001680D4A11400160816843
:101880004908490081600168012292049143016086
:10189000C168FD2212049143C16000210161054924
:1018A000C003886070470000001002400C40FF88B1
:1018B000F6FFF6FE00ED00E010B50122D1030D4861
:1018C000FEF76FFD0120FFF76BFEC820FEF79DFCC1
:1018D000FFF705FEFFF7E5FD0021102306A20846ED
:1018E000FFF7C0FE102304A202210020FFF7BAFE7A
:1018F00010BD0000000800502020202020202020C3
:1019000020202020202020200000000010B4818C06
:10191000C90707D001684A6801235B049A43836AB8
:101920001A434A60818C890707D501684A680123F8
:101930001B049A43C36A1A434A60818C490707D53E
:1019400001684A6801239B049A43036B1A434A6067
:10195000818C090707D501684A680123DB039A4394
:10196000436B1A434A60818CC90607D501688A68AF
:1019700001231B039A43836B1A438A60818C890677
:1019800007D501688A6801235B039A43C36B1A4336
:101990008A60818C490612D501684B6801221205C4
:1019A000046C934323434B60016C914207D101685F
:1019B0004A6803235B059A43436C1A434A60818C4F
:1019C000090607D501684A680123DB04806C9A4345
:1019D00002434A6010BC7047F8B504460025E5672D
:1019E000FEF7E6FC074620680068134E00070BD59B
:1019F00001213B46002249052046009600F0A4F94B
:101A0000002801D00320F8BD2068006840070BD5EE
:101A100001213B46002289052046009600F094F9FA
:101A2000002801D00320F8BD20206067A067603443
:101A300025740020F8BD0000FFFFFF01F8B5044643
:101A40001021002000250023226894462669A26800
:101A5000E769324366693E43324366463668AB4FB8
:101A60003E401643624616602268566803273F03CD
:101A7000BE43E7683E435660A2692768A44EBC4651
:101A8000B74201D0266A32436646B6680B273F024A
:101A9000BE431643624696609E4E22689E4FB242F7
:101AA00012D1FE68B607B60F06D0012E08D0022E5E
:101AB00004D0032E38D105E0012135E0022133E0C6
:101AC000042131E008212FE0944EB24212D1FE6889
:101AD0000C273E4006D0042E08D0082E04D00C2E31
:101AE00022D105E000211FE002211DE004211BE0BE
:101AF000082119E08A4EB24201D1002114E0894E3A
:101B0000B24201D100210FE0814EB2420CD1FE68F9
:101B10000327BF023E4020D01715F61B21D0F61B2D
:101B20001DD0BE4200D10821794E7F4FB24240D134
:101B3000002918D002291AD004291FD0082921D041
:101B40000125002B78D0626850001018984202D806
:101B50001003984219D20125D2E00021E4E70221C6
:101B6000E2E70421E0E7FEF733FE0346E9E73868E1
:101B7000C00601D56D4BE4E76D4BE2E7FEF748FE8A
:101B80000346DEE70123DB03DBE7190E1B025008E7
:101B90000026181871413346FEF7C0FA03210902E6
:101BA000644A411A914202D82168C860A8E0012520
:101BB000A6E00122E369D2035F4E934256D1092980
:101BC00044D20A007A44127992189744040E183FBE
:101BD0002B3F3F3F3600FEF7FBFD616840004A089F
:101BE0008018FEF785FA80B231E0FEF701FE6168E9
:101BF00040004A088018FEF77BFA80B227E0386878
:101C0000C00607D561684D4A48088018FEF770FA8B
:101C100080B21CE061684A4A48088018FEF768FAFA
:101C200080B214E0FEF7F4FD616840004A088018B5
:101C3000FEF75EFA80B20AE062E0616801224808BD
:101C400012048018FEF754FA80B200E00125014624
:101C50001039B14208D83B4902460A400007410FFB
:101C600011432068C1604BE0012549E009293ED2BB
:101C70000B007B441B79DB189F44040D163929396E
:101C800039393200FEF7A4FD61684A088018FEF772
:101C90002FFA80B22CE0FEF7ABFD61684A0880188D
:101CA000FEF726FA80B223E03868C00607D56168DF
:101CB0001E484A081018FEF71BFA80B218E0616847
:101CC0001B484A081018FEF713FA80B210E0FEF71E
:101CD0009FFD61684A088018FEF70AFA80B207E0A3
:101CE000616848088018FEF703FA80B200E0012519
:101CF00001461039B14202D82168C86000E00125D0
:101D00000020206660662846F8BD0000F369FFEFFA
:101D100000480040003801404010024000440040AC
:101D2000004C0040005000400010024000093D00FF
:101D30000024F400FFFC0F00EFFF000000127A0007
:101D40000048E801F0FF0000FFB581B00A9D04469D
:101D50000E4617462068C1693046884317D00020D8
:101D6000B84211D1681C07D0FEF722FB0499401A33
:101D7000A8420ED8002D0CD02068C1693046884397
:101D80001BD00020B842EDD0002005B0F0BD0120EE
:101D9000E6E720680168FF22A132914301602068D4
:101DA000816849084900816020206067A0670020A1
:101DB00060342074032005B0F0BD0120E2E700008C
:101DC0000FB410B504A9074B02AA039800F01CF841
:101DD000044602A9002000F0BFF8204610BC08BC51
:101DE00004B01847591F000802E008C8121F08C1B4
:101DF000002AFAD170477047002001E001C1121F8C
:101E0000002AFBD170470000FFB58DB004460025C5
:101E100006E025280AD0109A0F999047641C6D1C83
:101E200020780028F5D1284611B0F0BD0027012107
:101E3000484A009700E00743641C23780846203B8B
:101E400098401042F7D120782E2817D1042007435C
:101E50006078641C2A280CD10E98641C02C800917A
:101E60000E900BE000990A22514330394018641C4F
:101E700000902078014630390929F3D920780028CC
:101E8000D1D0642808D0692806D075281ED0109AB1
:101E90000F9990476D1C5BE00A200E99019001C9D3
:101EA0000E91002802DA40422D2102E0390504D5C6
:101EB0002B216A461172012103E0F90704D0202189
:101EC000F7E70BAE0B910DE00021FAE70A200E991F
:101ED000019001C90E91F7E70199FEF709F9303138
:101EE000761E31700028F7D103A8801B20300190A6
:101EF000780701D5009801E00120009001998842FF
:101F000001DD401A00E000200027009006E002A852
:101F1000109AC05D0F9990476D1C7F1C0B988742EB
:101F2000F5DB04E0109A30200F9990476D1C009962
:101F3000481E00900029F5DC05E03078109A761CE8
:101F40000F9990476D1C0199481E01900029F4DCFF
:101F5000641C65E7092801000A68531C0B601070B7
:101F60007047002100E0491C8142FCD3704700000B
:101F700090B0FEF72BFAFFF735FCFFF7D9F9FFF722
:101F800031FAFFF771FAFFF797FC002201A9144814
:101F9000FEF718FF002206A91148FEF7F1FE684679
:101FA000807E00906846437EC27E0EA107A8FFF7A0
:101FB00007FF68468079009068464379027909A155
:101FC0000BA8FFF7FDFE0021102307AA0846FFF724
:101FD00049FB10230BAA02210020FFF743FBD4E7A3
:101FE000080000202564203A202564203A2025643A
:101FF000200000000000000000000000002F000092
:1020000000000700070000147F147F1400242A7FBB
:102010002A1200626408132300364955225000003A
:102020000503000000001C224100000041221C00AA
:102030000014083E08140008083E0808000000A02C
:102040006000000808080808000060600000002028
:1020500010080402003E5149453E0000427F400006
:10206000004261514946002141454B31001814128C
:102070007F10002745454539003C4A494930000159
:102080007109050300364949493600064949291EA8
:10209000000036360000000056360000000814220A
:1020A000410000141414141400004122140800020A
:1020B0000151090600324959513E007C1211127C2F
:1020C000007F49494936003E41414122007F41415C
:1020D000221C007F49494941007F09090901003E4E
:1020E0004149497A007F0808087F0000417F41008C
:1020F000002040413F01007F08142241007F404002
:102100004040007F020C027F007F0408107F003EE9
:102110004141413E007F09090906003E4151215ECF
:10212000007F091929460046494949310001017FCC
:102130000101003F4040403F001F2040201F003F62
:102140004038403F00631408146300070870080714
:1021500000615149454300007F41410000552A5527
:102160002A55000041417F000004020102040040A2
:1021700040404040000001020400002054545478C4
:10218000007F4844443800384444442000384444E4
:10219000487F00385454541800087E090102001882
:1021A000A4A4A47C007F080404780000447D4000BF
:1021B000004080847D00007F102844000000417FA3
:1021C0004000007C04180478007C0804047800387F
:1021D0004444443800FC242424180018242418FC07
:1021E000007C0804040800485454542000043F4470
:1021F0004020003C4040207C001C2040201C003C33
:102200004030403C004428102844001CA0A0A07C82
:10221000004464544C4414141414141400000000BA
:10222000000000000000000000000000000000F8B6
:1022300000000000000000333000000000100C0619
:10224000100C0600000000000000000040C07840B4
:10225000C0784000043F04043F040400007088FC80
:1022600008300000001820FF211E0000F008F000D8
:10227000E018000000211C031E211E0000F0088849
:10228000700000001E2123241927211010160E00B3
:10229000000000000000000000000000000000E05E
:1022A0001804020000000007182040000002041873
:1022B000E00000000040201807000000404080F0CF
:1022C000804040000202010F01020200000000F005
:1022D000000000000101011F0101010000000000D9
:1022E0000000000080B0700000000000000000004E
:1022F00000000000000101010101010100000000D7
:10230000000000000030300000000000000000006D
:1023100080601804006018060100000000E010084A
:102320000810E000000F102020100F00001010F81F
:10233000000000000020203F20200000007008085E
:1023400008887000003028242221300000300888DE
:10235000884830000018202020110E000000C02006
:1023600010F8000000070424243F240000F8088827
:10237000880808000019212020110E0000E01088B4
:1023800088180000000F112020110E0000380808E6
:10239000C83808000000003F0000000000708808F6
:1023A00008887000001C222121221C0000E0100877
:1023B0000810E0000000312222110F00000000C0D0
:1023C000C00000000000003030000000000000806D
:1023D000000000000000806000000000000080405D
:1023E0002010080000010204081020004040404076
:1023F00040404000040404040404040000081020C9
:10240000408000000020100804020100007048080D
:102410000808F0000000003036010000C030C82875
:10242000E810E0000718272423140B000000C03830
:10243000E0000000203C23020227382008F88888AA
:1024400088700000203F202020110E00C0300808B6
:1024500008083800071820202010080008F808088D
:102460000810E000203F202020100F0008F8888886
:10247000E8081000203F20202320180008F8888852
:10248000E8081000203F200003000000C0300808CA
:102490000838000007182020221E020008F8080053
:1024A0000008F808203F210101213F20000808F81A
:1024B000080800000020203F20200000000008083D
:1024C000F8080800C08080807F00000008F888C0FD
:1024D00028180800203F20012638200008F80800AE
:1024E00000000000203F20202020300008F8F800E5
:1024F000F8F80800203F003F003F200008F830C0F7
:102500000008F808203F200007183F00E0100808E6
:102510000810E0000F10202020100F0008F8080815
:102520000808F000203F210101010000E010080828
:102530000810E0000F18242438504F0008F888884D
:1025400088887000203F2000030C3020007088082D
:10255000080838000038202121221C00180808F83B
:10256000080818000000203F2000000008F80800BC
:102570000008F808001F202020201F00087888008D
:1025800000C83808000007380E010000F80800F8FD
:102590000008F800033C0700073C030008186880A7
:1025A0008068180820302C03032C30200838C8001D
:1025B000C83808000000203F20000000100808086C
:1025C000C83808002038262120201800000000FE0E
:1025D000020202000000007F40404000000C30C0BA
:1025E00000000000000000010638C00000020202E6
:1025F000FE000000004040407F0000000000040298
:1026000002020400000000000000000000000000C2
:1026100000000000808080808080808000020204B2
:1026200000000000000000000000000000008080AA
:10263000808000000019242222223F2008F8008018
:1026400080000000003F112020110E0000000080DB
:1026500080800000000E112020201100000000806A
:102660008088F800000E112020103F20000080809C
:1026700080800000001F222222221300008080F0B0
:10268000888888180020203F2020000000008080DB
:1026900080808000006B94949493600008F8008020
:1026A00080800000203F210000203F20008098987B
:1026B000000000000020203F2020000000000080DB
:1026C0009898000000C08080807F000008F800001B
:1026D00080808000203F24022D302000000808F870
:1026E000000000000020203F20200000808080802B
:1026F00080808000203F20003F20003F80800080BD
:1027000080800000203F210000203F2000008080CA
:1027100080800000001F202020201F00808000807B
:102720008000000080FFA12020110E00000000802A
:1027300080808000000E112020A0FF80808080001B
:102740008080800020203F21200001000000808048
:10275000808080000033242424241900008080E03D
:10276000808000000000001F20200000808000000A
:1027700000808000001F202020103F2080808000EB
:102780000080808000010E300806010080800080FB
:10279000008080800F300C030C300F000080800020
:1027A000808080000020312E0E312000808080004B
:1027B0000080808080818E701806010000808080FB
:1027C000808080000021302C222130000000000099
:1027D000807C020200000000003F4040000000003A
:1027E000FF00000000000000FF0000000002027C6B
:1027F000800000000040403F000000000006010192
:1028000002020404000000000000000000000000BC
:10281000000000000102030406070809030406087B
:102820000C1018203000000000010203040000001A
:10283000502800080000002008000000E81D0008E3
:102840005828000808000020A8040000F81D00080F
:08285000000020000000000060
:04000005080000C12E
:00000001FF
