:030000000205E214
:0C05E200787FE4F6D8FD758142020629FE
:1007D300C0F9A4B0999282F880904079243019121C
:0907E30002780010BFFFC18CC8B0
:10066E0008330001020304050607013D00013E00A8
:10067E00013F00014000013C00012FFF0130FF014E
:10068E00210002230000012200012900022D012C6D
:10069E0002250000012C0002410000022A00000188
:0A06AE003BFF0231000002270000AC
:10046800120737120819E4FF1206B9EF75F00AA44B
:1004780085F02DF52E7F057E0012077BE52CC394B1
:1004880063500302054BE4F52C7F031207138F21F9
:10049800852A41852B42EF75F064A4FFAEF07C00FD
:1004A8007D321205518E2A8F2BC3E52B952EE52A16
:1004B800952D5012E542952EE541952D40080526CB
:1004C800E52670020525C3E52B952EE52A952D50C6
:1004D8000A0532E532700905318005E4F531F53257
:1004E800C3E5329431E5319400400B43A08053A01A
:1004F8009F533BFE800943A08053A09F433B018547
:100508003B80E52630E00B43A08053A09F533BFD82
:10051800800943A08053A09F433B02853B80C3E5ED
:10052800289403E5279400400B43A08053A09F53D1
:100538003BFB800943A08053A09F433B04853B803D
:090548001200661202B6020484DE
:1002B6007509FF750880E508D394085003020467A2
:1002C6007509FFE508B48006C2C4D2C28011E508EC
:1002D600B44006C2C2D2C48006D2C2D2C4E508F473
:1002E600F5B0E508B4800885B00953097F8010E5AC
:1002F60008B4400885B0095309BF800385B009E5F5
:1003060009540F640F700302044EE5091205BC037D
:100316006A77035F7B03547D03497E0396B7038B9D
:10032600BB0380BD0375BE03C4D703B7DB03ACDDD7
:1003360003A1DE0428E70407EB03FDED03F3EE005B
:1003460000044E0528E528704F052702044E0528AF
:10035600E5287002052702044E0528E528700205E7
:100366002702044E0528E5287002052702044E05DB
:1003760028E5287002052702044E0528E5287002A4
:10038600052702044E0528E5287002052702044EBB
:100396000528E5287002052702044E0528E5287081
:1003A60002052702044E0528E528700205270204E7
:1003B6004EE529B40205E4F525F526020449E529AA
:1003C60070057529018024E529B40117752902AE47
:1003D6002DAF2E7C007D0A120551AD07E4FF1207F2
:1003E600598008E529B40203E4F52980560528E575
:1003F600287002052780510528E528700205278008
:1004060047E529B4011AE52E452D7008752D0175AD
:100416002EF4800C74CE252EF52E74FF352DF52D79
:100426008021E529B4011CE52EB4F40CE52DB401B8
:1004360007E4F52DF52E800B7432252EF52EE435C6
:100446002DF52DE4F527F528E509540F640F60080E
:1004560085B00953090F80F0E508C313F5080202B9
:01046600BCD9
:010467002272
:10006600E5297050E52175F064A4FFAEF07C007DB3
:10007600331205518E238F24753316753415753555
:10008600157536157537157C007D64120551EF24FC
:100096000AF538AE23AF247C007D641205517E003C
:1000A6007F0ACFCDCFCECCCE1205518F39AE23AF3E
:1000B600240202ACE5296401703F753317753415C7
:1000C600753515753615753715AE2DAF2EFC7D6455
:1000D600120551EF240AF538AE2DAF2E7C007D6453
:1000E6001205517E007F0ACFCDCFCECCCE12055160
:1000F6008F39AE2DAF2E0202ACE5296402600302F1
:1001060002B5C3E526940AE52594005019753318FF
:1001160075341575351575361575371575381575A4
:10012600391585263A22C3E526940AE5259400402A
:1001360030E5269464E52594005026753318753409
:1001460015753515753615753715753815AE25AF10
:10015600267C007D0A1205518F39AE25AF26020294
:10016600ACC3E5269464E52594004047E52694E86B
:10017600E5259403503D7533187534157535157599
:100186003615753715AE25AF267C007D64120551F0
:100196008F38AE25AF267C007D641205517E007F28
:1001A6000ACFCDCFCECCCE1205518F39AE25AF2694
:1001B6000202ACC3E52694E8E5259403405EE526F5
:1001C6009410E525942750547533187534157535F4
:1001D60015753615AE25AF267C037DE81205518FC1
:1001E60037AE25AF267C037DE81205517E007F647D
:1001F600CFCDCFCECCCE1205518F38AE25AF267CD3
:10020600007D641205517E007F0ACFCDCFCECCCEC5
:100216001205518F39AE25AF260202ACC3E52694EE
:1002260010E525942750030202B5AE25AF26E4FC5F
:10023600FD7BA07A867901F8D31205A64071753345
:1002460018753415753515AE25AF267C277D101229
:1002560005518F36AE25AF267C277D101205517EBF
:10026600037FE8CFCDCFCECCCE1205518F37AE254A
:10027600AF267C037DE81205517E007F64CFCDCF8B
:10028600CECCCE1205518F38AE25AF267C007D64CC
:100296001205517E007F0ACFCDCFCECCCE120551AE
:1002A6008F39AE25AF267C007D0A1205518D3A2284
:10081900438E0475D72075D6D1438E1043AF04D2C9
:02082900AF22FC
:0300630002000395
:10000300C0E0C083C082C0D075D000C000C0074329
:10001300A0C07580FF53A0DFAF3C7401A807088020
:1000230002C333D8FCF58043A0E07580FF74332509
:100033003CF8E69007D393F580053CE53CB4080310
:10004300753C00052CD007D000D0D0D082D083D00F
:02005300E03299
:10077B00D3EF9400EE6480948040147D4D7C03EDA8
:0F078B001D70011CED4C70F7EF1F70E41E80E134
:01079A00223C
:1007370043A0A053A0BFE4F58043A08053A09F75BA
:1007470080FF43A0C053A0DF7580FF43A0E0758002
:02075700FF227F
:04005500D2A07F288E
:0800590000AE071FEE70F92252
:0F082B00D2A1120055C2A17F28120059C2A022EB
:0C083A00C2A1120055D2A17F2802005973
:1007EC00C2A0A20092A17F28120059120055C2A0EB
:0707FC00D2A17F2802005981
:0A07B800AB0712082B7F901206E732
:1007C200120055A2A19201C2A07F28120059A201D3
:0107D2002204
:0206E700AD075D
:1006E900E4FCC2A07F28120059ED30E704D2A180B2
:1006F90002C2A17F28120059D2A0ED25E0FD7F2872
:090709001200590CBC08DBC2A06F
:0107120022C4
:10079B00E4FC120055ED25E0FD30A103430501C239
:0C07AB00A07F281200590CBC08E8AF0524
:0107B700221F
:100713001207B8AF031206E71207C212083A12080B
:100723002B7F911206E71207C212079BAD0712082F
:030733003AAF05D5
:0107360022A0
:100803001207B87F401206E71207C2AF031206E7CA
:060813001207C202083AC0
:0206B900AB078D
:1006BB0012082B7FA01206E71207C2AF031206E740
:1006CB001207C212083A12082B7FA11206E7120773
:0B06DB00C212079BAD0712083AAF05E2
:0106E60022F1
:10075900AB05AA0712082B7FA01206E71207C2AF42
:10076900021206E71207C2AF031206E71207C20216
:02077900083A3C
:1005EE00020468E493A3F8E493A34003F68001F2B7
:1005FE0008DFF48029E493A3F85407240CC8C3330E
:10060E00C4540F4420C8834004F456800146F6DFDC
:10061E00E4800B010204081020408090066EE47EF8
:10062E00019360BCA3FF543F30E509541FFEE493D1
:10063E00A360010ECF54C025E060A840B8E493A398
:10064E00FAE493A3F8E493A3C8C582C8CAC583CAC3
:10065E00F0A3C8C582C8CAC583CADFE9DEE780BE7B
:0106B8000041
:10055100BC000BBE0029EF8DF084FFADF022E4CC8E
:10056100F875F008EF2FFFEE33FEEC33FCEE9DEC57
:10057100984005FCEE9DFE0FD5F0E9E4CEFD22ED9D
:10058100F8F5F0EE8420D21CFEADF075F008EF2FE7
:10059100FFED33FD4007985006D5F0F222C398FDD8
:0505A1000FD5F0EA2275
:1005A600EB9FF5F0EA9E42F0E99D42F0EC6480C8CC
:0605B60064809845F0226C
:1005BC00D083D082F8E4937012740193700DA3A3CE
:1005CC0093F8740193F5828883E4737402936860E2
:0605DC00EFA3A3A380DFE2
:00000001FF
