:020000040800F2
:10000000301600204D010008A5230008831E0008BB
:1000100000000000000000000000000000000000E0
:100020000000000000000000000000009125000812
:1000300000000000000000000B010008D1250008AE
:100040005F0100085F0100085F0100085F01000810
:100050005F0100085F0100085F0100085F01000800
:1000600000000000A50200085F010008B5020008BA
:100070005F0100085F0100085F0100085F010008E0
:100080005F010008852600085F01000800000000ED
:100090005F0100085F0100085F0100085F010008C0
:1000A0005F010008712500085F0100085F0100087A
:1000B000892B00085F01000800000000000000001C
:1000C0000348854600F0DCF800480047A12E0008F0
:1000D00030160020084B19680868203080F3098822
:1000E000022080F31488BFF36F8F3FBCAE4608BC7C
:1000F00004BC62B61847000030000020EFF3108007
:1001000072B6704780F310887047EFF309800E4B8A
:100110001A6820381060F0C044464D4656465F4687
:10012000F0C008B572B603F009FA62B60CBC1168EB
:1001300008681030F0C8A046A946B246BB4680F316
:1001400009882038F0C8184730000020044880474C
:1001500004480047FEE7FEE7FEE7FEE7FEE7FEE7AE
:1001600081260008C100000830B50B46014600207A
:100170002022012409E00D46D5409D4205D31D46AD
:100180009540491B2546954040191546521E002DA5
:10019000F1DC30BDF0B51FB40646002082B0054644
:1001A0004024019100901BE0019922460F46304601
:1001B00000F054F8049A059B801A994110D3104618
:1001C0001946224600F03AF8361A8F410197224626
:1001D00001200021009F00F031F838184D410090B7
:1001E0002046641E0028DFDC019B00982946324629
:1001F00007B0F0BD03460B439B0703D009E008C9D5
:10020000121F08C0042AFAD203E00B780370401CC6
:10021000491C521EF9D27047D2B201E00270401C54
:10022000491EFBD270470022F6E710B513460A4676
:1002300004461946FFF7F0FF204610BD10B5202AEE
:1002400004DB0146203A9140002010BD914020235C
:100250009C1A0346E3401943904010BD10B5202A74
:1002600004DB0846203AD040002110BD0B46D340A5
:10027000D0402024A21A91400843194610BD000026
:10028000064C0125064E05E0E36807CC2B430C3CE9
:1002900098471034B442F7D3FFF716FFDC4000084C
:1002A000FC40000810B5024800F0CEF810BD000078
:1002B0002003002010B5024800F0C6F810BD000071
:1002C000F404002072B6FEE7F0B5044600201E23B9
:1002D000012601E05B1E05D3DF06FF0E3546BD405B
:1002E0000D42F7D0002A0ED0082A0AD0102A05D0D5
:1002F000182A01D1072B06D30120F0BD082BFBD211
:1003000001E0102BF8D223685961236899681824FA
:10031000A14311439960F0BD10B5040012D0607F75
:10032000002803D12077204600F034F802206077BF
:100330002079002808D02046E268A168FFF7C4FFB2
:10034000002809D0012010BD2168114848612068AB
:1003500081681822914381606079002814D0206957
:1003600021680861216888686022904362691043AF
:1003700088602168886880229043A2691043886061
:1003800001206077002010BD0020C043E8E7000096
:10039000B71DC10408B500680549884207D1054862
:1003A000026B81140A430263006B0840009008BD91
:1003B000003002400010024030B5014620314A7939
:1003C0000023022A04D00422C2630B71012030BD35
:1003D000026814680E25AC4314600268146864084F
:1003E00064001460446C1C22144001221546006C09
:1003F000A54045604A7118460B7130BD70B50024A8
:10040000014620314A79022A03D00421C163012424
:1004100018E0026813680E25AB4313600268136886
:100420005B085B001360436C1C22134001221546DD
:100430009D40036C5D604A7100220A71816B002946
:1004400000D08847204670BDF0B4016C0D6801688B
:100450000C68466C1C2304221E401746B7402F42EE
:100460000ED067070CD50C68A40602D40C68944320
:100470000C60416C19408A40016C4A60016B1AE0C3
:100480000227B74002462F402032002F17D0A7077F
:1004900015D50C68A40605D40C680A25AC430C607D
:1004A00001215171446C02211C40036CA140596030
:1004B00000211171C16A002918D0F0BC0847082733
:1004C000B7402F4212D0240710D50C680E25AC433C
:1004D0000C60446C01211C400B46A340046C63601B
:1004E000C163517100211171416BE4E7F0BC7047A9
:1004F00070B504003CD01F48256814212818FFF768
:1005000033FE800060641C482064022120462030B5
:100510000246417129681948E3680140A06866698C
:100520001843236933431843A3691843E369184305
:10053000236A1843084328600121A0688903884280
:1005400010D00D488030836A656C1C210D400F2649
:10055000AE40B3438362656C63680D40816AAB4013
:100560000B4383620020E06301215171107170BD63
:10057000012070BDF8FFFDBF000002400F80FFFFAB
:1005800070B5044600F000F90546601C02D004482E
:100590000078241800F0F8F8401BA042FAD370BD90
:1005A0001C000020F8B5002303240125C2E03246D8
:1005B0002E469E40B446324079D00E79B607B60F2B
:1005C000012E01D0022E17D186682746B6465E005E
:1005D000B74000967646BE43B646CF68009EB74009
:1005E00076463743876046686746BE430F79FF0605
:1005F000FF0F9F40374347600E79F643B6070ED092
:10060000C6682746B4465E00B646B7406646BE4357
:10061000B4468F687646B74066463743C7600E7962
:10062000B607B60F022E14D1DE08B60036180096B3
:10063000366A5F07B446FE0E0F27B646B7406646D9
:10064000BE43B4460F697646B74066463743009EC0
:10065000376206682746B4465E00B646B74066462F
:10066000BE430F79B446BF07BF0F7646B740664614
:10067000374307604E68B603B60F5AD0304F7E6BD3
:100680002E437E639F082F4EBF00BE190096B668AA
:100690000F27B4469E07360FB646B7406646BE43A0
:1006A00005273F07B446B84202D100271AE040E0D0
:1006B000254FB84201D1012714E0244FB84201D19F
:1006C00002270FE0224FB84201D103270AE0214F51
:1006D000B84201D1042705E01F4FB84201D10527D8
:1006E00000E006277646B74066463743009EB7606F
:1006F0001A4E36684F689643FF0300D51643174FCE
:100700003E607E684F689643BF0300D51643134F83
:100710007E60BE684F689643FF0200D516430F4FB8
:10072000BE60FE684F689643BF0200D516430B4A71
:10073000D6605B1C0A681646DA4000D037E7F8BD81
:10074000001002400000014000040050000800506A
:10075000000C005000100050001C0050000401402C
:100760000069084000D001207047426913460B40E1
:100770001B0491430B4383617047002A01D08161C0
:100780007047816270470000014880687047000030
:100790001C00002070B5024640325378202B1CD13B
:1007A0001378012B19D0012313702424547004688A
:1007B00025689D432560046825681E03B5432560B0
:1007C000046825680D4325600068016819430160CD
:1007D000202050700020107070BD022070BD70B5D8
:1007E000024640325378202B1BD11378012B18D0AE
:1007F000012414702423537003681D68A5431D60F1
:1008000005682B680F263602B34309021943296095
:1008100000680168214301602020507000201070A2
:1008200070BD022070BD000070B5040006D02546E2
:10083000403568780026002802D005E0012070BD10
:100840002E70204600F0D2F82420687020680168DD
:100850004908490001600F21606809068843216842
:10086000086121688A680120C00382438A60E168C8
:100870000129A16808D021229202114322689160C7
:10088000E168022902D005E00143F7E7012122686F
:10089000C902516021684A680F4B1A434A602168B7
:1008A000CA688243CA60616920690843A169090274
:1008B00008432168C860216AE0690843216808602C
:1008C000206801680122114301606664202068707D
:1008D0002663AE70002070BD00800002FFB50546A3
:1008E00004464035687881B0202878D128780128DE
:1008F00075D001202870FFF747FF074601220090BE
:100900001923D103204601F027FB00283CD12120E8
:1009100068701020A87000266664039860620498CE
:1009200060856663618D2F48FF2903D9FF222285E8
:1009300000903BE0618D218500903DE020460299CA
:1009400001F0F6FA16E001F054FB00281CD1606AB1
:10095000216800788862606A401C6062608D401E79
:100960006085208D401E80B22085618D002901D0D8
:1009700000280CD0608D0A9900283A462046E2D122
:1009800001F011FB00281CD0012005B0F0BD00973C
:100990000022802120460A9B01F0DEFA0028F3D1D4
:1009A000608DFF2805D9FF222285009601231B06B2
:1009B000C4E7608D20850096208D0123C2B25B06BE
:1009C000BCE721682020C86121684A68064B1A40AC
:1009D0004A606870AE702E700020D6E7FFE70220F4
:1009E000D3E700000020008000E800FEF0B587B0EB
:1009F000044614216846FFF716FC1949206888420E
:100A00002BD1184CE06A01252843E062E06A2840B7
:100A10000590E16A02200143E162E16A1226014089
:100A20000591C0010090072004900327052003973B
:100A30000196029569460007FFF7B4FD102000906B
:100A40000720049003970196029569460648FFF730
:100A5000A9FDA06BA1040843A06307B0F0BD00008E
:100A600000780040001002400004005002488168F5
:100A700002788918816070471C00002010B5084872
:100A800000240168402211430160032000F00AF8AD
:100A9000002801D0012401E000F026F8204610BD16
:100AA0000020024070B504460D4D7D202978C0001D
:100AB000FFF75AFB01460B480068FFF755FB00F0B3
:100AC000A1FE002809D1042C07D200222146401E95
:100AD00000F028F800206C6070BD012070BD00009F
:100AE0001C0000202C00002010B50748416B01229B
:100AF00011434163816B020411438163032100228E
:100B0000481F00F00FF810BD00100240002805DB60
:100B1000C106C90E012088400149086070470000E5
:100B200000E100E010B502F071F810BDF8B5044620
:100B300000780027584D800671D5574E403EB06B67
:100B4000C00004D4B06BA9050843B0630127534823
:100B50000168C90511D40168821511430160FFF7CE
:100B600013FE009005E0FFF70FFE0099401A64287D
:100B700037D84A480068C005F5D532680321090511
:100B800060680A400140914208D08103890F03291F
:100B900004D13168890301D50120F8BD2A690321F8
:100BA00009040A4022D0084090421FD020788006D5
:100BB0001CD528692A6988430121C9040A432A618E
:100BC0002A698A432A612861C0050FD5FFF7DCFD39
:100BD000009008E0FFF7D8FD0099411A30488142A3
:100BE00001D90320F8BD28698005F3D56168880321
:100BF000800F032805D132680005824301400A4373
:100C00003260286903226168120411400843286198
:100C1000002F04D0B16B012000078143B16320781D
:100C2000C00705D0E868A168800880000843E86034
:100C30002078800705D5E8680C218843E1680843DF
:100C4000E8602078400706D5E868032189028843D8
:100C500021690843E8602078000706D5E868032189
:100C60000903884361690843E8602088C00506D508
:100C7000E868032109048843A1690843E8602078F3
:100C8000000606D5E868032189048843E169084322
:100C9000E8600020F8BD00004010024000700040F5
:100CA00088130000F8B50E46050038D05E4800688D
:100CB000C007C00FB04214D25B4C2068400840000F
:100CC00030432060FFF760FD074605E0FFF75CFD5D
:100CD000C11B564881427AD82068C007C00FB04275
:100CE000F4D12878524C800705D5E068F02188437C
:100CF000A9680843E0602878C00752D068680228D5
:100D000006D0032807D0216801280AD0890504E00D
:100D10002168890301E021688901002903DB0120A2
:100D2000F8BD4907F9E7E168890889000143E160F6
:100D3000FFF72AFD0746686802280AD0032814D066
:100D400001281ED029E0FFF71FFDC11B3748814253
:100D50003DD8E0680007800F0228F4D121E0FFF7BA
:100D600013FDC11B3148814231D8E0680007800F74
:100D70000328F4D115E0FFF707FDC11B2B48814282
:100D800025D8E0680007800F0128F4D109E0FFF7BB
:100D9000FBFCC11B2548814219D8E0680007800F81
:100DA000F5D121480168C907C90FB14217D90168B7
:100DB0004908490031430160FFF7E6FC074608E0B7
:100DC00005E0FFF7E1FCC11B1848814201D903206F
:100DD000F8BD15480068C007C00FB042F1D12878AF
:100DE000400706D5E068072109028843E9680843FF
:100DF000E0602878000707D5E0680721C90288432A
:100E00002969C9000843E06000F03AF8E168094A3E
:100E10000906090F515CC840074908600748006887
:100E2000FFF740FEF8BD00000020024088130000DC
:100E300000100240944000082C00002020000020F8
:100E4000044805490068C968044A4905490F515CCE
:100E5000C84070472C00002000100240AD40000840
:100E6000044805490068C968044A8904490F515C6F
:100E7000C84070472C00002000100240AD40000820
:100E800070B51A4AD3681A490C2018408D000428FE
:100E90000CD04E00082810D00C2810D05068000448
:100EA000410F0120C003491C884070BD1068C00676
:100EB00001D5084670BD284670BD304670BD980209
:100EC0000C4C000F205C1B029C0FD368641CDB03DE
:100ED00001D5314603E01268D20600D4294601F05C
:100EE0006FFE22460023FFF755F970BD0010024047
:100EF00000093D00A4400008FEB505007ED0F74C77
:100F0000E7680C20E66807400120000406402878C6
:100F1000C00747D0082F05D00C2F0AD101200004AC
:100F2000864206D1206880033CD568680028E5D059
:100F300038E0012069680004814203D1216801433F
:100F4000216011E0052301221B04920499422168CB
:100F500002D111432160F1E7814321602168014002
:100F60000091206890432060686800280DD0FFF74A
:100F70000BFC009005E0FFF707FC0099401A64287D
:100F80007ED820688003F6D50CE0FFF7FDFB0090CB
:100F900005E0FFF7F9FB0099401A6428F0D82068B3
:100FA0008003F6D4287880075DD5E868810604D5EB
:100FB000226820210A43226088430923042F0DD090
:100FC0000C2F01D1002E09D000283CD02168994374
:100FD00001432160FFF7D8FB064628E02168490756
:100FE00001D500288AD061681F22120291432A6924
:100FF0001202114361602168994300E091E10143CD
:101000002160FFF73DFFE16809060A0FB449895CDA
:10101000C840B4490860B4480068FFF743FD0028A1
:1010200074D120E0FFF7B0FB801B0228A8D820680D
:101030004007F7D560681F21090288432969090222
:10104000084360600FE02068400840002060FFF720
:101050009BFB064604E0FFF797FB801B02288FD816
:1010600020684007F7D42878C00661D5002F0DD03E
:10107000A86900284BD02068FF210131084300E017
:10108000C6E02060FFF780FB06462DE02068800563
:1010900002D5A8690028A5D06068072149038843C4
:1010A000296A084360606068297F0002000A090617
:1010B00008436060286A410B0120C003491C884036
:1010C000E16809060A0F8649895CC84085490860BD
:1010D00085480068FFF7E6FC002817D128E0FFF7F5
:1010E00053FB801B0228A1D820688005F7D56068D3
:1010F000072149038843296A084360606068297FA3
:101100000002000A09060843606011E0E1E021687E
:10111000FF20013081432160FFF736FB064604E0E3
:10112000FFF732FB801B022872D820688005F7D4B5
:1011300028786E4E000724D568690028306910D0E1
:10114000012108433061FFF71FFB009005E0FFF726
:101150001BFB0099401A02285AD830698007F6D53F
:101160000FE0400840003061FFF70EFB009005E003
:10117000FFF70AFB0099401A022849D83069800716
:10118000F6D42878400765D500200290A06BC000F7
:1011900006D4A06B012109070843A0630120029037
:1011A00053480168C90511D40168821511430160D3
:1011B000FFF7EAFA009005E0FFF7E6FA0099401A17
:1011C000642825D84A480068C005F5D5FF20AA68DC
:1011D0000130824203D131690143316111E00121C3
:1011E0008902002A07D005231B029A4203D13269E3
:1011F0000A433261EFE732698243326130698843E2
:101200003061A86800280FD0FFF7BEFA009007E011
:101210005EE0FFF7B9FA0099411A3648814257D883
:1012200030698005F5D50DE0FFF7AEFA009006E0D5
:10123000FFF7AAFA0099411A2E48814248D830692E
:101240008005F5D40298002804D0A06B012109077D
:101250008843A063686A002865D00C2F4CD0012613
:1012600036060228206805D0B0432060FFF78CFACC
:1012700005462FE0B0432060FFF786FA074604E0FA
:10128000FFF782FAC01B022822D820688001F7D419
:10129000E96AA86AE2680843296BFD231B049A43A4
:1012A00011430843E060206830432060FFF76CFA88
:1012B000054604E0FFF768FA401B022808D82068BA
:1012C0008001F7D52FE0FFF75FFA401B022801D914
:1012D0000320FEBD20688001F5D424E00010024008
:1012E000944000082C000020200000204010024004
:1012F00000700040881300000128EAD0E068012156
:101300000904AA6A014091420BD10F218904EA6ABB
:101310000140914205D1032189050840296B88428B
:1013200001D00120FEBD0020FEBD0000F8B5040084
:1013300050D0254620356878002803D128702046F3
:1013400000F052F8022068702168CA2048622168C3
:1013500053204862204601F0EFF8FF2604270028BA
:10136000206802D046626F7034E081681D4A1140E7
:101370008160216888686268A369104322691A4302
:10138000104388602168E06808612068016922894B
:101390001204114301612068C16880229143C16039
:1013A0002068C16C89088900C164E16960690143F2
:1013B0002068C26C1143C1642068806880060BD429
:1013C000204600F0F7F8002806D0206846626F70CB
:1013D000002028700120F8BD206846620120687056
:1013E0000020F8BDBFFF8FFF00680549884205D186
:1013F0000448016901229204114301617047000011
:101400000028004040100240F8B50546044620354B
:1014100028780B4601280FD0012028700220687020
:10142000002A0BD0D8789E780004064358780978B3
:1014300000024903084317E00220F8BD5878C106AE
:1014400003D5EF2108400A305870D87801F068F8C9
:101450000604587801F064F800020643987801F019
:101460005FF806431878400306432168CA204862A3
:10147000216853204862204601F05EF800270028CA
:1014800011D111480640206846602068C16880225A
:101490009143C1602068806880060CD4204600F02B
:1014A00089F8002807D02168FF204862042068706E
:1014B0002F700120F8BD2168FF204862012068706C
:1014C0002F700020F8BD00003FFFFF00F8B5064672
:1014D0000446203630780D46012822D00120307095
:1014E00002207070206800278068002A1BD0400608
:1014F00000D4EF702978A878090408436978EA785D
:10150000090212041143084300902168CA2048626E
:10151000216853204862204601F00EF8002837D198
:1015200016E00220F8BD400600D4EF70287800F0E5
:10153000F7FF0304687800F0F3FF00020343A87884
:1015400000F0EEFF0343E878000403430093DCE778
:1015500017490098084021680860206881680122C6
:101560009204914381602969E868084321688A6888
:10157000104388602068C16880229143C160206860
:10158000806880060CD4204600F014F8002807D0AC
:101590002168FF2048620420707037700120F8BD78
:1015A0002168FF2048620120707037700020F8BD6C
:1015B0007F7F7F0070B504460068C168A022914318
:1015C000C160FFF7E1F87D260546F60006E0FFF76B
:1015D000DBF8401BB04201D9032070BD2068C06811
:1015E0008006F4D5002070BD70470000F8B5016892
:1015F00004464A688868C043430606D5C30704D139
:10160000D3435B0601D4216C05E0830706D4D343A2
:101610001B0603D4616C20468847F8BD830603D5BA
:10162000430601D5C305F8D4D3439B06F5D423461E
:1016300045064033002D09DB5D7C032D48D0656DE8
:10164000042635436565CD688D68009586060127BB
:101650004025002E07DB666D3E4366658E6800966A
:101660000E68AE430E60C00506D4606D08210843C5
:101670006065206880680090606D0028CDD020688B
:101680004168E026B14341605F74900701D4D00700
:1016900022D020684168890889004160E06C104EC2
:1016A000002808D08663E06CFEF7A8FE002802D070
:1016B000606D28436065A06C0028AED08663A06C86
:1016C000FEF79CFE0028A8D0606D28436065F8BD39
:1016D000C86888680090F8BD2046FFF785FFF8BD10
:1016E00081250008F8B504000ED0FF27606A053791
:1016F000002500280AD02561656126464036A5628E
:10170000707C002807D00AE00120F8BD6068B8426C
:10171000F3D0E561F1E73574204600F03FF802218F
:1017200071742068026840239A4302602123A268F2
:1017300060689B021A4038401043E3688A021340F5
:10174000184323690B40217D1843C907C90F08437B
:10175000A169931019400843E169382319400843EF
:10176000216A802319400843A16A93001940084365
:1017700021680860A0690421000C0840616A1023F8
:1017800019400843216848602068C1699143C161DC
:101790006565012070740020F8BD000010B586B0AA
:1017A000044614216846FEF73EFD1449206888422D
:1017B00021D11348416B821411434163C16A012254
:1017C0001143C162C06A002110400590E0200090E2
:1017D00002200190032003900291049105206946A4
:1017E0000007FEF7DFFE002203211920FFF79AF918
:1017F0001920FFF78BF906B010BD00000030014042
:1018000000100240094910B5401E884201D901204C
:1018100010BD074C60610321081F01F0F7F900209B
:10182000A06107202061002010BD0000FFFFFF0025
:1018300000E000E0F0B502462032137E012B21D0FB
:10184000012515760223537606687468B3687027FD
:10185000BC430F68274377600068AC07A04208D0FC
:10186000094CA04205D0094CA04202D0084CA0422D
:1018700004D180244968A343194381605576002030
:101880001076F0BD0220F0BD0004004000080140C9
:101890000014014070B5050005D02C462034607E50
:1018A000002802D006E0012070BD002020762846E6
:1018B00000F010F802206076291D286800F0EAFE8A
:1018C0000120A077A076E076207760776076002010
:1018D00070BD000010B50068084988420CD1084866
:1018E000816B102211438163002203211120FFF735
:1018F00019F91120FFF70AF910BD0000001000408F
:1019000000100240014620314A7E012A01D0012008
:10191000704702224A760268D36801210B43D360E4
:1019200000688A07904208D0094A904205D0094AC7
:10193000904202D0084A904204D182685207520F66
:10194000062A02D002680A430260002070470000A5
:10195000000400400008014000140140704770B5C9
:101960000446006801690025C9438907002915DB81
:10197000C168C943890711D4E91E0161012020769D
:10198000206880698007204602D0FFF7E7FF04E067
:1019900000F078F8204600F076F825762068016996
:1019A000C943490717D4C168C943490713D404215F
:1019B000C943016102202076206880698005800F7C
:1019C000204602D0FFF7CAFF04E000F05BF8204693
:1019D00000F059F8257620680169C943090716D433
:1019E000C168C943090712D40821C9430161042011
:1019F00020762068C0698007204602D0FFF7AEFF3E
:101A000004E000F03FF8204600F03DF8257620681D
:101A10000169C943C90617D4C168C943C90613D4AB
:101A20001021C9430161082020762068C069800523
:101A3000800F204602D0FFF791FF04E000F022F86B
:101A4000204600F020F8257620680169C943C907BF
:101A500008D1C168C943C90704D1891E0161204664
:101A600000F012F820680169C943490609D4C16829
:101A7000C943490605D44021C9430161204600F00D
:101A800023F870BD704770470E4800228168491CDA
:101A90008160C3685B1CC3600A2905D10168002905
:101AA0000BD0002182600160642B05D141680029C0
:101AB00005D00021C260416070470121F2E7012199
:101AC000F8E700000000002070477047704770473B
:101AD000F8B502680446D06911689668A24B0546BD
:101AE0001D402023002D75D0F707A04DFF0FBC46E9
:101AF0000D402F436DD02546C7078035002F06D0F7
:101B0000CF0504D5012717622A683A432A60820765
:101B100008D5F20706D0276802223A622A6804270D
:101B20003A432A60420708D5F20706D02668042205
:101B300032622A68022632432A6002070AD50A4620
:101B40001A406646324305D02668082232622E6863
:101B500016432E60020508D54A0106D501222668E3
:101B6000D20232622A681A432A602A68002A39D0CF
:101B7000800606D5880604D5616E002901D020466E
:101B80008847286821688968490602D428210842C4
:101B90002DD0204600F054FE21688868400622D5EA
:101BA000EFF31080012282F310888B684022934368
:101BB0008B6080F31088206F002814D06C498163FB
:101BC000206FFEF71BFC00280CD0206F816B08E013
:101BD00000E012E0850610D58D060ED5616EA9E0F5
:101BE00020468847F8BD2046FFF771FFF8BD204624
:101BF000FFF76DFF00202860F8BD256E012D7CD118
:101C0000C5067AD5CD0678D510261662226890686A
:101C1000254640064035002846DA216F08684068AE
:101C20000004000CE8D02F8B8742E5D96883086850
:101C30000068800633D4EFF31080012181F310880F
:101C400011683701B943116080F31088EFF31080F9
:101C5000012181F3108821688A68520852008A6045
:101C600080F31088EFF31080012181F31088216840
:101C70008A684027BA438A6080F31088E3670020AF
:101C80002066EFF31080012181F3108821680A6833
:101C9000B2430A6080F31088206FFEF78DFB288B1B
:101CA000698B401A81B231E0288B698B401A81B26E
:101CB000688B0028A0D000299ED0EFF3108001256A
:101CC00085F310881568FF272137BD43156080F321
:101CD0001088EFF31080012282F310882268956843
:101CE0006D086D00956080F31088E3670020206622
:101CF0006066EFF31080012200E00BE082F31088B1
:101D000022681368B343136080F310882046FFF7FE
:101D1000DCFEF8BDC50208D5750206D50120000518
:101D200010622046FFF7D2FEF8BD050606D50D0667
:101D300004D5A16E002900D052E7F8BD4006FCD5BD
:101D40004806FAD52046EFF31081012484F3108869
:101D500014684025AC43146081F310888367002128
:101D6000816600F08DF8F8BD0F0800002001000426
:101D70002D28000810B5040003D0A06F002802D061
:101D800007E0012010BD002174200155204600F01D
:101D900027F82420A06720680168490849000160ED
:101DA000204600F07DFD0128ECD0606A002802D0BA
:101DB000204600F0A3FC206841680922D20291432A
:101DC0004160206881682A2291438160206801680F
:101DD000012211430160204600F0F6FC10BD000016
:101DE000F0B587B0064614216846FEF71CFA204974
:101DF0003068884239D11F49886B01225204104350
:101E00008863C86A01221043C862C86A002510406E
:101E100005900C20009002200190032003900427DD
:101E200005200295694604970007FEF7BBFB134C9B
:101E30001148A560E56081C4E56080202561A0604F
:101E40002020A56160610D48083CFEF751FB002889
:101E500001D0FEF737FA3467002203211C20A66266
:101E6000FEF760FE1C20FEF751FE07B0F0BD00003B
:101E7000004400400010024058000240F4040020DA
:101E80007047FEE701688A69D243920701D40022B5
:101E90008A6200688169C943C90703D08169012248
:101EA0001143816170470000F7B5044600680F4692
:101EB0008169C943C90636D44168890104D441689F
:101EC00001229203114341600026254640352068D7
:101ED0008069C043800612D5781CF8D0FEF754FC08
:101EE0000299401AB84201D8002FF0D1616C20202D
:101EF000014361646870AE702E700120FEBD2168E0
:101F00001020C86120682027C7612046FFF7BAFF6C
:101F100020684168054A11404160606C0421084313
:101F200060646F70E7E70020FEBD000000E800FE7F
:101F3000F0B50668059C7568064F600D384385430B
:101F40008805800D1104084318432043054375603C
:101F5000F0BD0000FF63FF03F8B51D4617460E46AF
:101F6000044609E0681C07D0FEF70EFC0699401AEB
:101F7000A8420BD8002D09D02068816930468843DB
:101F80000FD00020B842EDD00020F8BD616C2020B9
:101F900001436164403460700020A0702070012013
:101FA000F8BD0120EEE770B516460D4604460FE079
:101FB000324629462046FFF777FF002801D001204E
:101FC00070BDFEF7E1FB801BA84208D8002D06D0AB
:101FD00020688069C0438006EAD4002070BD616C2F
:101FE000202001436164403460700020A0702070A4
:101FF000E5E770B516460D46044611E0324629461F
:102000002046FFF751FF002801D0012070BD681C59
:1020100006D0FEF7B9FB801BA84208D8002D06D0D9
:1020200020688069C0438007E8D4002070BD616CDF
:10203000202001436164403460700020A070207053
:10204000E3E7000010B5094807490160002101716C
:1020500041714161816101210162FEF75DF9002852
:1020600001D0FEF72FF910BD00300240FC02002025
:1020700008B51748016B012211430163006B154934
:10208000104000901448920301608260002141607A
:102090004022C260416181618022C16102610162AE
:1020A000FEF726FA002801D0FEF70CF900220321E2
:1020B0000920FEF737FD0920FEF728FD0022032145
:1020C0000B20FEF72FFD0B20FEF720FD08BD0000C2
:1020D00000100240080002402003002010B596B016
:1020E0001C2211496846FEF785F80021684600F079
:1020F0000EFF0E4C0C4920611C221C3107A8FEF774
:1021000079F8002107A800F002FF074960611C224E
:1021100038310EA8FEF76EF800210EA800F0F7FE89
:10212000A06116B010BD0000283800080000002093
:10213000F0B587B014216846FEF775F83048C26ADA
:1021400004210A43C262C26A0A400592C16A01259B
:102150002943C162C16A29400591C26A02210A432A
:10216000C262C06A274F08408E03059000223146A4
:102170003846FEF702FB0520002203210007FEF788
:10218000FCFA002223212048FEF7F7FAA8030024D6
:1021900000900194694602943846FEF703FA0294CF
:1021A00069463846009601950394FEF7FBF9032033
:1021B0000090052002946946019503940007FEF7FC
:1021C000F1F92320009002946946019503940E488A
:1021D000FEF7E8F9A8020090112000040190052004
:1021E000694602940007FEF7DDF9C02000900194D3
:1021F000694602940448FEF7D5F907B0F0BD000027
:1022000000100240000800500004005010B51348B0
:102210001149016012494160002181600161416101
:1022200081610122C161C2600162FEF7FDFA0028EE
:1022300001D0FEF747F800210848FEF7ABFA002866
:1022400001D0FEF73FF800210448FEF7C8FA002845
:1022500001D0FEF737F810BD007800406803002079
:10226000AB7CF40010B586B014216846FDF7DBFFA7
:1022700000241A491A48059412C07F210160846025
:10228000C460FF2104613431446141600838FFF7C4
:102290004DF8002801D0FEF715F868460470447028
:1022A00084700394002269460D480494FFF70EF9E8
:1022B000002801D0FEF706F8012069460875487528
:1022C0008875CC75002205A90548FFF79DF8002800
:1022D00001D0FDF7F7FF06B010BD00000028004058
:1022E000B403002010B50E480C490160FF210531F0
:1022F000416000218160C16001614161C1610122D1
:10230000016252024162826181620721C162FFF76C
:10231000E9F9002801D0FDF7D5FF10BD00300140DC
:10232000D80300201CB500240E4800940C490194E9
:1023300001601F21846041600B494461C160FFF767
:10234000A9FA002801D0FDF7BDFF009469460548B1
:102350000194FFF76FFA002801D0FDF7B3FF1CBD11
:102360000010004030040020E703000010B50C48C6
:102370000A4901604B21C901416000218160C160AF
:1023800001618161C1610C22016242614162FFF71A
:10239000F1FC002801D0FDF795FF10BD004400407E
:1023A00070040020FEE770B500242146002000F0F4
:1023B00036F800250021402000F0A2F86D1CEDB297
:1023C000802DF7D3641CE4B2042CEED370BD10B59D
:1023D000A121002000F094F8A821002000F090F83E
:1023E0001F21002000F08CF8C821002000F088F8A0
:1023F000DA21002000F084F80021084600F080F87F
:102400008D21002000F07CF81421002000F078F8E5
:10241000FFF7C9FFAF21002000F072F810BD70B5C2
:102420000D4601070446090F002000F069F8210954
:102430000020103100F064F8B035E9B2002000F05F
:102440005FF870BDFFB581B0203A01980D46D6B255
:102450007F2803D900208D1CEDB20190102B294656
:1024600010D0FFF7DCFF062046431648002435183D
:10247000295D402000F044F8641CE4B2062CF7D338
:1024800005B0F0BDFFF7CBFF002437010E4E381921
:10249000315C402000F034F8641CE4B2082CF6D320
:1024A0006D1CE9B20198FFF7BAFF002438198019B2
:1024B000017A402000F024F8641CE4B2082CF5D323
:1024C000DEE700007C380008A43A0008FFB581B0C0
:1024D00017460E46044600250DE031462046049B73
:1024E000FFF7B0FF0834E4B2782C02D90024B61C00
:1024F000F6B26D1CEDB27A5D002AEED105B0F0BDEA
:102500001CB56A461071517164200090022301AA23
:1025100078210248FEF7E2F91CBD000068030020A4
:102520000022014602E00A39C9B2521C0A29FAD235
:102530001007000E0843704770B504460068C16874
:10254000490613D40021C943C160FEF71DF97D2659
:102550000546F60006E0FEF717F9401BB04201D928
:10256000032070BD2068C0684006F4D5002070BD0F
:1025700010B50248FFF73AF810BD0000D80300205C
:1025800010B5806A0021C187C186FFF72DF810BD04
:10259000704700000C4C00252068012802D100F093
:1025A00015FC256060680128F6D100211023074A38
:1025B0000846FFF78BFF054A102310320221002046
:1025C000FFF784FF6560E7E700000020DC020020E1
:1025D00010B5FEF74BFA01F063F8012801D001F0C5
:1025E00001F810BD10B59AB034216846FDF71BFE06
:1025F000142115A8FDF717FE20210DA8FDF713FEE5
:102600001E4801680322D2029143C2148918016056
:102610000A2000901020049002200990400401211B
:102620000B900001059100240C9003910A946846D8
:10263000FEF762FC002801D072B6FEE70F2015906D
:1026400003201690179418940121199415A8FEF7E9
:1026500029FB002801D072B6FEE7FF2023300D9041
:102660000120139440040E9010940DA8FEF75EFA1A
:10267000002801D072B6FEE71AB010BD007000400D
:102680007047000010B50248FFF769F910BD00005F
:1026900030040020F0B502680124A407144D154E43
:1026A000154FA04205D0A84203D0B04201D0B84295
:1026B00004D11346702293434A681A43A04205D0BE
:1026C000A84203D0B04201D0B84204D103231B0278
:1026D0009A43CB681A4380239A430B691A430260DA
:1026E0008A68C2620968816201214161F0BD00000F
:1026F00000040040000801400014014010B5818C26
:10270000C90707D001684A6801235B049A43836ABA
:102710001A434A60818C890707D501684A680123FA
:102720001B049A43C36A1A434A60818C490707D540
:1027300001684A6801239B049A43036B1A434A6069
:10274000818C090707D501684A680123DB039A4396
:10275000436B1A434A60818CC90607D502689168A9
:1027600001231B039943836B19439160818C890674
:1027700007D501688A6801235B039A43C36B1A4338
:102780008A60818C490612D503685A6801210905BF
:10279000046C8A4322435A60026C8A4207D1026861
:1027A000516803235B059943436C19435160818C45
:1027B000090607D501684A680123DB04806C9A4347
:1027C00002434A6010BD0000F8B504460026803080
:1027D0000660FDF7D9FF054620680068124F000724
:1027E00009D501212B46002249052046009700F01B
:1027F00061F900280DD12068006840070BD5012140
:102800002B46002289052046009700F053F9002846
:1028100001D00320F8BD2020A067E0672666603461
:1028200026750020F8BD0000FFFFFF0110B5806A8B
:102830000022014640314A834A82FFF748F910BD21
:1028400010B5EFF31081012282F31088026813683B
:10285000FF242134A343136081F31088EFF3108128
:10286000012282F31088026893685B085B00936022
:1028700081F31088016E01290BD1EFF31081012241
:1028800082F31088026813681024A343136081F355
:1028900010882021C16700210166416610BD00003B
:1028A000F8B50446016880682269E66910436269E8
:1028B000002532431043754B0A68754E324002437F
:1028C0000A6020684168032212039143E2681143C1
:1028D00041602168A069994201D0226A10438A6848
:1028E0000B263602B24302438A606A4922686A486C
:1028F0008A420CD1C0688007800F06D001283FD0E3
:1029000002283BD0032827D124E0012725E0634992
:102910008A420AD1C0680C2108402DD004282FD04B
:1029200008282BD00C2817D114E05D498A4223D007
:102930005C498A4220D09A420ED1C16803208002AD
:10294000014019D001208002091A19D0091A15D0A6
:10295000814201D1082700E010274F4952484039F1
:1029600086009A4232D1002F0CD0022F0DD0042FB6
:1029700010D0082F7FD126E00027EEE70227ECE7F2
:102980000427EAE7FEF75CFA06E00968C90605D401
:10299000304603E0FEF774FA002872D062685100F6
:1029A0005118814267D81103814264D3010E060297
:1029B0005008002330185941FDF7ECFB03210902B0
:1029C000411A3A4A55E00120C003E7E70122E369D2
:1029D000D20393422BD13B0000F00AF90906090CFF
:1029E0004D114D4D4D274D00FEF72AFA09E0FEF737
:1029F00037FA06E00968C90605D4304603E0FEF759
:102A00003FFA00283DD0616840004A088018FDF771
:102A1000ABFB80B202462649103A8A422BD8491CA9
:102A200001400007400F084329E01046EBE73B0058
:102A300000F0DEF80906090C2112212121232100D2
:102A4000FEF7FEF90AE0FEF70BFA07E00968C9068F
:102A500006D4304604E00EE0FEF712FA002810D04B
:102A600061684A081018FDF77FFB80B20146104AE2
:102A70001039914203D9012503E01046F0E721689F
:102A8000C86000206066A0662846F8BD0048004087
:102A9000F369FFEF0038014040100240004400405D
:102AA000004C00400050004000093D00FFFC0F00BA
:102AB000EFFF0000FFB581B00546174604466035BC
:102AC0000A9E55E0701C53D0FDF75EFE0499401A33
:102AD000B04230D8002E2ED020680168490747D573
:102AE000C069C043000543D401202168C0020862C8
:102AF000EFF31080012181F3108821680B68FF2219
:102B0000A13293430B6080F31088EFF31080012112
:102B100081F3108821688A68520852008A6080F325
:102B200010882020A067E06780342060002028758E
:102B3000032005B0F0BDEFF31080012181F3108870
:102B400021680B68FF22A13293430B6080F3108849
:102B5000EFF31080012181F3108821688A68520800
:102B600052008A6080F310882020A067E067DDE7CC
:102B70002068C1690298884304D00020B842A1D0DF
:102B80000020D6E70120F9E710B50248FEF7A0FFC4
:102B900010BD0000700400200FB410B504A9074B4D
:102BA00002AA039800F064F8044602A9002000F08D
:102BB00007F9204610BC08BC04B01847C12D000816
:102BC000F8B5040C8BB2264682B25E430D0C10465B
:102BD000370C5843360480190021794116466E435C
:102BE000370C36048019794126466E438919F8BDA1
:102BF00030B47446641E2578641CAB4200D21D4676
:102C0000635D5B00E31830BC184700008307FF22B8
:102C1000DB0E9A408907090E9940002808DB8308DB
:102C200009489B001B1818689043084318607047B8
:102C30000007000F0838830804489B001B18D86958
:102C400090430843D861704700E400E000ED00E0E5
:102C500002E008C8121F08C1002AFAD17047704765
:102C6000002001E001C1121F002AFBD170470000C3
:102C7000FFB58DB00446002506E025280AD0109A3D
:102C80000F999047641C6D1C20780028F5D12846C8
:102C900011B0F0BD00270121484A009700E007432A
:102CA000641C23780846203B98401042F7D12078D6
:102CB0002E2817D1042007436078641C2A280CD1E1
:102CC0000E98641C02C800910E900BE000990A2235
:102CD000514330394018641C009020780146303947
:102CE0000929F3D920780028D1D0642808D0692890
:102CF00006D075281ED0109A0F9990476D1C5BE086
:102D00000A200E99019001C90E91002802DA404272
:102D10002D2102E0390504D52B216A4611720121CB
:102D200003E0F90704D02021F7E70BAE0B910DE08B
:102D30000021FAE70A200E99019001C90E91F7E7E8
:102D40000199FDF711FA3031761E31700028F7D164
:102D500003A8801B20300190780701D5009801E07E
:102D6000012000900199884201DD401A00E0002016
:102D70000027009006E002A8109AC05D0F999047C6
:102D80006D1C7F1C0B988742F5DB04E0109A302005
:102D90000F9990476D1C0099481E00900029F5DCA2
:102DA00005E03078109A761C0F9990476D1C0199B8
:102DB000481E01900029F4DC641C65E70928010025
:102DC0000A68531C0B60107070470000F8B5324C55
:102DD000012202212046FDF7D0FC002201212046DD
:102DE000FDF7CBFCFF26052701363F0700223146C1
:102DF0003846FDF7C2FC40212046FDF7B1FC274DC7
:102E0000002801D00B20286080212046FDF7A8FC77
:102E1000002801D015202860002202212046FDF75D
:102E2000ACFC012211462046FDF7A7FC00223146EA
:102E30003846FDF7A2FC40212046FDF791FC002812
:102E400001D00C20286080212046FDF789FC002855
:102E500001D016202860002202212046FDF78DFCBB
:102E6000002201212046FDF788FC01223146384628
:102E7000FDF783FC40212046FDF772FC002801D0BD
:102E80000D20286080212046FDF76AFC002801D033
:102E900017202860F8BD0000000400502800002022
:102EA000FDF7ECFDFFF79EFBFFF742F9FFF7E0F8B7
:102EB000FFF7C8F8FFF75AFAFFF7A8F9FFF7D2F9BA
:102EC000FFF730FAFFF70EFA6420FDF759FBFFF722
:102ED0007EFA0448FEF716FDFFF700F900F012F83D
:102EE000FEE700003004002001460020842900D0C5
:102EF000C81C704710B5002800D1012000F0D2FA9C
:102F0000002010BD10B500F0E5FA002010BD7FB51F
:102F10000D46044641690820205E002911D0A169B0
:102F200000290ED0FFF7E0FF6B46A269616907C375
:102F30002B4622692168606800F08FFB039004B083
:102F400070BDFFF7D1FF03A901910090208A2B46A5
:102F500082B22168606800F057FB012801D0002090
:102F6000EDE70398EBE70000F8B5134C0F466669F0
:102F700005462068001D00F0FDF9681C07D1002FF0
:102F800005D021680D48091D00F038FAF8BD206809
:102F9000751945602168B54204D2A068091D00F08A
:102FA00015FAF8BD6068091D00F010FA206B854223
:102FB000F7D22563F8BD000030000020180600207D
:102FC000F8B5054600F026FA294C2069401C20611E
:102FD0002068284F002803D0E069002827D02CE083
:102FE00025602069012828D1002614207043C019CB
:102FF00000F0DEF9761C072EF7D31E488C3000F067
:10300000D7F91C48A03000F0D3F91A48B43000F0CA
:10301000CFF91848C83000F0CBF91648DC3000F082
:10302000C7F914488C3060601430A06005E0206857
:10303000E96AC06A884200D82560E06A401CE06204
:10304000E86AA169884200D9A06114214843C019E7
:10305000291D00F0D3F900F0E9F9E069002806D055
:103060002068E96AC06A884201D200F00FFAF8BD10
:10307000300000203C05002010B504464030407C64
:10308000002805D0012806D0022807D072B6FEE736
:10309000206B00F0D9F9204600F0D6F910BD0000F1
:1030A00003210E488902420705D0C01DC0080B4A03
:1030B000C000821A891A0A4A0023411809C2083935
:1030C000C908C900183A11604B600B600B1A0AC09E
:1030D00093600120C0075360D06070472C06002029
:1030E0007C0000200F4E104C3746C83F11E000F026
:1030F00091F9F068C568281D00F03CF92069401E70
:103100002061E068401EE06000F090F92846FFF77B
:10311000B3FFE0680028EAD138680128F9D900F047
:10312000B5F9F6E70406002030000020FFB581B0B5
:103130000C9C9000236B001F1818C7080A9DFF0005
:10314000780701D072B6FEE72646403600290DD03A
:10315000002023180A5C20331A750A5C002A02D06A
:10316000401C1028F5D30020F07002E0002034212C
:103170000855072D00D30625E56200206564A0648C
:10318000201D00F020F92046183000F01CF92461C1
:103190000720401B6462A0610020E0643074384660
:1031A000049A019900F0A0F820600B98002800D044
:1031B000046005B0F0BD000030B5114900E01146D3
:1031C0000A688242FBD34B685C18844203D1406892
:1031D00018184860084643681C18944209D1084CE6
:1031E000103C2468A24209D052689A1842600A68CA
:1031F00012680260814200D0086030BD0460F9E7C7
:103200007C000020064841680968002905D0416813
:10321000C968C9684968016370470021C943FAE772
:103220003000002003480068401C72B600D0FEE762
:10323000FEE7000084000020F8B50546002700F0F6
:1032400075F9284E3068002801D1FFF729FFF06892
:1032500005423FD1002D3DD00835680708D06807EA
:10326000400F0821081A4519680701D072B6FEE719
:10327000002D2FD0706885422CD81A481030014696
:103280000C6801E020460C466168A94202D2216820
:103290000029F7D131688C421CD007682168016091
:1032A00060680837411B102908D96019420701D00E
:1032B00072B6FEE741606560FFF77EFF6168706887
:1032C000401A7060B268904200D2B060F06801436A
:1032D000002003C400F052FA780701D072B6FEE76E
:1032E0003846F8BD6C00002010B50124031F2406E9
:1032F0001C601B1F1960191F024B0B6014394038EA
:103300000A6010BD253200080D4C7D260D4DF600DB
:103310000127FF030A20FFF7EDFD0BA10D48FFF782
:103320003BFC0C4863680CA110302A68FFF734FCA2
:103330003046FFF7DFFD39460B48FDF716FAE9E79F
:1033400000000020280000204758435420494F54D3
:1033500000000000DC0200206B65793A2564202023
:103360002020202564000000000800500120FFF705
:10337000C1FDFBE74368826801699A60836842681F
:103380005A604A68824201D182684A600022026122
:103390000868401E0860086870470000034B03601F
:1033A0001846543008608020106070478800002064
:1033B0000146083100224160D243C1608260016150
:1033C00000210160704700210161704730B50B6832
:1033D0005A1C02D00246083202E0026904E022468A
:1033E000546825689D42FAD953684B6099608A6099
:1033F000516008610168491C016030BD42684A6043
:1034000093688B6093685960916008610168491CFA
:103410000160704772B604480168491C0160BFF33F
:103420004F8FBFF36F8F70478400002005490868F5
:10343000002804D0401E086000D162B6704772B602
:10344000FEE700008400002070B500281AD0044672
:103450000D4D083C6068E968084201D172B6FEE78C
:103460002268002A01D072B6FEE78843606000F04F
:103470005DF860686968401868602046FFF79CFE48
:1034800000F07CF970BD00006C00002001200449B0
:1034900000074860BFF34F8FBFF36F8F7047000086
:1034A00000ED00E010B502000FD00948806B002845
:1034B00001D072B6FEE700F039F800211046FFF7A0
:1034C00053FD00F05BF9002801D1FFF7DFFF10BDCD
:1034D0003000002010B586B00024039405AA04A98A
:1034E00003A80494FFF75AFF0499039800940191EC
:1034F0000290002309A10B48059A00F0AEF80A4992
:103500000028486308D072B60020C0430863012039
:10351000C8614C6100F03EF806B010BD49444C450E
:1035200000000000E5300008300000200248816BF8
:10353000491C8163704700003000002010B513481B
:10354000816B002902D00121416210BD002141623E
:1035500081690F4A02E0002915D0491E14234B430C
:10356000D358002BF7D014234B439A1853681446B2
:103570005B6808345360A34201D15B685360DA682A
:103580000260816110BD72B6FEE7000030000020CD
:103590003C05002070B50F48016AFF221204114358
:1035A0000162016A1202114301620B4C0025256180
:1035B000A5610A487D21C9000068FCF7D5FD401EC1
:1035C00060610720206106480560FCF783FD00204C
:1035D00070BD000000ED00E000E000E02C000020E5
:1035E0008400002010B5FCF789FD044600F068F85F
:1035F000002803D001200349000748602046FCF75B
:1036000081FD10BD00ED00E0FFB585B016469000CD
:103610000F9FFFF711FE05001CD05420FFF70CFE92
:10362000040014D000205121256308550E99009103
:103630000390019702943246089B06990598FFF77C
:1036400075FD2046FFF7BCFC012009B0F0BD2846FF
:10365000FFF7FAFE0020C043F7E7F0B585B0074654
:103660000B9D0C9C0A98002D15D0002C15D05426CB
:103670002563022551263555002504AE009001969C
:10368000039502943846FFF751FD2046FFF798FC5A
:10369000049805B0F0BD72B6FEE772B6FEE7000012
:1036A0000648C169002904D0806B002803D000209F
:1036B0007047012070470220704700003000002052
:1036C000F8B52C4C0027A06B002808D0206A401CBD
:1036D0002062606A002800D001273846F8BD66697C
:1036E000761C66610ED160680068002801D072B651
:1036F000FEE76068A1686160A060A06A401CA062EB
:10370000FFF780FD206B86420AD3606800680028BE
:1037100010D06068C068C568686886420DD22063B2
:1037200020681421C06A4843134908580128D0D999
:103730000127CEE70020C043F1E7281DFFF71AFE5E
:10374000A86A002803D028461830FFF713FEE86A5D
:10375000A169884200D9A061142148430649401854
:10376000291DFFF74BFEE86A2168C96A8842CCD35D
:103770000127CAE7300000203C050020F8B5284C9E
:103780000025A06B2E46002808D0FFF743FEA06B53
:10379000401EA063A06B002802D03DE072B6FEE799
:1037A0002169204F00291DD136E0F868C5682846F8
:1037B0001830FFF7DFFD281DFFF7DCFDE86AA1697F
:1037C000884200D9A061142148431649B4394018F1
:1037D000291DFFF713FEE86A2168C96A884201D3F0
:1037E0000120606238680028DFD1002D01D0FFF78A
:1037F00009FD256A002D09D00127FFF761FF002888
:1038000000D067626D1EF8D100202062606A002837
:1038100002D00126FFF73AFEFFF708FE3046F8BD5A
:1038200030000020F0050020D04000089525000859
:103830000000000000000000800000000000000008
:1038400000000000B8400008093300080100000033
:1038500000000000800000000000000000000000E8
:10386000C44000086D3300080200000000000000A2
:1038700080000000000000000000000000000000C8
:1038800000000000002F00000000070007000014E7
:103890007F147F1400242A7F2A12006264081323F5
:1038A00000364955225000000503000000001C228C
:1038B0004100000041221C000014083E08140008CA
:1038C000083E0808000000A060000008080808087A
:1038D000000060600000002010080402003E514912
:1038E000453E0000427F40000042615149460021B0
:1038F00041454B31001814127F10002745454539CA
:10390000003C4A4949300001710905030036494924
:10391000493600064949291E0000363600000000DD
:103920005636000000081422410000141414141428
:1039300000004122140800020151090600324959D1
:10394000513E007C1211127C007F49494936003EED
:1039500041414122007F4141221C007F49494941A8
:10396000007F09090901003E4149497A007F0808A2
:10397000087F0000417F4100002040413F01007F5F
:1039800008142241007F40404040007F020C027F2B
:10399000007F0408107F003E4141413E007F09093D
:1039A0000906003E4151215E007F09192946004663
:1039B000494949310001017F0101003F4040403F3A
:1039C000001F2040201F003F4038403F0063140884
:1039D000146300070870080700615149454300005F
:1039E0007F41410000552A552A55000041417F0082
:1039F0000004020102040040404040400000010277
:103A00000400002054545478007F4844443800385F
:103A10004444442000384444487F003854545418E7
:103A200000087E0901020018A4A4A47C007F0804F9
:103A300004780000447D4000004080847D00007FC9
:103A4000102844000000417F4000007C04180478E6
:103A5000007C0804047800384444443800FC2424E2
:103A600024180018242418FC007C080404080048CA
:103A70005454542000043F444020003C4040207CEB
:103A8000001C2040201C003C4030403C00442810DA
:103A90002844001CA0A0A07C004464544C4414148E
:103AA00014141414000000000000000000000000C6
:103AB00000000000000000F80000000000000033DB
:103AC0003000000000100C06100C06000000000082
:103AD0000000000040C07840C0784000043F04046B
:103AE0003F040400007088FC08300000001820FF2C
:103AF000211E0000F008F000E018000000211C0367
:103B00001E211E0000F00888700000001E212324E2
:103B10001927211010160E00000000000000000000
:103B200000000000000000E0180402000000000790
:103B30001820400000020418E00000000040201897
:103B400007000000404080F0804040000202010F6A
:103B500001020200000000F0000000000101011F4E
:103B600001010100000000000000000080B07000B2
:103B70000000000000000000000000000001010142
:103B800001010101000000000000000000303000D1
:103B900000000000000000008060180400601806AB
:103BA0000100000000E010080810E000000F1020E5
:103BB00020100F00001010F8000000000020203F2F
:103BC00020200000007008080888700000302824B9
:103BD000222130000030088888483000001820205A
:103BE00020110E000000C02010F80000000704247F
:103BF000243F240000F808888808080000192120C4
:103C000020110E0000E0108888180000000F11201D
:103C100020110E0000380808C83808000000003FD6
:103C2000000000000070880808887000001C222135
:103C300021221C0000E010080810E00000003122E2
:103C400022110F00000000C0C00000000000003082
:103C500030000000000000800000000000008060D4
:103C60000000000000008040201008000001020455
:103C7000081020004040404040404000040404043C
:103C800004040400000810204080000000201008F8
:103C900004020100007048080808F000000000302D
:103CA00036010000C030C828E810E00007182724BB
:103CB00023140B000000C038E0000000203C230269
:103CC0000227382008F8888888700000203F2020CC
:103CD00020110E00C03008080808380007182020FE
:103CE0002010080008F808080810E000203F2020F5
:103CF00020100F0008F88888E8081000203F2020D6
:103D00002320180008F88888E8081000203F2000C9
:103D100003000000C0300808083800000718202001
:103D2000221E020008F808000008F808203F2101C0
:103D300001213F20000808F8080800000020203F6B
:103D40002020000000000808F8080800C0808080DB
:103D50007F00000008F888C028180800203F2001D4
:103D60002638200008F8080000000000203F20202E
:103D70002020300008F8F800F8F80800203F003F45
:103D8000003F200008F830C00008F808203F20005D
:103D900007183F00E01008080810E0000F1020206E
:103DA00020100F0008F808080808F000203F210143
:103DB00001010000E01008080810E0000F1824249A
:103DC00038504F0008F8888888887000203F20000D
:103DD000030C3020007088080808380000382021C3
:103DE00021221C00180808F8080818000000203FCD
:103DF0002000000008F808000008F808001F202034
:103E000020201F000878880000C838080000073804
:103E10000E010000F80800F80008F800033C070055
:103E2000073C0300081868808068180820302C03BD
:103E3000032C30200838C800C83808000000203F94
:103E40002000000010080808C83808002038262183
:103E500020201800000000FE020202000000007F87
:103E600040404000000C30C0000000000000000195
:103E70000638C00000020202FE0000000040404080
:103E80007F000000000004020202040000000000A5
:103E90000000000000000000000000008080808022
:103EA000808080800002020400000000000000000A
:103EB00000000000000080808080000000192422A3
:103EC00022223F2008F8008080000000003F1120DF
:103ED00020110E000000008080800000000E1120E4
:103EE00020201100000000808088F800000E1120C2
:103EF00020103F200000808080800000001F2222D0
:103F000022221300008080F0888888180020203F3B
:103F1000202000000000808080808000006B94944E
:103F20009493600008F8008080800000203F21000A
:103F300000203F2000809898000000000020203FD3
:103F400020200000000000809898000000C08080C1
:103F5000807F000008F8000080808000203F24025D
:103F60002D302000000808F8000000000020203F4D
:103F7000202000008080808080808000203F200002
:103F80003F20003F8080008080800000203F210093
:103F900000203F200000808080800000001F202043
:103FA00020201F00808000808000000080FFA12072
:103FB00020110E000000008080808000000E112083
:103FC00020A0FF80808080008080800020203F2112
:103FD00020000100000080808080800000332424C5
:103FE00024241900008080E0808000000000001F71
:103FF000202000008080000000808000001F202022
:1040000020103F20808080000080808000010E30E2
:104010000806010080800080008080800F300C0343
:104020000C300F0000808000808080000020312E46
:104030000E312000808080000080808080818E7022
:104040001806010000808080808080000021302CD4
:104050002221300000000000807C020200000000ED
:10406000003F404000000000FF0000000000000092
:10407000FF0000000002027C800000000040403F82
:10408000000000000006010102020404000000001C
:104090000000000000000000000000000102030416
:1040A00006070809030406080C1018203000000059
:1040B00000010203040000006D795461736B30321B
:1040C000000000006D795461736B30330000000014
:1040D00064656661756C745461736B00FC40000824
:1040E0000000002088000000502C000884410008D7
:1040F00088000020A8150000602C000801000000C6
:1041000001000000000000000000000000000000AE
:10411000000000000000000001000000040000009A
:10412000000000000000000000002000000000006F
:10413000000000000000000000000000000000007F
:10414000000000000000000000000000000000006F
:10415000000000000000000000000000000000005F
:10416000000000000000000000000000000000004F
:10417000000000000000000000000000000000003F
:04418000AAAAAAAA93
:04000005080000C12E
:00000001FF
