:0B0AB000EF1FAC0670011E4C70F62218
:10088C00E4F51975900FE590640F60777FE87E03AF
:10089C00120AB0E590640F606A75900FAF90EF2468
:1008AC00F5601024FE601114601324077012E4F537
:1008BC001A800D751A018008751A028003751A03C7
:1008CC007590F0AF90EF2450601124E0601124F08B
:1008DC00601124707013851A1A800E7404800674CB
:1008EC00088002740C251AF51AC3E519648094B2B9
:1008FC005011E59064F0600B7FE87E03120AB0059E
:05090C001980E6AF1A9E
:0109110022C3
:100A84003F065B4F666D7D077F6F777C395E7971BA
:010A94000061
:030AA30001080047
:1009C800120A5AE513C4540F900A8493F509E513E3
:1009D800540F93F50A750B40E512C4540F93F50CA8
:1009E800E512540F93F50D750E40E511C4540F939D
:0A09F800F50FE511540F93F51022DE
:10091200E4F51BE51BB407005046900923F828288C
:100922007302093802093C020944020948020950CB
:1009320002095402095CD2A28002C2A2D2A3D2A4AA
:10094200801ED2A28002C2A2C2A3D2A48012D2A2CC
:100952008002C2A2D2A3C2A48006D2A2C2A3C2A40F
:100962007409251BF8E6F5807F647E00120AB0E464
:0B097200F580051BE51BC394074098AF
:01097D002257
:060A7000D2A2D2A3D2A421
:0C0A760012088C8F18EF900A8493F58012
:020A820080F200
:0E0A950081838587898B8D80828486888A8CF8
:090AA600071100001729030620C6
:100A0200C2B500C2B600D2B500E4FEEF1392B4EF55
:100A1200C313FFD2B600C2B6000EBE08EEE4FEED6E
:100A22001392B4EDC313FDD2B600C2B6000EBE08D7
:040A3200EEC2B5005B
:010A3600229D
:10097E00C2B500C2B600D2B500E4FDEF1392B4EFDB
:10098E00C313FFD2B600C2B6000DBD08EE00E4FDE3
:10099E00A2B4E433FFC43333335480FCEEC3134CA0
:1009AE00FED2B600C2B6000DBD08E5C2B500D2B685
:0909BE0000C2B400D2B400AF067F
:0109C700220D
:100A3700E4FD7F8E120A02E4FCEC900A9C93FF749B
:100A4700112CF8E6FD120A020CBC07ED7D807F8EA3
:030A5700020A028E
:100A5A00E4FBEB900A9593FF12097E74112BF8A61A
:050A6A00070BBB07EDC6
:010A6F002264
:03000000020800F3
:0C080000787FE4F6D8FD75811B020847E4
:10080C00020A70E493A3F8E493A34003F68001F288
:10081C0008DFF48029E493A3F85407240CC8C333ED
:10082C00C4540F4420C8834004F456800146F6DFBC
:10083C00E4800B0102040810204080900AA3E47E9F
:10084C00019360BCA3FF543F30E509541FFEE493B1
:10085C00A360010ECF54C025E060A840B8E493A378
:10086C00FAE493A3F8E493A3C8C582C8CAC583CAA3
:10087C00F0A3C8C582C8CAC583CADFE9DEE780BE5B
:010AAF000046
:00000001FF
