:10028D000C28C0F9A4B0999282F88090BFFF072185
:07029D00323B17100A0213A7
:10008F001202741201A2E4F53B75380875350A7532
:10009F003A0575430975360A753905F5341201C5E8
:1000AF00E53E75F00A84F53BE53E75F00A8485F070
:1000BF003875350AE53D75F00A84F53AE53D75F07A
:1000CF000A8485F04375360AE53C75F00A84F539E4
:1000DF00E53C75F00A8485F034AD38AF3B1201E88A
:1000EF00AD3AAF3512020BAD36AF4312022EAD341F
:0700FF00AF3912025180A687
:1002A500E4FDC297EF1392A3EEC313FEEF13FFD243
:0502B500970DBD08EDEE
:0102BA002221
:10017B00AC05C29300C29700D2937E001202A5EC8D
:10018B0075F00A8475F010A4FFAEF0EC75F00A84DC
:07019B00EF45F0FF0202A591
:10010600E4FCC29300C29700D293FE1202A5E4FF5C
:10011600C297ECC313FC30A303430480D2970FBFEE
:1001260008EEC29300C29700D29700C2A300D2A3E2
:1001360000ECC4540FFFEC540FFEEF75F00AA42E2A
:01014600FFB9
:010147002295
:1001A2007B80E4FD7F8E12017BE4FAAF0374212A87
:1001B200F8E6FD12017B0B0B0ABA08EF7DFF7F8E7A
:0301C20002017BBC
:1001C5007B81E4FD7F8E12017BE4FAAF0312010609
:1001D500743C2AF8A6070B0B0ABA08EF7DFF7F8E41
:0301E50002017B99
:1001E8008D0875A0C075800112014875A0C0758082
:1001F8000275A0E074282508F8E6F5807F017E00E6
:030208000201569A
:10020B008D0875A0C075800412014875A0C075805B
:10021B000875A0E074282508F8E6F5807F017E00BC
:03022B0002015677
:10022E008D0875A0C075801012014875A0C075802C
:10023E002075A0E074282508F8E6F5807F017E0081
:03024E0002015654
:100251008D0875A0C075804012014875A0C07580D9
:100261008075A0E074282508F8E6F5807F017E00FE
:0302710002015631
:1002740075A0A0E4F58075A0C07580FF75A0E07539
:0902840080FF75A0807580FF2247
:0E01480075A0E074282FF8E6F5807F017E0098
:10015600E4FDFCC3ED9FEE6480F8EC6480985014D7
:100166007B4D7A03EB1B70011AEB4A70F70DBD004D
:04017600010C80DF19
:01017A002262
:03000000020003F8
:0C000300787FE4F6D8FD75814302004AC6
:10000F0002008FE493A3F8E493A34003F68001F278
:10001F0008DFF48029E493A3F85407240CC8C333F2
:10002F00C4540F4420C8834004F456800146F6DFC1
:10003F00E4800B010204081020408090028DE47EC2
:10004F00019360BCA3FF543F30E509541FFEE493B6
:10005F00A360010ECF54C025E060A840B8E493A37D
:10006F00FAE493A3F8E493A3C8C582C8CAC583CAA8
:10007F00F0A3C8C582C8CAC583CADFE9DEE780BE60
:0102A4000059
:00000001FF
