:0400FB007F887E1369
:0B00FF00EF1FAC0670011E4C70F622D3
:1000030075A08020B0151200FB20B00CE4F508F5B4
:1000130009AD097F011200E230B0FD20B1111200D9
:10002300FB20B1087F011200C085098030B1FD209B
:10003300B2111200FB20B2080509E5097002050898
:1000430030B2FD20B3BD1200FB20B305E4F508F583
:060053000920B3AF80FBA1
:1000E2008F0A8D0B12010A7FA0120059AF0A12006B
:0900F20059AF0B12005902013351
:0200C0008F0AA5
:1000C20012010A7FA0120059AF0A12005912010A46
:0F00D2007FA112005912009A8F0B120133AF0B4E
:0100E10022FC
:0501190012011ED2A13D
:08011E007F017E02DEFEDFFA24
:0101260022B6
:0F010A00D2A0120119C2A012011EC2A102011E31
:0A013300C2A0120119D2A002011EA1
:02005900AD07F1
:10005B00E4FBFAEDC4131313540124FF92A0ED2516
:10006B00E0FD120119C2A112011E0BBB08E5D2A0C3
:10007B0012011ED2A130A00F0AEAD394C840F6C2D7
:0E008B00A112011E7F0022C2A112011E7F01E0
:010099002244
:10009A00E4FDFCD2A012011ED2A112011EEC25E041
:1000AA00FCA2A0E433420412011EC2A112011E0DD9
:0500BA00BD08E5AF04E4
:0100BF00221E
:03000000020127D3
:0C012700787FE4F6D8FD75810B02000320
:00000001FF
