:020000040800F2
:1000000058040020D5000008C51B00084112000854
:1000100000000000000000000000000000000000E0
:10002000000000000000000000000000951E000815
:100030000000000000000000F31D0008971E0008EB
:10004000E7000008E7000008E7000008E7000008F4
:10005000E7000008E7000008E7000008E7000008E4
:1000600000000000E7000008E7000008E7000008C3
:10007000E7000008E7000008E7000008E7000008C4
:10008000E7000008E7000008E700000800000000A3
:10009000E7000008E7000008E70000084512000834
:1000A000E7000008E7000008E7000008E700000894
:1000B000E7000008E7000008000000000000000062
:1000C0000348854600F04EF80048004771210008BB
:1000D000580400200448804704480047FEE7FEE734
:1000E000FEE7FEE7FEE7FEE7191F0008C100000873
:1000F00030B50B46014600202022012409E00D46C0
:10010000D5409D4205D31D469540491B2546954047
:1001100040191546521E002DF1DC30BD03460B433D
:100120009B0703D009E008C9121F08C0042AFAD2AD
:1001300003E00B780370401C491C521EF9D2704733
:10014000D2B201E00270401C491EFBD2704700226F
:10015000F6E710B513460A4604461946FFF7F0FFC6
:10016000204610BD064C0125064E05E0E36807CC8D
:100170002B430C3C98471034B442F7D3FFF7A4FF4D
:100180004C2A00086C2A0008704770B5002401460C
:1001900020314A79022A03D00421C163012418E0E6
:1001A000026813680E25AB431360026813685B088E
:1001B0005B001360436C1C22134001252A469A40C1
:1001C000036C5A604D7100220A71816B002900D0C6
:1001D0008847204670BD70B5044600F0CFF805464C
:1001E000601C00D0641C00F0C9F8401BA042FAD388
:1001F00070BD0000F0B400220B68002B70D0012409
:1002000094400B68A4462340002B6AD04C68022C13
:1002100001D0122C0CD1D408A40027183D6A540731
:10022000E40E0F26A640B5430E69A6402E433E625B
:100230004C68012C05D0022C03D0112C01D0122CBB
:1002400011D1856854000326A640B543CE68A64068
:100250002E43866044686546AC430D79ED06ED0F8C
:10026000954025434560076854000325A540AF43EA
:100270000E79B607B60FA6403E430660C668AE4389
:100280008D68A5403543C5604C68E40050D52C4CC2
:10029000656B01263543656395082A4CAD002F191F
:1002A000BD689407240F0F26A640B54305263607E0
:1002B000B04201D100261BE0234EB04201D10126FD
:1002C00016E0224EB04201D1022611E0204EB0428B
:1002D00001D103260CE01F4EB04203D1042607E0F3
:1002E0002BE025E01C4EB04201D1052600E0062699
:1002F000A6402E43BE60194D2C689C434E68F60301
:1003000000D51C432C606C689C434E68B60300D536
:100310001C436C60AC689C434E68F60200D51C43DD
:10032000AC60EC689C434E68B60200D51C43EC60A0
:10033000521C0B68D34000D061E7F0BC704700004E
:10034000001002400000014000040050000800506E
:10035000000C005000100050001C00500004014030
:100360000069084201D00120704700207047002A30
:1003700001D08161704781627047000001480068C8
:10038000704700000400002070B4024640325378E9
:10039000202B02D070BC022070471378012B1AD09A
:1003A000012414702423537003681D68A5431D6045
:1003B00003681D682603B5431D6003681D680D436F
:1003C0001D600068016821430160202050700020FA
:1003D000107070BC704770BC0220704770B4024649
:1003E00040325378202B02D070BC02207047137823
:1003F000012B19D0012515702423537003681C6844
:10040000AC431C6003681C680F263602B443090223
:100410002143196000680168294301602020507061
:100420000020107070BC704770BC0220704770478D
:10043000704770B5026893691168DB43DC0508D426
:10044000CC43240605D4446C01252C4344642C027F
:10045000D4615A0509D4CA43120606D4426C082452
:1004600022434264E2010468E2619A0509D4C94367
:10047000090606D4416C022211434164110202684C
:10048000D161416C0B22114201D001F00FF870BD17
:10049000026891691268436B002B00D018477047BF
:1004A0007047000070B50446002C06D02546403544
:1004B00068780026002802D005E0012070BD2E706B
:1004C000204600F0A1F924206870206801684908DE
:1004D000490001600F2160680906884321680861AE
:1004E000206882680121C9038A438260E06801288C
:1004F00009D02122A0689202104322689060E0682F
:10050000022805D008E0A068226808439060F6E75A
:1005100001202268C0025060206842680F4B1A43D5
:1005200042602068C2688A43C260616920690843EA
:10053000A169090208432168C860216AE06908438B
:100540002168086020680168012211430160666427
:10055000202068702663AE70002070BD008000020D
:1005600070470000FFB581B00446254640356878E5
:10057000202802D0022005B0F0BD2878012810D034
:1005800001202870FFF7FAFE064601221923D10345
:100590002046009601F0BEF9002805D0012005B0E4
:1005A000F0BD022005B0F0BD222068701020A870B8
:1005B0000027676403986062049860856763618DB3
:1005C0003B48FF2909D9FF222285012300901B0601
:1005D0002046029901F08AF90AE0618D2185009098
:1005E000208D0123C2B25B062046029901F07EF9FC
:1005F000608D002843D0324620460A9901F0BAF9AE
:10060000002802D0012005B0F0BD2068406A616A70
:100610000870606A401C6062208D401E80B2208598
:10062000618D491E6185618D002925D0002823D167
:1006300000960022802120460A9B01F06BF90028D9
:1006400002D0012005B0F0BD608DFF2809D9FF223E
:10065000228501231B0600972046029901F046F9E6
:100660000AE0608D20850097208D0123C2B25B06D1
:100670002046029901F03AF9608D0028BBD132463C
:1006800020460A9901F0C0F9002802D0012005B0E7
:10069000F0BD20682021C16120684268054B1A40E6
:1006A00042606970AF702F70002005B0F0BD00008F
:1006B0000024008000E800FEFFB581B00446254616
:1006C00040356878202802D0022005B0F0BD287897
:1006D000012810D001202870FFF750FE06460122A5
:1006E0001923D1032046009601F014F9002805D003
:1006F000012005B0F0BD022005B0F0BD21206870DA
:100700001020A870002767640398606204986085D1
:100710006763618D3A48FF2908D9FF222285C30209
:1007200000902046029901F0E1F80AE0618D2185F0
:100730000090208D0123C2B25B062046029901F091
:10074000D5F8608D002843D0324620460A9901F042
:1007500086F9002802D0012005B0F0BD606A21684A
:1007600000788862606A401C6062608D401E60850F
:10077000208D401E80B22085618D002925D0002863
:1007800023D100960022802120460A9B01F0C2F866
:10079000002802D0012005B0F0BD608DFF2809D9E6
:1007A000FF22228501231B0600972046029901F0B3
:1007B0009DF80AE0608D20850097208D0123C2B24C
:1007C0005B062046029901F091F8608D0028BBD1AC
:1007D000324620460A9901F017F9002802D001207C
:1007E00005B0F0BD20682021C16120684268054B3A
:1007F0001A4042606970AF702F70002005B0F0BDE4
:100800000020008000E800FE10B586B004461421E8
:100810006846FFF79CFC14492068884221D1134C9C
:10082000E16A02200143E162E16A0390014005911F
:10083000C021009112210191002101200291049018
:1008400069460B48FFF7D6FCA06B01214905084318
:10085000A06300221146172000F058F8172000F07E
:100860004BF806B010BD00000054004000100240DC
:10087000000400507047704702480168491C01603D
:10088000704700000400002010B5002407480168EC
:10089000402211430160002000F00AF8002801D036
:1008A000012401E000F01CF8204610BD00200240A9
:1008B00070B50546002409487D21C9000068FFF78E
:1008C00017FC00F09FFC002801D0012404E0002266
:1008D0002946501E00F01AF8204670BD0000002086
:1008E0000448416B012211434163816B02041143AF
:1008F0008163704700100240C106C90E0120884084
:10090000014908607047000000E100E08207D30E53
:10091000FF229A408907090E994000280BDA000748
:10092000000F0838830808489B001818C3699343D0
:100930000B43C3617047830804489B001818036881
:1009400093430B430360704700ED00E000E400E0D8
:10095000F8B5044620785D4D80067BD500265C48BE
:10096000806BC00005D45A48816B02041143816337
:10097000012658480168C90517D40068FF210131D4
:10098000084354490860FFF7F9FC074651480068DE
:10099000C0050AD4FFF7F2FCC01B642801D903206C
:1009A000F8BD4C480068C005F4D5494F38680321AC
:1009B0000905084062681140814208D09003800F09
:1009C000032804D13868800301D50120F8BD2869C7
:1009D000032109040840002824D00A40824221D083
:1009E000207880061ED5286988432A690121C90418
:1009F0000A432A612A698A432A612861C00511D500
:100A0000FFF7BCFC0090286980050BD4FFF7B6FC0B
:100A10000099411A3048814201D90320F8BD286964
:100A20008005F3D560688103890F032905D13A68F1
:100A300009058A43084002433A6028690322616835
:100A40001204114008432861012E03D1B96B30070D
:100A50008143B9632078C00705D0E868A1688008A1
:100A600080000843E8602078800705D5E8680C21FD
:100A70008843E1680843E8602078400706D5E868C5
:100A800003218902884321690843E8602078000730
:100A900006D5E86803210903884361690843E860D3
:100AA0002088C00506D5E868032109048843A169A8
:100AB0000843E8602078000606D5E8680321890429
:100AC0008843E1690843E8600020F8BD4010024017
:100AD000001002400070004088130000F8B5044682
:100AE0000E46002C12D066480068C007C00FB04206
:100AF0000ED263480168490849003143016000682B
:100B0000C007C00FB04203D00120F8BD0120F8BDDE
:100B100020785C4F800705D5F868F0218843A168EC
:100B20000843F8602078C00772D06068022808D0B7
:100B300003280BD001280ED03968890510D4012074
:100B4000F8BD396889030BD40120F8BD39688901E3
:100B500006D40120F8BD3968490701D40120F8BD49
:100B6000F968890889000143F960FFF707FC054629
:100B7000616802290FD0032920D0012931D0F968FA
:100B80000907890F44D0FFF7F9FB411B3E4881421A
:100B90003AD90320F8BDF9680907890F022937D02F
:100BA000FFF7ECFB411B3848814201D90320F8BD17
:100BB000F8680007800F0228F2D129E0F9680907D8
:100BC000890F032924D0FFF7D9FB411B2E4881420E
:100BD00001D90320F8BDF8680007800F0328F2D17F
:100BE00016E0F9680907890F012911D0FFF7C6FB44
:100BF000411B2548814201D90320F8BDF868000750
:100C0000800F0128F2D103E0F8680007800FBAD105
:100C10001B480168C907C90FB1420BD901684908CF
:100C20004900314301600068C007C00FB04201D0E5
:100C30000120F8BD2078400706D5F8680721090291
:100C40008843E1680843F8602078000707D5F86812
:100C50000721C90288432169C9000843F86000F0F0
:100C600019F8F968094A0906090F515CC840084992
:100C700008600020FFF71CFE0028DAD1F8BD000054
:100C8000002002400010024088130000302A0008B3
:100C90000000002010B51C4AD1680C2308461840FB
:100CA00004280BD0082810D00C2810D0506800045D
:100CB000410F491C0120C003884010BD1068C006C8
:100CC00001D5124810BD124810BD124810BD88024F
:100CD000114B000F185C0902890F491CD368DB0314
:100CE00004D50C4A5043FFF703FA10BD1268D20630
:100CF00004D5064A5043FFF7FBF910BD044A5043A0
:100D0000FFF7F6F910BD00000010024000093D0099
:100D10000024F40000127A00402A0008F0B583B0E5
:100D20000446002C0FD0F64EF5680C200540F768FD
:100D30000120000407402078C0075BD0082D09D0AF
:100D40000C2D03D00FE0012003B0F0BD0120000402
:100D5000874208D1306880034CD56068002849D1AB
:100D6000012003B0F0BD012061680004814203D17D
:100D700031680143316015E0052301221B04920410
:100D8000994206D1316811433160316801433160C5
:100D900008E0316881433160316801400191306879
:100DA000904330606068002812D0FFF7E7FA0290A5
:100DB000306880031ED4FFF7E1FA0299401A6428D4
:100DC00002D9032003B0F0BD30688003F3D511E0F1
:100DD000FFF7D4FA0290306880030BD5FFF7CEFA04
:100DE0000299401A642802D9032003B0F0BD30688C
:100DF0008003F3D42078800767D5E068810604D5A6
:100E0000326820210A43326088430923042D17D019
:100E10000C2D01D1002F13D0002841D03168994307
:100E200001433160FFF7AAFA0746306840072ED425
:100E3000FFF7A4FAC01B022826D9032003B0F0BD97
:100E40003168490701D500281BD071681F221202A2
:100E50009143226912021143716031689943014341
:100E60003160FFF717FFF16809060A0FA549895C91
:100E7000C840A54908600020FFF71AFD0028DDD111
:100E800023E0012003B0F0BD30684007D0D5706882
:100E90001F2109028843216909020843706014E098
:100EA0003068400840003060FFF768FA0746306855
:100EB00040070AD5FFF762FAC01B022802D90320B7
:100EC00003B0F0BD30684007F4D42078C0066AD57E
:100ED000002D15D0A06900284FD03068FF210131C6
:100EE00008433060FFF74AFA07463068800535D47A
:100EF000FFF744FAC01B02282DD9032003B0F0BD30
:100F00003068800502D5A069002821D070680721CB
:100F100049038843216A084370607068217F00029A
:100F2000000A090608437060206A410B491C012031
:100F3000C0038840F16809060A0F7249895CC840FD
:100F4000714908600020FFF7B3FC0028D6D12AE0E1
:100F5000012003B0F0BD30688005C9D57068072155
:100F600049038843216A084370607068217F00024A
:100F7000000A09060843706015E03168FF2001305F
:100F800081433160FFF7FAF90746306880050AD5DA
:100F9000FFF7F4F9C01B022802D9032003B0F0BD0B
:100FA00030688005F4D42078584F00072FD5606949
:100FB000002816D03869012108433861FFF7DEF9AF
:100FC00002903869800722D4FFF7D8F90299401AB5
:100FD000022802D9032003B0F0BD38698007F3D599
:100FE00015E03869400840003861FFF7C7F9029002
:100FF000386980070BD5FFF7C1F90299401A02281A
:1010000002D9032003B0F0BD38698007F3D42078FB
:10101000400774D500200190B06BC00006D4B06BBF
:10102000012109070843B063012001903848016895
:10103000C90518D401688015014335480160FFF7E0
:101040009DF9029032480068C0050CD4FFF796F96C
:101050000299401A642802D9032003B0F0BD2C483D
:101060000068C005F2D5FF20A2680130824203D19A
:101070003969014339611BE001218902002A0AD044
:1010800005231B029A420DD13A690A433A61396934
:10109000014339610CE03A6982433A613869884317
:1010A000386105E03A6982433A61386988433861BA
:1010B000A068002813D0FFF761F902903869800515
:1010C0002DD4FFF75BF90299411A1248814202D9E7
:1010D000032003B0F0BD38698005F2D51FE0FFF7AB
:1010E0004DF902903869800519D5FFF747F9029943
:1010F000411A084881420FD9032003B0F0BD16E021
:1011000000100240302A0008000000204010024079
:10111000007000408813000038698005E5D401980C
:10112000012804D1B06B012109078843B063606ACC
:10113000002864D00C2D49D001252D0602280FD09F
:101140003068A8433060FFF719F904463068800121
:1011500055D5FFF713F9001B022833D90320CCE73C
:101160003068A8433060FFF709F90746306880010E
:1011700009D5FFF703F9C01B022801D90320BCE7FA
:1011800030688001F5D4E16AA06AF2680843216BF7
:10119000FD231B049A4311430843F0603068284341
:1011A0003060FFF7EBF804463068800127D4FFF782
:1011B000E5F8001B022801D903209EE73068800172
:1011C000F5D51CE030688001C3D418E0012814D0A4
:1011D000F06801210904A26A014091420BD10F215C
:1011E0008904E26A0140914205D103218905084042
:1011F000216B884203D001207FE701207DE700209A
:101200007BE7000010B40B49401E884202D910BC95
:10121000012070470849486108480723C269120243
:10122000120A4C042243C261002088610B6110BC89
:1012300070470000FFFFFF0000E000E004ED00E069
:10124000FEE7000010B50648006880694005400FC1
:10125000034802D0FFF7EDF810BDFFF719F910BDF4
:101260000800002070B50446082517E0002000F0B3
:10127000C1FD022000F075FFE009C00100F0E6FDAD
:10128000022000F06EFF6006040E022000F069FFED
:10129000012000F0AFFD022000F063FF28466D1E24
:1012A000EDB20028E2D100F0A5FD022000F059FFC8
:1012B00070BD10B5012000F0C9FD022000F051FF03
:1012C000012000F097FD022000F04BFF002000F00D
:1012D000BDFD022000F045FF002000F08BFD022044
:1012E00000F03FFF10BD10B5002000F083FD02208C
:1012F00000F037FF002000F0A9FD022000F031FFD0
:10130000012000F077FD022000F02BFF012000F00B
:101310009DFD022000F025FF10BD10B5052400F052
:101320007FFD022000F01DFF012000F063FD022080
:1013300000F017FF06E0641EA4B2022000F011FFC7
:10134000002C0DD000F064FD0028F4D100F08CFDDD
:10135000002000F04FFD022000F003FF002010BD30
:1013600000F082FDFFF7BFFF012010BD10B5806ABD
:101370000021826B9163C26B9163014640314A78D0
:10138000602A02D0FFF78CF810BD20224A70FFF7C8
:101390004EF810BDF0B400220346CE074033282497
:1013A000B025002E05D042225E782746B74300D0F4
:1013B000F2228E0705D5442632435B789C4300D049
:1013C0002A434B0701D5B8231A4311238B4301D17C
:1013D00090231A4312248C4301D120210A43002C6C
:1013E00001D140210A430068016891430160F0BCCB
:1013F000704701688A69D243920701D400228A6249
:1014000000688169C943C90703D08169012211437A
:1014100081617047F8B50446254640356878282133
:10142000814300262068002903D00821C1612E7065
:10143000F8BD8169C903C90F00918169FE230F0CB2
:101440001F4081688A05920DC16819408C46E16889
:1014500002290AD004212046FFF79CFF2E703A464D
:1014600020460099FEF7E4FFF8BD0621D3090F409E
:101470000B409F420ED1A16C491CA164A16C0229B2
:10148000F2D1A6640821C1612E7020460099FEF7B2
:10149000CFFFF8BD674604212046FFF77BFF2E7083
:1014A0003A4620460099FEF7C3FFF8BDF8B504465A
:1014B0002546403568780026AE702E4AE262668581
:1014C000626C0A4362642027282825D0292823D06B
:1014D0002A2821D007212046FFF75CFF6878602882
:1014E00000D06F7026636663206801684A04224951
:1014F0001CD5026801239B039A430260A06B00285D
:1015000009D081632E70A06BFEF73FFE002802D049
:10151000A06B816B8847F8BD03212046FFF73AFF97
:1015200028206870266315486063DDE702681204AE
:1015300012D502680123DB039A430260E06B0028A6
:10154000E9D081632E70E06BFEF71FFE0028E2D029
:10155000E06B816B8847F8BD6878602804D02E70F6
:101560002046FEF79DFFF8BD6F702E702046FEF7F7
:101570005EFFF8BD0000FFFF6D130008B5170008FF
:1015800070B504461548E0620026266320202546F3
:1015900040356870AE706663C843400712D40421BA
:1015A0002068406A626A1070606A401C6062208D28
:1015B000002807D0401E2085608D401E6085606C2D
:1015C0000843606407212046FFF7E4FE21681020ED
:1015D000C8612E702046FEF7C3FF70BD0000FFFFFC
:1015E000F8B504460E46206805682021C161072130
:1015F0002046FFF7CFFE206841680122D203114345
:10160000416020684168344A114041602046FFF73C
:10161000F0FEE843410406D4A06B00280BD000681C
:101620004068608507E0000405D4E06B002802D024
:10163000006840686085F0434007042100280FDB04
:101640008E432068406A626A1070606A401C606263
:10165000208D002804D0401E2085608D401E6085AE
:10166000608D002802D0606C084360640027276307
:1016700025464035AF706763606C00280BD0616C05
:101680002046FFF713FF6878282803D1314620460B
:10169000FFF776FFF8BDE06A104EB0420AD0204650
:1016A00000F01EF8E662202068702F702046FEF7DA
:1016B00057FFF8BD6878222806D0202068702F7068
:1016C0002046FFF7D8F8F8BD202068702F7020461C
:1016D000FFF7D0F8F8BD000000E800FE0000FFFFB3
:1016E00070B5054600262C464034A6706178282047
:1016F00029290ED061782A290AD160702220286316
:1017000002212846FFF746FE26702846FFF7B2F86A
:1017100070BD60702120286301212846FFF73AFE42
:1017200026702846FFF7A7F870BD0000F8B50446FC
:101730000E46174620688169C943C90636D48069B8
:101740002546C0438006403500280DDA701C06D0BF
:10175000FEF714FEC01BB0421ED8002E1CD020681D
:101760008069C0438006F1D421681020C8612068D8
:101770002026C6612046FFF73CFE206841680C4ADF
:1017800011404160606C0421084360646E70002069
:10179000A87028700120F8BD616C202001436164AD
:1017A00068700020A87028700120F8BD0020F8BDE6
:1017B00000E800FEF8B504460F461546E06A2646E6
:1017C0004036317801291DD001213170F943CB0613
:1017D000454AED43002B34DBEB0632D4618D1023F8
:1017E000002911D02168CB61616C0422114361642E
:1017F000002802D09105884269D1616C2046FFF72C
:1018000055FE64E00220F8BD7178282908D1012135
:101810004906884204D139462046FFF7B1FE56E01A
:10182000717829290AD1904208D02068C3612046E6
:10183000FFF7DFFD2046FFF753FF48E02068C36154
:1018400045E04B071CD46B071AD4618D00290ED0DC
:1018500004218F432168496A636A1970616A491CCF
:101860006162218D491E2185618D491E6185618DD1
:1018700000292CD190422AD02046FFF731FF26E0E4
:101880000A0706D42A0704D439462046FFF7C2FDCA
:101890001DE089071BD4A90719D4618D00290DD03B
:1018A000606A216800788862606A401C6062608DAE
:1018B000401E6085208D401E208508E0012109061C
:1018C000884201D0002802D12046FFF709FFF843E3
:1018D000800605D4A80603D439462046FFF780FECB
:1018E00000203070F8BD00000000FFFFF0B4049C41
:1018F00000684568660D8905890D054F120411437E
:101900003E431943B54321430D434560F0BC704746
:10191000FF63FF03F8B504460E4617461D462068D0
:1019200081693046884316D00020B84211D1681C26
:1019300007D0FEF723FD0699401AA8420DD8002DC6
:101940000BD0206881693046884311D00020B8420E
:10195000EDD00020F8BD0120E7E7616C20200143B5
:101960006164403460700020A07020700120F8BDD8
:101970000120ECE7F8B504460E461746206880695A
:10198000C043400733D5254640353A4631462046C8
:10199000FFF7CCFE002801D00120F8BD2068806947
:1019A000C043800617D420688169C943490704D41D
:1019B000218D002901D00020F8BD2021C1612068BF
:1019C0004268104B1A404260002060646970A87041
:1019D00028700120F8BDFEF7D1FCC01BB04208D82A
:1019E000002E06D020688069C0434007CDD4002077
:1019F000F8BD606C20210843606469700020287085
:101A00000120F8BD00E800FE70B504460D461646FC
:101A100020688069C043800614D532462946204696
:101A2000FFF784FE002801D0012070BDFEF7A6FC60
:101A3000801BA84208D8002D06D020688069C043CA
:101A40008006EAD4002070BD616C202001436164EF
:101A5000403460700020A0702070012070BD70B50F
:101A600004460D46164620688069C043800716D597
:101A7000324629462046FFF759FE002801D00120B2
:101A800070BD681C06D0FEF779FC801BA84208D800
:101A9000002D06D020688069C0438007E8D400206C
:101AA00070BD616C2020014361644034607000208F
:101AB000A0702070012070BDF0B587B01421684679
:101AC000FEF745FB2648C26A04210A43C262C26A85
:101AD0000A400592C16A01252943C162C16A2940B1
:101AE0000591C26A02210A43C262C06A8E0308409D
:101AF0000590002231461B48FEF739FC2F020520D5
:101B0000002239460007FEF732FC00223021164839
:101B1000FEF72DFCA803002400900194694602946E
:101B20001048FEF767FB029469460E48009601953F
:101B30000394FEF75FFB05200294694600070097B7
:101B400001950394FEF756FB3020009002946946FD
:101B5000019503940448FEF74DFB07B0F0BD00006B
:101B600000100240000800500004005010B5134857
:101B700011490160124941600021816001614161A8
:101B800081610122C161C2600162FEF78BFC002805
:101B900001D0FEF7F9FA00210848FEF7F5FB00280E
:101BA00001D0FEF7F1FA00210448FEF717FC0028E7
:101BB00001D0FEF7E9FA10BD0054004008000020F3
:101BC000AB7CF400704770B500242046B030C1B241
:101BD000002000F0F3F80021084600F0EFF8102193
:101BE000002000F0EBF800250021012000F0E6F8CD
:101BF0006D1CEDB2802DF7D3641CE4B2042CE4D349
:101C000070BD10B5AE21002000F0D8F8D52100201D
:101C100000F0D4F88021002000F0D0F8A8210020A6
:101C200000F0CCF81F21002000F0C8F8D3210020DC
:101C300000F0C4F80021084600F0C0F84021002060
:101C400000F0BCF8B021002000F0B8F88D21002091
:101C500000F0B4F81421002000F0B0F8A121002019
:101C600000F0ACF8C821002000F0A8F8DA2100202C
:101C700000F0A4F80021084600F0A0F8812100201F
:101C800000F09CF8FF21002000F098F8D9210020F6
:101C900000F094F81F21002000F090F8DB210020D4
:101CA00000F08CF84021002000F088F8A4210020EA
:101CB00000F084F8FFF787FFAF21002000F07EF8E6
:101CC00010BD000010B5054B012805D001222021D0
:101CD0001846FEF74CFB10BD0022F8E70004005048
:101CE00010B50446B031C9B2002000F067F82109F0
:101CF0000020103100F062F82107090F002000F0E9
:101D00005DF810BDFFB581B0203A019800240D4662
:101D1000D6B27F2803D900208D1CEDB20190102B84
:101D200029460FD0FFF7DCFF06204643144835183C
:101D3000295D012000F042F8641CE4B2062CF7D3C0
:101D400005B0F0BDFFF7CCFF37010E4E3819315CFE
:101D5000012000F033F8641CE4B2082CF6D36D1CAB
:101D6000E9B20198FFF7BCFF002438198019017A05
:101D7000012000F023F8641CE4B2082CF5D3DFE75F
:101D8000042200082C240008FFB581B017460E4637
:101D9000044600250DE031462046049BFFF7B2FFC4
:101DA0000834E4B2782C02D90024B61CF6B26D1CBB
:101DB000EDB27A5D002AEED105B0F0BD70B50D46EA
:101DC0000446FFF776FA7820FFF74CFAFFF7A5FAFA
:101DD000002C0CD04020FFF745FAFFF79EFA28466A
:101DE000FFF740FAFFF799FAFFF77DFA70BD002080
:101DF000F1E770470521FF2209070132002803D0CF
:101E00008869104388617047886A10438862704708
:101E100010B510210148FEF7A3FA10BD00040050D0
:101E200000B585B014216846FEF791F91020002115
:101E30000090012001910391029069460248FEF74B
:101E4000D9F905B000BD000000040050054910227A
:101E5000002803D08869104388617047886A10435E
:101E6000886270470004005000B585B014216846B0
:101E7000FEF76DF9102000900120019000200290E3
:101E8000039069460248FEF7B5F905B000BD0000B1
:101E900000040050704710B5FEF7EEFC10BD0000C6
:101EA00010B59AB034216846FEF751F914210DA8F7
:101EB000FEF74DF9202112A8FEF749F915480168EF
:101EC0000322D2029143C214891801600121022029
:101ED0000391102100900491099040040B9000019F
:101EE00000240C900A946846FEF718FF0F200D900E
:101EF00003200E900F941094012111940DA8FEF769
:101F0000EDFD08201794129012A8FEF721FD1AB0DB
:101F100010BD000000700040104801688215114398
:101F20000160C1680E4A1140C16001680D4A11404C
:101F300001608168490849008160016801229204BA
:101F400091430160C168FD2212049143C1600021E8
:101F500001610549C003886070470000001002401D
:101F60000C40FF88F6FFF6FE00ED00E010B5012200
:101F7000D1030D48FEF7FBF90120FFF7A3FEC820AF
:101F8000FEF729F9FFF73DFEFFF71DFE00211023A4
:101F900006A20846FFF7F8FE102304A20221002043
:101FA000FFF7F2FE10BD00000008005020202020A6
:101FB00020202020202020202020202000000000A1
:101FC0000FB410B504A9074B02AA039800F01CF83F
:101FD000044602A9002000F0BFF8204610BC08BC4F
:101FE00004B018475921000802E008C8121F08C1B0
:101FF000002AFAD170477047002001E001C1121F8A
:10200000002AFBD170470000FFB58DB004460025C3
:1020100006E025280AD0109A0F999047641C6D1C81
:1020200020780028F5D1284611B0F0BD0027012105
:10203000484A009700E00743641C23780846203B89
:1020400098401042F7D120782E2817D1042007435A
:102050006078641C2A280CD10E98641C02C8009178
:102060000E900BE000990A22514330394018641C4D
:1020700000902078014630390929F3D920780028CA
:10208000D1D0642808D0692806D075281ED0109AAF
:102090000F9990476D1C5BE00A200E99019001C9D1
:1020A0000E91002802DA40422D2102E0390504D5C4
:1020B0002B216A461172012103E0F90704D0202187
:1020C000F7E70BAE0B910DE00021FAE70A200E991D
:1020D000019001C90E91F7E70199FEF709F8303137
:1020E000761E31700028F7D103A8801B20300190A4
:1020F000780701D5009801E00120009001998842FD
:1021000001DD401A00E000200027009006E002A850
:10211000109AC05D0F9990476D1C7F1C0B988742E9
:10212000F5DB04E0109A30200F9990476D1C009960
:10213000481E00900029F5DC05E03078109A761CE6
:102140000F9990476D1C0199481E01900029F4DCFD
:10215000641C65E7092801000A68531C0B601070B5
:102160007047002100E0491C8142FCD37047000009
:1021700094B014221C4906A8FDF7D0FFFEF784FB9B
:10218000FFF78EFEFFF798FCFFF7F0FCFFF7EEFE7F
:1021900016480068016801221143016014021423EB
:1021A00006AA4B2111480094FEF786FA102301AAD3
:1021B0004B210E480094FEF7D5F96846C27A0CA16F
:1021C0000FA8FFF7FDFE0BA10BA8FFF7F9FE0021FA
:1021D000102301AA0846FFF7D7FD10230BAA0221FE
:1021E0000020FFF7D1FDDAE71C2A000808000020D4
:1021F0002564000048656C6C6F20576F726C64201A
:10220000202020000000000000000000002F00003F
:1022100000000700070000147F147F1400242A7FA9
:102220002A12006264081323003649552250000028
:102230000503000000001C224100000041221C0098
:102240000014083E08140008083E0808000000A01A
:102250006000000808080808000060600000002016
:1022600010080402003E5149453E0000427F4000F4
:10227000004261514946002141454B31001814127A
:102280007F10002745454539003C4A494930000147
:102290007109050300364949493600064949291E96
:1022A00000003636000000005636000000081422F8
:1022B00041000014141414140000412214080002F8
:1022C0000151090600324959513E007C1211127C1D
:1022D000007F49494936003E41414122007F41414A
:1022E000221C007F49494941007F09090901003E3C
:1022F0004149497A007F0808087F0000417F41007A
:10230000002040413F01007F08142241007F4040EF
:102310004040007F020C027F007F0408107F003ED7
:102320004141413E007F09090906003E4151215EBD
:10233000007F091929460046494949310001017FBA
:102340000101003F4040403F001F2040201F003F50
:102350004038403F00631408146300070870080702
:1023600000615149454300007F41410000552A5515
:102370002A55000041417F00000402010204004090
:1023800040404040000001020400002054545478B2
:10239000007F4844443800384444442000384444D2
:1023A000487F00385454541800087E090102001870
:1023B000A4A4A47C007F080404780000447D4000AD
:1023C000004080847D00007F102844000000417F91
:1023D0004000007C04180478007C0804047800386D
:1023E0004444443800FC242424180018242418FCF5
:1023F000007C0804040800485454542000043F445E
:102400004020003C4040207C001C2040201C003C20
:102410004030403C004428102844001CA0A0A07C70
:10242000004464544C4414141414141400000000A8
:10243000000000000000000000000000000000F8A4
:1024400000000000000000333000000000100C0607
:10245000100C0600000000000000000040C07840A2
:10246000C0784000043F04043F040400007088FC6E
:1024700008300000001820FF211E0000F008F000C6
:10248000E018000000211C031E211E0000F0088837
:10249000700000001E2123241927211010160E00A1
:1024A000000000000000000000000000000000E04C
:1024B0001804020000000007182040000002041861
:1024C000E00000000040201807000000404080F0BD
:1024D000804040000202010F01020200000000F0F3
:1024E000000000000101011F0101010000000000C7
:1024F0000000000080B0700000000000000000003C
:1025000000000000000101010101010100000000C4
:10251000000000000030300000000000000000005B
:1025200080601804006018060100000000E0100838
:102530000810E000000F102020100F00001010F80D
:10254000000000000020203F20200000007008084C
:1025500008887000003028242221300000300888CC
:10256000884830000018202020110E000000C020F4
:1025700010F8000000070424243F240000F8088815
:10258000880808000019212020110E0000E01088A2
:1025900088180000000F112020110E0000380808D4
:1025A000C83808000000003F0000000000708808E4
:1025B00008887000001C222121221C0000E0100865
:1025C0000810E0000000312222110F00000000C0BE
:1025D000C00000000000003030000000000000805B
:1025E000000000000000806000000000000080404B
:1025F0002010080000010204081020004040404064
:1026000040404000040404040404040000081020B6
:1026100040800000002010080402010000704808FB
:102620000808F0000000003036010000C030C82863
:10263000E810E0000718272423140B000000C0381E
:10264000E0000000203C23020227382008F8888898
:1026500088700000203F202020110E00C0300808A4
:1026600008083800071820202010080008F808087B
:102670000810E000203F202020100F0008F8888874
:10268000E8081000203F20202320180008F8888840
:10269000E8081000203F200003000000C0300808B8
:1026A0000838000007182020221E020008F8080041
:1026B0000008F808203F210101213F20000808F808
:1026C000080800000020203F20200000000008082B
:1026D000F8080800C08080807F00000008F888C0EB
:1026E00028180800203F20012638200008F808009C
:1026F00000000000203F20202020300008F8F800D3
:10270000F8F80800203F003F003F200008F830C0E4
:102710000008F808203F200007183F00E0100808D4
:102720000810E0000F10202020100F0008F8080803
:102730000808F000203F210101010000E010080816
:102740000810E0000F18242438504F0008F888883B
:1027500088887000203F2000030C3020007088081B
:10276000080838000038202121221C00180808F829
:10277000080818000000203F2000000008F80800AA
:102780000008F808001F202020201F00087888007B
:1027900000C83808000007380E010000F80800F8EB
:1027A0000008F800033C0700073C03000818688095
:1027B0008068180820302C03032C30200838C8000B
:1027C000C83808000000203F20000000100808085A
:1027D000C83808002038262120201800000000FEFC
:1027E000020202000000007F40404000000C30C0A8
:1027F00000000000000000010638C00000020202D4
:10280000FE000000004040407F0000000000040285
:1028100002020400000000000000000000000000B0
:1028200000000000808080808080808000020204A0
:102830000000000000000000000000000000808098
:10284000808000000019242222223F2008F8008006
:1028500080000000003F112020110E0000000080C9
:1028600080800000000E1120202011000000008058
:102870008088F800000E112020103F20000080808A
:1028800080800000001F222222221300008080F09E
:10289000888888180020203F2020000000008080C9
:1028A00080808000006B94949493600008F800800E
:1028B00080800000203F210000203F200080989869
:1028C000000000000020203F2020000000000080C9
:1028D0009898000000C08080807F000008F8000009
:1028E00080808000203F24022D302000000808F85E
:1028F000000000000020203F202000008080808019
:1029000080808000203F20003F20003F80800080AA
:1029100080800000203F210000203F2000008080B8
:1029200080800000001F202020201F008080008069
:102930008000000080FFA12020110E000000008018
:1029400080808000000E112020A0FF808080800009
:102950008080800020203F21200001000000808036
:10296000808080000033242424241900008080E02B
:10297000808000000000001F2020000080800000F8
:1029800000808000001F202020103F2080808000D9
:102990000080808000010E300806010080800080E9
:1029A000008080800F300C030C300F00008080000E
:1029B000808080000020312E0E3120008080800039
:1029C0000080808080818E701806010000808080E9
:1029D000808080000021302C222130000000000087
:1029E000807C020200000000003F40400000000028
:1029F000FF00000000000000FF0000000002027C59
:102A0000800000000040403F00000000000601017F
:102A1000020204040000000000000000240D203227
:102A2000E0000000000000000000000000000000C6
:102A3000000000000000000001020304060708096E
:102A4000030406080C101820300000006C2A00084F
:102A50000000002008000000E81F0008742A000899
:102A60000800002050040000F81F000800002000AB
:042A70000000000062
:04000005080000C12E
:00000001FF
