:030000000200B546
:0C00B500787FE4F6D8FD75810802004356
:1000030003030405050403020101020303020200C2
:1000130003030405050403020101020302010100B5
:1000230002020301020303010204030101020500AA
:100033000303040505040302010102030201010095
:10004300C2B3D2B4E4F5807F64FE1200C1E4F5804C
:10005300E4F508E5089000039304FF12007A7F405B
:100063007E9C1200C1B2B3B2B46380FF0508E508F9
:07007300C3946440DE80D954
:0B00C100EF1FAC0670011E4C70F62211
:0D009D007F327E001200AAC2A67F327E00D4
:0B00AA00EF1FAC0670011E4C70F62228
:02007A00AD07D0
:10007C00C2A6C2A71200A6D2A71200A6C2A712003F
:10008C009DE4FBEBC39D5008D2A612009D0B80F3A0
:01009C002241
:00000001FF
