:020000040800F2
:1000000008040020D500000865150008F911000853
:1000100000000000000000000000000000000000E0
:10002000000000000000000000000000D5180008DB
:10003000000000000000000093170008D718000817
:10004000E7000008E7000008E7000008E7000008F4
:10005000E7000008E7000008E7000008E7000008E4
:1000600000000000E7000008E7000008E7000008C3
:10007000E7000008E7000008E7000008E7000008C4
:10008000E7000008E7000008E700000800000000A3
:10009000E7000008E7000008E7000008E7000008A4
:1000A000E7000008E7000008E7000008E700000894
:1000B000E7000008E7000008000000000000000062
:1000C0000348854600F034FB00480047C122000881
:1000D000080400200448804704480047FEE7FEE784
:1000E000FEE7FEE7FEE7FEE745190008C10000084D
:1000F00030B50B46014600202022012409E00D46C0
:10010000D5409D4205D31D469540491B2546954047
:1001100040191546521E002DF1DC30BDD2B201E06F
:100120000270401C491EFBD270470022F6E710B552
:1001300013460A4604461946FFF7F0FF204610BD55
:10014000F0B507460846584087B0C00F04904800F5
:100150000E46590040084908BC1A884105D2384665
:1001600031461E4617460B460246580040081043CB
:100170004CD0300D039040055900400D490D0590BD
:10018000401A0290402872DA18030121000B090579
:100190000843019004980092002805D0019952422A
:1001A0000020884100920190029840210A1A01998A
:1001B000009800F0C5F905460C466B4607CB00F0E9
:1001C000CFF9C0197141039A0E0D0023D71756407D
:1001D0001A467A40164344D0049A002A2DD0029A37
:1001E000012A039A15DC1205C01A91410126360531
:1001F000001C7141D20F059ED20700930192029616
:100200002A46234600F00DFA07B0F0BD38463146C5
:10021000FAE71605224A0F46B218C01AB741012163
:100220000905001C4F4100187F41114618187941FB
:10023000E20F10436D19644113E0E2076D081543A6
:100240006408C2071443039A01261205C01A91419B
:100250003605001C7141CE07400830434908C018DC
:1002600051412A46234600F0CFF9CDE7FFE7049835
:1002700001224000C117121A00238B410498314615
:10028000C417381AA141EEE730B40124E4076340F3
:1002900030BC55E730B40124E407614030BC4FE77F
:1002A0000000E0FFF0B51FB488B00B990998002456
:1002B00048400999C00F490049080991C0070B99A6
:1002C0000090490049080B9109990898A6460843EF
:1002D0001CD00B990A98084318D0099801244000B3
:1002E000420D4800410D099824050003000B2043EE
:1002F00009900B980003000B20430B9050181C49E9
:100300004018002201901446104605E000200146E6
:100310000DB0F0BD032801DA034600E003239C463C
:10032000C11A0AAE0AE05F0008ADED5B4F00F75B53
:100330007D430027AA187C41491C5B1E6145F2DD04
:10034000410004AB5A522104120C0A43240C401CF5
:100350000828DFDB01980290009970460191009017
:10036000059B049A0799069800F05BF9D0E7000016
:100370000DFCFFFFF0B50C465C4085B0E40FE407D0
:1003800003944C000026640859009446490802462C
:100390000296224321D062460A431ED06200570DC6
:1003A0004A000E032303550D012402462C4924055F
:1003B000781B1B0B360B40182343264361460090E5
:1003C0001C46501AB44103D30098401C009002E030
:1003D000921800985B41002803DA0020014605B01E
:1003E000F0BD0020012109050746864611E064465C
:1003F0001D46141BB54106D36546521BB3417446D6
:1004000007430C43A646CD074008490828439218E5
:100410005B4105460D43EAD11046184313D06046B0
:10042000194650407140084306D06046101AB34147
:1004300006D20122002306E000220123DB0702E0AE
:100440000122D2435310009874460105381C6141C3
:10045000029C039D0019694100F0D6F8BFE7000037
:10046000FD0300000EB505490291002100910A46E6
:100470000B46019100F0D5F803B000BD3304000035
:10048000C20FD207400040080BD0C10D0723DB018B
:10049000C91840020905400A1143C2084007114328
:1004A0007047002001467047CB0FDB07490010B5AD
:1004B000490802460A4307D00A0D07240903E4014C
:1004C000090B121B002A01DC002010BDC900440FDB
:1004D0000C43C100E018D205801800F054F810BD9C
:1004E000F0B51FB40646002082B0054640240191B5
:1004F00000901BE0019922460F46304600F02AF991
:10050000049A059B801A994110D310461946224639
:1005100000F016F8361A8F4101972246012000217B
:10052000009F00F00DF838184D4100902046641EE1
:100530000028DFDC019B00982946324607B0F0BD59
:1005400010B5202A04DB0146203A9140002010BD5E
:10055000914020239C1A0346E3401943904010BD6C
:1005600010B5202A06DBCB170846203A1041C117E8
:100570000B4306E00B461341D0402024A21A9140C1
:100580000843194610BD002904DA401C490001D176
:1005900040084000704770B40024050C05D11024B9
:1005A000000402D1002921D01124050E01D100023E
:1005B0000834050F01D10001241D850F01D18000F1
:1005C000A41C002801DB4000641C002908D0202561
:1005D0002E1B0D46F540A14000D0012129430843C0
:1005E00001061B1B000ADB1D02D5002070BC7047F2
:1005F000DB05181880180029F8DA401C4900F5D1ED
:1006000070BC40084000704710B5002B08DA002489
:10061000401C614192185B411A4301D140084000DF
:1006200010BDF0B51FB482B005460C0003D00846DB
:1006300001F0C6F902E001F0C3F920300246009053
:1006400021462846FFF77CFF049B059A04460F4687
:1006500018431143084314D0184610431BD0009888
:1006600040210A1A1846059900F074F805460E460E
:10067000009A05990498FFF763FF084305D001200D
:1006800004E02046394607B0F0BD0020C1170543FD
:100690000E432C43374300990E986305401A7905A1
:1006A000E40A00220C43FD0A0A3002D5002001466C
:1006B000E9E70105101969410C9C0D9D001969417C
:1006C000FFF7A2FFDFE700004A0009030123090B3F
:1006D0001B0519430A4B10B5520D9A4202DA00204D
:1006E000014610BD064B34339A4203DC9A1A00F0DF
:1006F00031F810BD034BD218FFF722FF10BD0000E8
:10070000FF030000CDFBFFFF10B5002904DB01242F
:10071000E40740428C412146002B04DB1C460123A8
:10072000DB075242A341994200D1904210BD000024
:10073000064C0125064E05E0E36807CC2B430C3C34
:1007400098471034B442F7D3FFF7BEFCA82B00083B
:10075000C82B000810B5202A04DB0846203AD040F8
:10076000002110BD0B46D340D0402024A21A914056
:100770000843194610BD000070B500F0F9FD942043
:1007800000F0A1FD00F06BFE242000F09CFD00F0C5
:1007900066FE0B2000F097FD00F061FE00F01CFEED
:1007A000022000F03DF800F0E3FD952000F08BFD05
:1007B00000F055FE00F010FE022000F031F800F0CD
:1007C000D7FD952000F07FFD00F049FE00F015FDFB
:1007D000054600F03AFD00F010FD044600F035FD3E
:1007E00000F00BFD00F096FD00F0F6FD280220431E
:1007F000FFF738FE0022074BFFF754FD0022064B9F
:10080000FFF7B8FD0022054BFFF79AFCFFF74CFEFF
:1008100070BD000000E06540E0FFEF40008046C092
:1008200070B5044600F0CEF80546601C00D0641C8C
:1008300000F0C8F8401BA042FAD370BDF0B400220B
:100840000B68002B70D0012494400B68A446234011
:10085000002B6AD04C68022C01D0122C0CD1D40889
:10086000A40027183D6A5407E40E0F26A640B5439E
:100870000E69A6402E433E624C68012C05D0022C26
:1008800003D0112C01D0122C11D1856854000326FD
:10089000A640B543CE68A6402E43866044686546B0
:1008A000AC430D79ED06ED0F954025434560076893
:1008B00054000325A540AF430E79B607B60FA640F6
:1008C0003E430660C668AE438D68A5403543C560AB
:1008D0004C68E40050D52C4C656B012635436563AC
:1008E00095082A4CAD002F19BD689407240F0F26D8
:1008F000A640B54305263607B04201D100261BE0CD
:10090000234EB04201D1012616E0224EB04201D161
:10091000022611E0204EB04201D103260CE01F4E0A
:10092000B04203D1042607E02BE025E01C4EB04284
:1009300001D1052600E00626A6402E43BE60194DD3
:100940002C689C434E68F60300D51C432C606C68F1
:100950009C434E68B60300D51C436C60AC689C4356
:100960004E68F60200D51C43AC60EC689C434E68B0
:10097000B60200D51C43EC60521C0B68D34000D07B
:1009800061E7F0BC70470000001002400000014029
:100990000004005000080050000C005000100050EF
:1009A000001C0050000401400069084201D00120F1
:1009B000704700207047002A01D081617047816232
:1009C00070470000014800687047000004000020E4
:1009D00002480168491C01607047000004000020C3
:1009E00010B500240748016840221143016000202F
:1009F00000F00AF8002801D0012401E000F01CF802
:100A0000204610BD0020024070B50546002409486C
:100A10007D21C9000068FFF76BFB00F0CFFB0028C9
:100A200001D0012404E000222946501E00F010F8F5
:100A3000204670BD000000200448416B0122114394
:100A40004163816B020411438163704700100240CF
:100A50008207D30EFF229A408907090E9940002889
:100A60000BDA0007000F0838830808489B001818A5
:100A7000C36993430B43C3617047830804489B00D9
:100A80001818036893430B430360704700ED00E0C0
:100A900000E400E0F8B504460E46002C12D066488B
:100AA0000068C007C00FB0420ED263480168490811
:100AB0004900314301600068C007C00FB04203D055
:100AC0000120F8BD0120F8BD20785C4F800705D5D6
:100AD000F868F0218843A1680843F8602078C007CF
:100AE00072D06068022808D003280BD001280ED0ED
:100AF0003968890510D40120F8BD396889030BD401
:100B00000120F8BD3968890106D40120F8BD396893
:100B1000490701D40120F8BDF9688908890001431B
:100B2000F960FFF74FFF0546616802290FD00329DE
:100B300020D0012931D0F9680907890F44D0FFF787
:100B400041FF411B3E4881423AD90320F8BDF96874
:100B50000907890F022937D0FFF734FF411B3848B6
:100B6000814201D90320F8BDF8680007800F0228F0
:100B7000F2D129E0F9680907890F032924D0FFF78A
:100B800021FF411B2E48814201D90320F8BDF8689E
:100B90000007800F0328F2D116E0F9680907890FD2
:100BA000012911D0FFF70EFF411B2548814201D9D1
:100BB0000320F8BDF8680007800F0128F2D103E098
:100BC000F8680007800FBAD11B480168C907C90F30
:100BD000B1420BD9016849084900314301600068FE
:100BE000C007C00FB04201D00120F8BD20784007F7
:100BF00006D5F868072109028843E1680843F860D0
:100C00002078000707D5F8680721C90288432169C1
:100C1000C9000843F86000F019F8F968094A0906A4
:100C2000090F515CC840084908600020FFF7ECFE3E
:100C30000028DAD1F8BD0000002002400010024078
:100C4000881300008C2B00080000002010B51C4AFF
:100C5000D1680C230846184004280BD0082810D06F
:100C60000C2810D050680004410F491C0120C0031B
:100C7000884010BD1068C00601D5124810BD12484A
:100C800010BD124810BD8802114B000F185C0902FC
:100C9000890F491CD368DB0304D50C4A5043FFF786
:100CA00027FA10BD1268D20604D5064A5043FFF752
:100CB0001FFA10BD044A5043FFF71AFA10BD000096
:100CC0000010024000093D000024F40000127A00E8
:100CD0009C2B0008F0B583B00446002C0FD0F64ED4
:100CE000F5680C200540F7680120000407402078D3
:100CF000C0075BD0082D09D00C2D03D00FE00120D8
:100D000003B0F0BD01200004874208D130688003A1
:100D10004CD56068002849D1012003B0F0BD012006
:100D200061680004814203D131680143316015E0FC
:100D3000052301221B049204994206D13168114314
:100D4000316031680143316008E0316881433160CE
:100D5000316801400191306890433060606800283C
:100D600012D0FFF72FFE0290306880031ED4FFF7E9
:100D700029FE0299401A642802D9032003B0F0BD6D
:100D800030688003F3D511E0FFF71CFE0290306855
:100D900080030BD5FFF716FE0299401A642802D98A
:100DA000032003B0F0BD30688003F3D420788007BF
:100DB00067D5E068810604D5326820210A43326095
:100DC00088430923042D17D00C2D01D1002F13D0F7
:100DD000002841D03168994301433160FFF7F2FDAB
:100DE0000746306840072ED4FFF7ECFDC01B0228F1
:100DF00026D9032003B0F0BD3168490701D500288A
:100E00001BD071681F221202914322691202114302
:100E100071603168994301433160FFF717FFF16852
:100E200009060A0FA549895CC840A5490860002049
:100E3000FFF7EAFD0028DDD123E0012003B0F0BD7B
:100E400030684007D0D570681F21090288432169A6
:100E500009020843706014E03068400840003060C8
:100E6000FFF7B0FD0746306840070AD5FFF7AAFD37
:100E7000C01B022802D9032003B0F0BD3068400730
:100E8000F4D42078C0066AD5002D15D0A0690028BA
:100E90004FD03068FF21013108433060FFF792FDE9
:100EA00007463068800535D4FFF78CFDC01B02284B
:100EB0002DD9032003B0F0BD3068800502D5A069AC
:100EC000002821D07068072149038843216A08431C
:100ED00070607068217F0002000A09060843706094
:100EE000206A410B491C0120C0038840F1680906B3
:100EF0000A0F7249895CC840714908600020FFF7F9
:100F000083FD0028D6D12AE0012003B0F0BD30686F
:100F10008005C9D57068072149038843216A0843C1
:100F200070607068217F0002000A09060843706043
:100F300015E03168FF20013081433160FFF742FD49
:100F40000746306880050AD5FFF73CFDC01B022824
:100F500002D9032003B0F0BD30688005F4D42078B6
:100F6000584F00072FD56069002816D03869012135
:100F700008433861FFF726FD02903869800722D4C4
:100F8000FFF720FD0299401A022802D9032003B07E
:100F9000F0BD38698007F3D515E038694008400096
:100FA0003861FFF70FFD0290386980070BD5FFF716
:100FB00009FD0299401A022802D9032003B0F0BDAE
:100FC00038698007F3D42078400774D50020019059
:100FD000B06BC00006D4B06B012109070843B063B1
:100FE0000120019038480168C90518D401688015AE
:100FF000014335480160FFF7E5FC02903248006884
:10100000C0050CD4FFF7DEFC0299401A642802D90F
:10101000032003B0F0BD2C480068C005F2D5FF20C6
:10102000A2680130824203D13969014339611BE072
:1010300001218902002A0AD005231B029A420DD100
:101040003A690A433A613969014339610CE03A6906
:1010500082433A6138698843386105E03A698243DE
:101060003A61386988433861A068002813D0FFF7D7
:10107000A9FC0290386980052DD4FFF7A3FC0299E2
:10108000411A1248814202D9032003B0F0BD3869E9
:101090008005F2D51FE0FFF795FC029038698005C6
:1010A00019D5FFF78FFC0299411A084881420FD9E0
:1010B000032003B0F0BD16E0001002408C2B0008A6
:1010C0000000002040100240007000408813000023
:1010D00038698005E5D40198012804D1B06B01215D
:1010E00009078843B063606A002864D00C2D49D09A
:1010F00001252D0602280FD03068A8433060FFF785
:1011000061FC04463068800155D5FFF75BFC001B8D
:10111000022833D90320CCE73068A8433060FFF7BA
:1011200051FC07463068800109D5FFF74BFCC01B16
:10113000022801D90320BCE730688001F5D4E16AB8
:10114000A06AF2680843216BFD231B049A431143F4
:101150000843F060306828433060FFF733FC0446F2
:101160003068800127D4FFF72DFC001B022801D92D
:1011700003209EE730688001F5D51CE030688001CF
:10118000C3D418E0012814D0F06801210904A26A30
:10119000014091420BD10F218904E26A0140914242
:1011A00005D1032189050840216B884203D0012025
:1011B0007FE701207DE700207BE7000010B40B49AA
:1011C000401E884202D910BC01207047084948617E
:1011D00008480723C2691202120A4C042243C26162
:1011E000002088610B6110BC70470000FFFFFF000A
:1011F00000E000E004ED00E0FEE770B50824002503
:1012000000F00AFB13E06806050E002000F0D0FA9B
:10121000022001F04EF8022001F04BF8012000F00E
:10122000C7FA022001F045F800F0D8FA054320463D
:10123000641EE4B20028E6D100F0BAFA022001F000
:1012400038F800F031FB284670BD10B5002000F0E2
:1012500007FB022001F02DF8022001F02AF80120FE
:1012600000F0A6FA022001F024F8002000F0A0FA15
:10127000022001F01EF810BD70B50446082517E0E5
:10128000002000F087FA022001F00DF8E009C0010B
:1012900000F0D8FA022001F006F86006040E0220E1
:1012A00001F001F8012000F075FA022000F0FBFFC8
:1012B00028466D1EEDB20028E2D100F06BFA022044
:1012C00000F0F1FF70BD70B50446082517E000205E
:1012D00000F06EFA022000F0ECFFE009C00100F01F
:1012E000BFFA022000F0E5FF6006040E022000F0C5
:1012F000E0FF012000F05CFA022000F0DAFF28464F
:101300006D1EEDB20028E2D100F052FA022000F08A
:10131000D0FF70BD10B5012000F0A2FA022000F04D
:10132000C8FF012000F044FA022000F0C2FF0020B4
:1013300000F03EFA022000F0BCFF10BD10B5012005
:1013400000F080FA022000F0AEFF012000F022FA47
:10135000022000F0A8FF002000F074FA022000F044
:10136000A2FF002000F016FA022000F09CFF10BD42
:1013700010B5012000F074FA022000F09AFF01205D
:1013800000F016FA022000F094FF002000F068FA46
:10139000022000F08EFF002000F00AFA022000F088
:1013A00088FF10BD10B5002000F0F4F9022000F015
:1013B0007AFF002000F046FA022000F074FF0120BE
:1013C00000F0E8F9022000F06EFF012000F03AFA88
:1013D000022000F068FF10BD10B5002000F0E8F911
:1013E000022000F066FF002000F03AFA022000F030
:1013F00060FF012000F0DCF9022000F05AFF01201C
:1014000000F02EFA022000F054FF10BD10B50524A4
:1014100000F0ECF9022000F046FF012000F0BAF9DC
:10142000022000F040FF06E0641EA4B2022000F09B
:101430003AFF002C0DD000F0C9F90028F4D100F0DB
:101440001DFA002000F0A6F9022000F02CFF002079
:1014500010BD00F013FAFFF7A5FF012010BD10B575
:10146000052400F0D9F9022000F023FF012000F04C
:101470009FF9022000F01DFF06E0641EA4B20220C6
:1014800000F017FF002C0DD000F0A8F90028F4D1CF
:1014900000F00AFA002000F08BF9022000F009FFAA
:1014A000002010BD00F000FAFFF796FF012010BDEC
:1014B000F0B587B014216846FEF737FE2648C26AA9
:1014C00004210A43C262C26A0A400592C16A012528
:1014D0002943C162C16A29400591C26A02210A43B7
:1014E000C262C06A8E0308400590002231461B4844
:1014F000FFF761FA2F020520002239460007FFF7A7
:101500005AFA0022F0211648FFF755FAA8030024E2
:1015100000900194694602941048FFF78FF90294F5
:1015200069460E48009601950394FFF787F9052058
:10153000029469460007009701950394FFF77EF92E
:10154000F020009002946946019503940448FFF747
:1015500075F907B0F0BD000000100240000800500F
:1015600000040050704770B500242046B030C1B26E
:10157000002000F0F3F80021084600F0EFF81021F9
:10158000002000F0EBF800250021012000F0E6F833
:101590006D1CEDB2802DF7D3641CE4B2042CE4D3AF
:1015A00070BD10B5AE21002000F0D8F8D521002084
:1015B00000F0D4F88021002000F0D0F8A82100200D
:1015C00000F0CCF81F21002000F0C8F8D321002043
:1015D00000F0C4F80021084600F0C0F840210020C7
:1015E00000F0BCF8B021002000F0B8F88D210020F8
:1015F00000F0B4F81421002000F0B0F8A121002080
:1016000000F0ACF8C821002000F0A8F8DA21002092
:1016100000F0A4F80021084600F0A0F88121002085
:1016200000F09CF8FF21002000F098F8D92100205C
:1016300000F094F81F21002000F090F8DB2100203A
:1016400000F08CF84021002000F088F8A421002050
:1016500000F084F8FFF787FFAF21002000F07EF84C
:1016600010BD000010B5054B012805D00122202136
:101670001846FFF7A0F910BD0022F8E7000400505B
:1016800010B50446B031C9B2002000F067F8210956
:101690000020103100F062F82107090F002000F04F
:1016A0005DF810BDFFB581B0203A019800240D46C9
:1016B000D6B27F2803D900208D1CEDB20190102BEB
:1016C00029460FD0FFF7DCFF0620464314483518A3
:1016D000295D012000F042F8641CE4B2062CF7D327
:1016E00005B0F0BDFFF7CCFF37010E4E3819315C65
:1016F000012000F033F8641CE4B2082CF6D36D1C12
:10170000E9B20198FFF7BCFF002438198019017A6B
:10171000012000F023F8641CE4B2082CF5D3DFE7C5
:10172000742300089C250008FFB581B017460E46BB
:10173000044600250DE031462046049BFFF7B2FF2A
:101740000834E4B2782C02D90024B61CF6B26D1C21
:10175000EDB27A5D002AEED105B0F0BD70B50D4650
:101760000446FFF7EBFD7820FFF786FDFFF74EFEFE
:10177000002C0CD04020FFF77FFDFFF747FE2846E6
:10178000FFF77AFDFFF742FEFFF70CFE70BD002069
:10179000F1E770470521FF2209070132002803D035
:1017A0008869104388617047886A1043886270476F
:1017B00005494022002803D088691043886170479A
:1017C000886A1043886270470004005010B51021E9
:1017D0000148FFF7E9F810BD0004005010B5802162
:1017E0000148FFF7E1F810BD0004005000B585B0D6
:1017F00014216846FEF799FC10200021009001207A
:1018000001910391029069460248FFF717F805B06D
:1018100000BD00000004005000B585B014216846EA
:10182000FEF783FC802000210090012001910391AC
:10183000029069460248FFF701F805B000BD0000BC
:101840000004005005491022002803D08869104385
:1018500088617047886A10438862704700040050AE
:1018600005498022002803D08869104388617047A9
:10187000886A1043886270470004005000B585B044
:1018800014216846FEF751FC1020009001200190C1
:1018900000200290039069460248FEF7CFFF05B092
:1018A00000BD00000004005000B585B0142168465A
:1018B000FEF73BFC80200090012001900020029068
:1018C000039069460248FEF7B9FF05B000BD00006D
:1018D00000040050704710B5FFF77AF810BD000003
:1018E00010B592B034216846FEF71FFC14210DA8F4
:1018F000FEF71BFC124801680322D2029143C21476
:1019000089180160012102200391102100900491A7
:10191000099040040B90000100240C900A94684642
:10192000FFF7D8F90F200D9003200E900F9410941C
:10193000012111940DA8FFF7ADF812B010BD000001
:101940000070004010480168821511430160C168B1
:101950000E4A1140C16001680D4A11400160816862
:1019600049084900816001680122920491430160A5
:10197000C168FD2212049143C16000210161054943
:10198000C003886070470000001002400C40FF88D0
:10199000F6FFF6FE00ED00E00FB410B504A9074B0A
:1019A00002AA039800F0DEF8044602A9002000F025
:1019B00075FC204610BC08BC04B018479D220008E6
:1019C0002021020C01D010211046020A01D010463D
:1019D0000839020901D01046091F820801D01046BB
:1019E000891E420801D0881E7047081A704702E01D
:1019F00008C8121F08C1002AFAD17047704700209A
:101A000001E001C1121F002AFBD17047F0B51FB4DD
:101A100084B007980699020D014314D04A484B49F7
:101A20001018484305140F9801280E981CD0281A46
:101A3000401C0024464E4749009401910290002822
:101A400014DA474227E00F98012443A3012808D065
:101A5000002104980F9A84600360C260416009B05D
:101A6000F0BD0E98C143F4E74042E2E7074612E0BA
:101A7000F80707D02246334601990098FEF712FC7A
:101A8000019100902246334610461946FEF70AFCA3
:101A900004460E467F10002FEAD10298019B0028D1
:101AA000009A0799069802DAFEF7FCFB01E0FEF7C0
:101AB00061FC04460E460022284BFEF725FE03D8A3
:101AC0000020C043014607E00022254B2046314656
:101AD000FEF736FBFEF7F8FD102409E0002C0ADBC8
:101AE0000A220023FEF7FCFC059B30321A55641EC7
:101AF00002460A43F2D11122641C059B121B1C19D9
:101B00000F9B012B03D0012308430ED10AE00843A9
:101B100004D011200E9000200F9084E70E98151A23
:101B20006D1E0BE00E98824202DD00236D1C03E067
:101B3000824201DA00236D1E002BEED004980F992B
:101B40008260C16030C08AE701FCFFFF104D0000D9
:101B5000000024400000F03F300000000000F0438F
:101B60000000E03FFFB597B00646002518E22528A3
:101B700077D100242746FD49049400E00443761CF5
:101B800032780120203A90400842F7D130782A2854
:101B90000ED00222307801463039092916D804992E
:101BA0000A235943303940181443761C0490F1E756
:101BB000189802C804911890002904DA0120400303
:101BC00004434842049002200443761C30782E28B7
:101BD00014D1042004437078761C2A2809D118985F
:101BE000761C80C8189009E00A214F43303FC7197E
:101BF000761C3078014630390929F5D930786C28BF
:101C000010D006DC4C281AD068280ED06A2817D1CC
:101C100004E0742813D07A2812D110E00120400586
:101C200004430CE00121090501E0032109050C43EF
:101C30007178814203D1012000052418761C761C9E
:101C40003078119066280BD013DC58287DD009DC41
:101C500000287BD04528F6D04628F4D047281AD152
:101C6000A5E118E0632835D0642870D0652812D12A
:101C70009DE170286CD008DC6728F1D069287BD002
:101C80006E280DD06F2806D1BAE073282ED07528A3
:101C900071D0782859D01A9A199990476D1C7EE115
:101CA0006002400F022809D003280DD0042818989C
:101CB00001680DD00D60001D189070E11898EA17AA
:101CC00001680D604A60F6E7189801680D80F2E738
:101CD0000D70F0E718986A4601781172001D18908F
:101CE0000020507202A80090012005E0189802C858
:101CF000189000200091C04361070DD5002101E03C
:101D00000199491C0191B94212DA8142F8DB009A2B
:101D1000515C0029F4D10BE0002101E00199491C3C
:101D200001918142FADB019A0099895C0029F5D181
:101D3000019904981A9B471A21463846199A00F0CF
:101D400097FA0199401945180BE04FE02CE113E098
:101D50004EE0009800990078491C00911A9A199950
:101D600090470198401E0190401CF2D12146384610
:101D70001A9B199A10E137E00A2000210090019186
:101D80006002410F022907D0189A01CA1892C2179F
:101D90009446032908D00AE01898C01DC108C9005C
:101DA00005C91891944607E000B2C2179446042969
:101DB00002D140B2C1178C4600226146944506DA32
:101DC0000A460021404291418C462D2102E0210526
:101DD00004D52B216A461173012103E0E10701D0EC
:101DE0002021F7E7029155E00A200AE0102008E0E0
:101DF000102000900021042004430191082703E0F3
:101E000008200021019100906002410F022907D0B3
:101E1000189A01CA189200229446032908D008E0B3
:101E20001898C01DC108C90005C91891944603E05F
:101E300080B2042900D1C0B200210291210729D526
:101E40001199702906D0009A1021019B4A401A432B
:101E500005D00EE040216A461173012108E0614679
:101E6000014306D030216A46117311995173022142
:101E70000291009A0821019B4A401A430AD1614607
:101E8000014301D1610705D530216A461173012153
:101E90007F1E02911199582904D035A10E910DA9E8
:101EA0000D910DE037A1F9E76146019B009AFEF71D
:101EB00017FB0E9B8C469B5C0D9A521E0D92137065
:101EC00061460143F0D10D9805A9081A2030019010
:101ED000600703D501200004844300E00127019836
:101EE000874201DD381A00E0002001990090411876
:101EF000029809180498401A0490E00306D4214679
:101F00001A9B199A049800F0B3F94519002706E0C6
:101F100003A81A9AC05D199990476D1C7F1C0298FE
:101F20008742F5DBE0030CD521461A9B199A0498E9
:101F300000F09EF9451904E01A9A3020199990474B
:101F40006D1C0099481E00900029F5DC08E00D98F2
:101F50000D990078491C0D911A9A199990476D1C9A
:101F60000199481E01900029F1DC63E10928010074
:101F700030313233343536373839616263646566FF
:101F800000000000303132333435363738394142C1
:101F9000434445460000000000F05AF94519761CFC
:101FA0003078002800D0E2E528461BB0F0BD60077D
:101FB00000D406271898C01DC108C90048680A68DF
:101FC0000831C30FDB071891190001D09CA108E06C
:101FD000210501D59BA104E0E10701D09AA100E011
:101FE0009AA1430011985B08109165280CD006DC7B
:101FF000452809D046281DD0472841D141E0662810
:1020000018D067283CD13CE00021112F01DB1120C2
:1020100000E0781C0191009008A911A8FFF7F6FCD8
:10202000139905910021119A15927F1C129801971E
:10203000009150E00120C00703900120019008A901
:10204000009711A8FFF7E2FC139A14990592002259
:10205000119B009212981593059A0192002901D0C4
:10206000104602E0791C40180190381A01D50198F9
:1020700004E04042401E0090781C0190C01B02907A
:1020800043E0012F00DA01270021112F01DD11208B
:1020900000E038460191009008A911A8FFF7B6FCAE
:1020A00013990591119A00211298159200910197A8
:1020B00021070CD40599B94201DB019900E0019197
:1020C000012904DD159A491E515C302906D0B84219
:1020D00001DA011D05DA0121029115E00199491E7D
:1020E000EDE7002805DC0099411800910199091AD3
:1020F00003E0019A411C914200DD01910099401AD0
:10210000401C02900120C0070390200706D40299CA
:102110000198814202DB0020C04302900020694602
:10212000C87707AF012103980337C907884224D035
:10213000022011902B201290039800280CDA4042C4
:1021400003902D20129007E00A210398FDF7D0FF9D
:1021500030317F1E039039701199481E119000296B
:10216000F2DC03980028EFD1791E129808703078BD
:10217000202108404530BF1E387006A8C01BC01D76
:10218000039010980078002800D001200199411890
:102190000298C0170918039809180498401A401E9D
:1021A0000490E00306D421461A9B199A049800F083
:1021B0005FF8451910980078002803D01A9A1999E9
:1021C00090476D1CE00324D521461A9B199A049868
:1021D00000F04EF845191CE00098002807DB009934
:1021E0000598884203DD1598405C199901E019991A
:1021F00030201A9A904700986D1C401C009002985D
:10220000401E0290002804D11A9A2E201999904756
:102210006D1C0199481E01900029DDDC05E038782D
:102220001A9A7F1C199990476D1C0399481E0390B8
:102230000029F4DC21461A9B199A0498ACE60000A8
:102240002D0000002B000000200000000000000016
:10225000F8B5044600251E461746880404D405E058
:1022600039462020B0476D1C641EF9D52846F8BDBC
:10227000FFB50446002581B01E46C80301D53027AE
:1022800000E02027880404D505E038460399B047CC
:102290006D1C641EF9D5284605B0F0BD0A68531CB4
:1022A0000B6010707047002100E0491C8142FCD394
:1022B0007047002100E0491C8142FCD370470000B8
:1022C0001FB5FEF78DFBFFF70BFBFFF7F1F80122BF
:1022D000D1031A48FEF76FFB0120FFF7C3F9C820AE
:1022E000FEF79EFAFFF75DF9FFF73DF90021102395
:1022F00013A20846FFF718FA102311A202210020AA
:10230000FFF712FA0021102312A20846FFF70CFA79
:10231000FF24F534FEF730FAFEF7B2F802460B461A
:1023200011A16846FFF738FB10236A4602210020FE
:10233000FFF7FAF92046FEF773FAEBE700080050C2
:10234000202020202020202020202020202020208D
:102350000000000054656D706572617475726520CF
:102360002020202000000000252E32662020202082
:10237000200000000000000000000000002F00000E
:1023800000000700070000147F147F1400242A7F38
:102390002A120062640813230036495522500000B7
:1023A0000503000000001C224100000041221C0027
:1023B0000014083E08140008083E0808000000A0A9
:1023C00060000008080808080000606000000020A5
:1023D00010080402003E5149453E0000427F400083
:1023E000004261514946002141454B310018141209
:1023F0007F10002745454539003C4A4949300001D6
:102400007109050300364949493600064949291E24
:102410000000363600000000563600000008142286
:102420004100001414141414000041221408000286
:102430000151090600324959513E007C1211127CAB
:10244000007F49494936003E41414122007F4141D8
:10245000221C007F49494941007F09090901003ECA
:102460004149497A007F0808087F0000417F410008
:10247000002040413F01007F08142241007F40407E
:102480004040007F020C027F007F0408107F003E66
:102490004141413E007F09090906003E4151215E4C
:1024A000007F091929460046494949310001017F49
:1024B0000101003F4040403F001F2040201F003FDF
:1024C0004038403F00631408146300070870080791
:1024D00000615149454300007F41410000552A55A4
:1024E0002A55000041417F0000040201020400401F
:1024F0004040404000000102040000205454547841
:10250000007F484444380038444444200038444460
:10251000487F00385454541800087E0901020018FE
:10252000A4A4A47C007F080404780000447D40003B
:10253000004080847D00007F102844000000417F1F
:102540004000007C04180478007C080404780038FB
:102550004444443800FC242424180018242418FC83
:10256000007C0804040800485454542000043F44EC
:102570004020003C4040207C001C2040201C003CAF
:102580004030403C004428102844001CA0A0A07CFF
:10259000004464544C441414141414140000000037
:1025A000000000000000000000000000000000F833
:1025B00000000000000000333000000000100C0696
:1025C000100C0600000000000000000040C0784031
:1025D000C0784000043F04043F040400007088FCFD
:1025E00008300000001820FF211E0000F008F00055
:1025F000E018000000211C031E211E0000F00888C6
:10260000700000001E2123241927211010160E002F
:10261000000000000000000000000000000000E0DA
:1026200018040200000000071820400000020418EF
:10263000E00000000040201807000000404080F04B
:10264000804040000202010F01020200000000F081
:10265000000000000101011F010101000000000055
:102660000000000080B070000000000000000000CA
:102670000000000000010101010101010000000053
:1026800000000000003030000000000000000000EA
:1026900080601804006018060100000000E01008C7
:1026A0000810E000000F102020100F00001010F89C
:1026B000000000000020203F2020000000700808DB
:1026C000088870000030282422213000003008885B
:1026D000884830000018202020110E000000C02083
:1026E00010F8000000070424243F240000F80888A4
:1026F000880808000019212020110E0000E0108831
:1027000088180000000F112020110E000038080862
:10271000C83808000000003F000000000070880872
:1027200008887000001C222121221C0000E01008F3
:102730000810E0000000312222110F00000000C04C
:10274000C0000000000000303000000000000080E9
:1027500000000000000080600000000000008040D9
:1027600020100800000102040810200040404040F2
:102770004040400004040404040404000008102045
:10278000408000000020100804020100007048088A
:102790000808F0000000003036010000C030C828F2
:1027A000E810E0000718272423140B000000C038AD
:1027B000E0000000203C23020227382008F8888827
:1027C00088700000203F202020110E00C030080833
:1027D00008083800071820202010080008F808080A
:1027E0000810E000203F202020100F0008F8888803
:1027F000E8081000203F20202320180008F88888CF
:10280000E8081000203F200003000000C030080846
:102810000838000007182020221E020008F80800CF
:102820000008F808203F210101213F20000808F896
:10283000080800000020203F2020000000000808B9
:10284000F8080800C08080807F00000008F888C079
:1028500028180800203F20012638200008F808002A
:1028600000000000203F20202020300008F8F80061
:10287000F8F80800203F003F003F200008F830C073
:102880000008F808203F200007183F00E010080863
:102890000810E0000F10202020100F0008F8080892
:1028A0000808F000203F210101010000E0100808A5
:1028B0000810E0000F18242438504F0008F88888CA
:1028C00088887000203F2000030C302000708808AA
:1028D000080838000038202121221C00180808F8B8
:1028E000080818000000203F2000000008F8080039
:1028F0000008F808001F202020201F00087888000A
:1029000000C83808000007380E010000F80800F879
:102910000008F800033C0700073C03000818688023
:102920008068180820302C03032C30200838C80099
:10293000C83808000000203F2000000010080808E8
:10294000C83808002038262120201800000000FE8A
:10295000020202000000007F40404000000C30C036
:1029600000000000000000010638C0000002020262
:10297000FE000000004040407F0000000000040214
:10298000020204000000000000000000000000003F
:10299000000000008080808080808080000202042F
:1029A0000000000000000000000000000000808027
:1029B000808000000019242222223F2008F8008095
:1029C00080000000003F112020110E000000008058
:1029D00080800000000E11202020110000000080E7
:1029E0008088F800000E112020103F200000808019
:1029F00080800000001F222222221300008080F02D
:102A0000888888180020203F202000000000808057
:102A100080808000006B94949493600008F800809C
:102A200080800000203F210000203F2000809898F7
:102A3000000000000020203F202000000000008057
:102A40009898000000C08080807F000008F8000097
:102A500080808000203F24022D302000000808F8EC
:102A6000000000000020203F2020000080808080A7
:102A700080808000203F20003F20003F8080008039
:102A800080800000203F210000203F200000808047
:102A900080800000001F202020201F0080800080F8
:102AA0008000000080FFA12020110E0000000080A7
:102AB00080808000000E112020A0FF808080800098
:102AC0008080800020203F212000010000008080C5
:102AD000808080000033242424241900008080E0BA
:102AE000808000000000001F202000008080000087
:102AF00000808000001F202020103F208080800068
:102B00000080808000010E30080601008080008077
:102B1000008080800F300C030C300F00008080009C
:102B2000808080000020312E0E31200080808000C7
:102B30000080808080818E70180601000080808077
:102B4000808080000021302C222130000000000015
:102B5000807C020200000000003F404000000000B6
:102B6000FF00000000000000FF0000000002027CE7
:102B7000800000000040403F00000000000601010E
:102B80000202040400000000000000000000000039
:102B900000000000010203040607080903040608F8
:102BA0000C10182030000000C82B00080000002086
:102BB00008000000EE190008D02B000808000020D3
:102BC00000040000FE1900080000200000000000C2
:04000005080000C12E
:00000001FF
