:020000040800F2
:1000000058040020D5000008350F0008F10C000846
:1000100000000000000000000000000000000000E0
:10002000000000000000000000000000491200086D
:100030000000000000000000A71100084B1200089B
:10004000E7000008E7000008E7000008E7000008F4
:10005000E7000008E7000008E7000008E7000008E4
:1000600000000000E7000008E7000008E7000008C3
:10007000E7000008E7000008E7000008E7000008C4
:10008000E7000008E7000008E700000800000000A3
:10009000E7000008E7000008E7000008E7000008A4
:1000A000E7000008E7000008E7000008E700000894
:1000B000E7000008E7000008000000000000000062
:1000C0000348854600F03CF800480047D317000875
:1000D000580400200448804704480047FEE7FEE734
:1000E000FEE7FEE7FEE7FEE7B5120008C1000008E4
:1000F00030B50B46014600202022012409E00D46C0
:10010000D5409D4205D31D469540491B2546954047
:1001100040191546521E002DF1DC30BDD2B201E06F
:100120000270401C491EFBD270470022F6E710B552
:1001300013460A4604461946FFF7F0FF204610BD55
:10014000064C0125064E05E0E36807CC2B430C3C2A
:1001500098471034B442F7D3FFF7B6FF20200008C9
:100160004020000870B5044600F0D8F80546601C31
:1001700000D0641C00F0D2F8401BA042FAD370BD3E
:10018000F8B500230124A7E027469F403A4070D0ED
:100190004D68022D01D0122D14D1DD08AD002D18AF
:1001A00000952D6A5E07AC46F50E0F26AE46AE40B2
:1001B0006546B543AC460E697546AE4065462E436E
:1001C000009D2E624D68012D05D0022D03D0112D0A
:1001D00001D0122D16D185680326AC465D00AE46CF
:1001E000AE406546B543AC46CE687546AE40654602
:1001F0002E43866046680D79BE43ED06ED0F9D40A7
:100200003543456006685F000325BD40AE46AE43FA
:100210000D79B446AE07B60FBE4065462E43066064
:10022000C6687546AE438D68BD403543C5604D68B0
:10023000ED0050D52B4D6E6B26436E639E082A4D04
:10024000B6007519AC46AD689E07360F0F27B7404C
:10025000BD4305273F07B84201D100271AE0234FCD
:10026000B84201D1012715E0214FB84202D102273F
:1002700010E030E01F4FB84201D103270AE01E4FC3
:10028000B84201D1042705E01C4FB84201D105272F
:1002900000E00627B7402F436546AF60184D2E6833
:1002A0004F689643FF0300D516432E606E684F6873
:1002B0009643BF0300D516436E60AE684F68964301
:1002C000FF0200D51643AE60EE684F689643BF024A
:1002D00000D51643EE605B1C0A681546DD4000D071
:1002E00052E7F8BD00100240000001400004005039
:1002F00000080050000C005000100050001C00507E
:10030000000401400069084000D001207047002A25
:1003100001D0816170478162704700000148006828
:10032000704700001000002002480168491C01606D
:10033000704700001000002010B508480024016834
:10034000402211430160204600F00AF8002801D045
:10035000012401E000F01CF8204610BD00200240FE
:1003600070B5054609487D210024C9000068FFF7E3
:10037000BFFE00F025FB002801D0012404E000228C
:100380002946501E00F010F8204670BD14000020D1
:100390000448416B012211434163816B0204114304
:1003A000816370470010024010B500F0C5FD10BD1C
:1003B000F8B50E4605007DD053480068C007C00F51
:1003C000B0420AD2504801684908490031430160EF
:1003D0000068C007C00FB04271D128784B4C80072D
:1003E00005D5E068F0218843A9680843E0602878D3
:1003F000C00752D06868022817D0032818D0216897
:10040000012818D08905002959DAE168890889008E
:100410000143E160FFF782FF69680746022912D0B5
:1004200003291CD0012926D033E021688903EAE79B
:1004300021688901E7E74907E5E7FFF76FFFC11B7F
:100440003348814223D8E0680007800F0228F4D1A6
:1004500023E0FFF763FFC11B2D48814217D8E068F6
:100460000007800F0328F4D117E0FFF757FFC11BE7
:10047000274881420BD8E0680007800F0128F4D19B
:100480000BE0FFF74BFFC11B2148814201D903203C
:10049000F8BDE0680007800FF3D11B480168C90769
:1004A000C90FB1420DD901684908490031430160C3
:1004B000006800E003E0C007C00FB04201D0012097
:1004C000F8BD2878400706D5E0680721090288436F
:1004D000E9680843E0602878000707D5E06807214D
:1004E000C90288432969C9000843E06000F016F892
:1004F000E168084A0906090F515CC84006490860CE
:100500000020FFF72DFFF8BD002002400010024040
:1005100088130000042000081400002010B5184AB9
:10052000D1680C20084004280BD0082810D00C28D3
:1005300010D050680004410F0120C003491C8840BE
:1005400010BD1068C00601D50E4810BD0E4810BD84
:100550000E4810BD88020E4B000F185C0902D368CC
:10056000890F491CDB0301D5084A05E01268D20651
:1005700001D5044A00E0044A5043FFF7B9FD10BD1D
:100580000010024000093D000024F40000127A002F
:1005900014200008FEB505007ED0FE4CE7680C2054
:1005A000E66807400120000406402878C00747D0CD
:1005B000082F05D00C2F0AD101200004864206D155
:1005C000206880033CD568680028E5D038E0012029
:1005D00069680004814203D121680143216011E070
:1005E000052301221B0492049942216802D1114380
:1005F0002160F1E78143216021680140009120687A
:1006000090432060686800280DD0FFF787FE0090B7
:1006100005E0FFF783FE0099401A64287ED8206821
:100620008003F6D50CE0FFF779FE009005E0FFF7B8
:1006300075FE0099401A6428F0D820688003F6D42B
:10064000287880075CD5E868810604D522682021D7
:100650000A43226088430923042F0DD00C2F01D1B7
:10066000002E09D000283BD0216899430143216026
:10067000FFF754FE064627E02168490701D5002808
:100680008AD061681F22120291432A691202114323
:1006900061602168994300E08EE101432160FFF72A
:1006A0003DFFE16809060A0FBB49895CC840BB49A8
:1006B00008600020FFF754FE002873D120E0FFF708
:1006C0002DFE801B0228A9D820684007F7D5606856
:1006D0001F210902884329690902084360600FE06D
:1006E0002068400840002060FFF718FE064604E03E
:1006F000FFF714FE801B022890D820684007F7D42B
:100700002878C00660D5002F0DD0A86900284AD0EF
:100710002068FF2101310843206000E0C4E0FFF7BA
:10072000FDFD06462CE02068800502D5A86900285A
:10073000A6D06068072149038843296A084360609E
:100740006068297F0002000A090608436060286A81
:10075000410B0120C003491C8840E16809060A0FCB
:100760008D49895CC8408D4908600020FFF7F8FD7D
:10077000002817D128E0FFF7D1FD801B0228A2D85E
:1007800020688005F7D56068072149038843296AF6
:10079000084360606068297F0002000A0906084378
:1007A000606011E0E1E02168FF20013081432160B9
:1007B000FFF7B4FD064604E0FFF7B0FD801B0228FA
:1007C00072D820688005F7D42878754E000724D5A4
:1007D00068690028306910D0012108433061FFF7B3
:1007E0009DFD009005E0FFF799FD0099401A022851
:1007F0005AD830698007F6D50FE0400840003061D4
:10080000FFF78CFD009005E0FFF788FD0099401A86
:10081000022849D830698007F6D42878400765D582
:1008200000200290A06BC00006D4A06B0121090734
:100830000843A063012002905A480168C90511D4F9
:100840000168821511430160FFF768FD009005E023
:10085000FFF764FD0099401A642825D851480068C4
:10086000C005F5D5FF20AA680130824203D1316965
:100870000143316111E001218902002A07D00523DB
:100880001B029A4203D132690A433261EFE73269AF
:1008900082433261306988433061A86800280FD0F4
:1008A000FFF73CFD009007E05EE0FFF737FD0099A1
:1008B000411A3D48814257D830698005F5D50DE091
:1008C000FFF72CFD009006E0FFF728FD0099411A84
:1008D0003548814248D830698005F5D4029800280F
:1008E00004D0A16B012000078143A163686A00283E
:1008F00064D00C2F3ED0012636060228206805D091
:10090000B0432060FFF70AFD05462FE0B0432060AA
:10091000FFF704FD074604E0FFF700FDC01B0228B7
:1009200022D820688001F7D4E96AA86AE2680843FF
:10093000296BFD231B049A4311430843E0602068A0
:1009400030432060FFF7EAFC054604E0FFF7E6FCD1
:10095000401B022808D820688001F7D52EE0FFF759
:10096000DDFC401B022801D90320FEBD2068800168
:10097000F5D423E00128F8D0E06801210904AA6A2F
:100980000140914218D10F218904EA6A0140914245
:1009900012D10BE0001002400420000814000020D7
:1009A00040100240007000408813000003218905B8
:1009B0000840296B884201D00120FEBD0020FEBD09
:1009C000094910B5401E884201D9012010BD074CCD
:1009D00060610321081F00F0AFFA0020A06107202A
:1009E0002061002010BD0000FFFFFF0000E000E0DC
:1009F000F0B502462032137E012B15D00127177661
:100A00000223537605686C68AB687026B4430E68A1
:100A1000496826438024A34319436E6000688160BF
:100A2000577600201076F0BD0220F0BD70B50400AE
:100A300005D025462035687E002802D006E001203A
:100A400070BD00202876204600F00AF80220687663
:100A5000211D206800F058FC01206876002070BD40
:100A600000680449884204D10348816B0222114383
:100A7000816370470004004000100240F8B505464D
:100A800004462035287E012817D001262E76022024
:100A90006876226890687727FF23B8431B02984343
:100AA00090600A68502A31D00EDC202A4BD006DC38
:100AB000002A48D0102A3AD145E00220F8BD302A59
:100AC00041D0402A33D136E0602A27D0702A12D094
:100AD00001200003121A2AD0824228D1CB684A682A
:100AE0008968206800F051FC206881680122920327
:100AF000114381601BE0CB684A688968206800F078
:100B000044FC216888683843886010E0CA684968F6
:100B1000206800F0B4FC5021206806E0CA684968EB
:100B2000206800F0BDFC6021206800F039FC6E7682
:100B300000202876F8BDCA684968206800F09FFC4C
:100B400040212068F1E711462068EEE710B586B035
:100B5000044614216846FFF7E8FA0C4920688842E9
:100B600012D10B49CA6A02200243CA62C96A0190C3
:100B7000014005910121009102910321039104900C
:100B800069460448FFF7FCFA06B010BD00040040B7
:100B90000010024000040050F8B506460446203616
:100BA000307E0D4601280DD001203076022070766F
:100BB0000427002A08D0042A16D0082A2AD00C2A92
:100BC0004DD137E00220F8BD206800F0F1FB20682D
:100BD000816908221143816120688169B94381617B
:100BE00020688169EA6812E0206800F0F9FB20685B
:100BF00082690121C9020A43826120688169012258
:100C000092029143816120688169EA68120211436E
:100C1000816124E0206800F0FCFB2068C2690821A3
:100C20000A43C2612068C169B943C1612068C169D2
:100C3000EA6812E0206800F007FC2068C169012220
:100C4000D2021143C1612068C269012189028A432D
:100C5000C2612068C169EA6812021143C1610120C2
:100C6000707600203076F8BD70B5040005D02546BA
:100C70002035687E002802D006E0012070BD0020EB
:100C80002876204600F00AF802206876211D2068A8
:100C900000F03AFB01206876002070BD704710B567
:100CA00004460068012200F063FB20688168490760
:100CB000490F062903D00168012211430160002079
:100CC00010BD000010B504460068002200F050FB83
:100CD0002068016A054A114203D1016849084900A8
:100CE0000160012020346076002010BD1111000049
:100CF000FEE770B50446082517E0002000F054FA1E
:100D0000022000F060FDE009C00100F079FA022045
:100D100000F059FD6006040E022000F054FD012091
:100D200000F042FA022000F04EFD28466D1EEDB2A2
:100D30000028E2D100F038FA022000F044FD70BD36
:100D400010B5012000F05CFA022000F03CFD01200B
:100D500000F02AFA022000F036FD002000F050FAE0
:100D6000022000F030FD002000F01EFA022000F00A
:100D70002AFD10BD10B5002000F016FA022000F088
:100D800022FD002000F03CFA022000F01CFD0120B2
:100D900000F00AFA022000F016FD012000F030FAFF
:100DA000022000F010FD10BD10B5052400F012FA6D
:100DB000022000F008FD012000F0F6F9022000F00A
:100DC00002FD06E0641EA4B2022000F0FCFC002C30
:100DD0000DD000F0F7F90028F4D100F01FFA002040
:100DE00000F0E2F9022000F0EEFC002010BD00F05F
:100DF00015FAFFF7BFFF012010BD0000F0B587B066
:100E000014216846FFF791F92648C26A04210A4373
:100E1000C262C26A0A400592C26A02210A43C262E1
:100E2000C26A0A400592C16A01252943C162C06AAB
:100E3000EE0328400590002231461B48FFF767FA71
:100E40002F020520002239460007FFF760FA002232
:100E500030211648FFF75BFAA803002400900194A4
:100E6000694602941048FFF78BF9029469460E48D0
:100E7000009601950394FFF783F9052002946946D3
:100E80000007009701950394FFF77AF9302000904E
:100E900002946946019503940448FFF771F907B07D
:100EA000F0BD000000100240000800500004005097
:100EB00010B58AB00024049405940694079408940D
:100EC0001B4809940094019402941849039401600A
:100ED0001821846041607D21C9000461C1608021C6
:100EE0004161FFF7A3FD01200003049004A910480D
:100EF000FFF7C4FD0E48FFF7B7FE102008A911C187
:100F00000B480839FFF774FD60200090FF20F53092
:100F10000190042003900294082269460448FFF7D8
:100F20003BFE0348FFF712FE0AB010BD000400406C
:100F300018000020704700008307FF22DB0E9A4054
:100F40008907090E994000280BDA0007000F0838BE
:100F5000830808489B001818C36993430B43C36177
:100F60007047830804489B001B1818689043084387
:100F70001860704700ED00E000E400E070B5002468
:100F80002046B030C1B2002000F0F2F8002108463F
:100F900000F0EEF81021002000F0EAF80025002112
:100FA000012000F0E5F86D1CEDB2802DF7D3641C34
:100FB000E4B2042CE4D370BD10B5AE21002000F0E3
:100FC000D7F8D521002000F0D3F88021002000F0D0
:100FD000CFF8A821002000F0CBF81F21002000F05E
:100FE000C7F8D321002000F0C3F80021084600F024
:100FF000BFF84021002000F0BBF8B021002000F035
:10100000B7F88D21002000F0B3F81421002000F083
:10101000AFF8A121002000F0ABF8C821002000F0BB
:10102000A7F8DA21002000F0A3F80021084600F01C
:101030009FF88121002000F09BF8FF21002000F0A4
:1010400097F8D921002000F093F81F21002000F02C
:101050008FF8DB21002000F08BF84021002000F009
:1010600087F8A421002000F083F8FFF787FFAF2165
:10107000002000F07DF810BD10B5054B012805D00B
:10108000012220211846FFF742F910BD0022F8E79F
:101090000004005010B50446B031C9B2002000F081
:1010A00067F821090020103100F062F82107090FCC
:1010B000002000F05DF810BDFFB581B0203A019826
:1010C00000240D46D6B27F2803D900208D1CEDB236
:1010D0000190102B29460FD0FFF7DCFF0620464376
:1010E00014483518295D012000F042F8641CE4B270
:1010F000062CF7D305B0F0BDFFF7CCFF37010E4E3D
:101100003819315C012000F033F8641CE4B2082C7B
:10111000F6D36D1CE9B20198FFF7BCFF0024381923
:101120008019017A012000F023F8641CE4B2082C35
:10113000F5D3DFE7EC170008141A0008FFB581B0FB
:1011400017460E46044600250DE031462046049B16
:10115000FFF7B2FF0834E4B2782C02D90024B61CA1
:10116000F6B26D1CEDB27A5D002AEED105B0F0BD8D
:1011700070B50D460446FFF7E3FD7820FFF7B9FD93
:10118000FFF712FE002C0CD04020FFF7B2FDFFF756
:101190000BFE2846FFF7ADFDFFF706FEFFF7EAFD61
:1011A00070BD0020F1E770470521FF2209070132D9
:1011B000002803D08869104388617047886A10430B
:1011C0008862704710B510210148FFF79BF810BDE9
:1011D0000004005000B585B014216846FEF7A5FF55
:1011E0001020002100900120019103910290694696
:1011F0000248FEF7C5FF05B000BD00000004005026
:1012000005491022002803D088691043886170477F
:10121000886A1043886270470004005000B585B0AA
:1012200014216846FEF781FF1020009001200190F4
:1012300000200290039069460248FEF7A1FF05B026
:1012400000BD000000040050704710B5FFF76CF8B7
:1012500010BD000010B592B034216846FEF765FF5E
:1012600014210DA8FEF761FF114801680322D20284
:101270009143C214891801600121022003911021B9
:10128000009004910990002440050C900A940B945E
:101290006846FFF77FF90F200D9003200E900F9402
:1012A0001094012111940DA8FFF782F812B010BD1F
:1012B0000070004010480168821511430160C16848
:1012C0000E4A1140C16001680D4A114001608168F9
:1012D000490849008160016801229204914301603C
:1012E000C168FD2212049143C160002101610549DA
:1012F000C003886070470000001002400C40FF8867
:10130000F6FFF6FE00ED00E0F0B502680124A40748
:10131000144D154E154FA04205D0A84203D0B0423F
:1013200001D0B84204D11346702293434A681A434D
:10133000A04205D0A84203D0B04201D0B84204D1A7
:1013400003231B029A43CB681A4380239A430B69F9
:101350001A4302608A68C2620968816201214161A0
:10136000F0BD0000000400400008014000140140EE
:1013700010B5CB06DB0E0121046A99408C43046250
:10138000016A9A401143016210BD30B58468FF259F
:101390002D021B021343AC430B432343836030BD38
:1013A000826870239A430A4307210A438260704788
:1013B00030B5026A520852000262026A45688369C7
:1013C0007024A3439C080B68A40023430224A24377
:1013D0008C6845601443836149684163046230BD91
:1013E00030B5026A10239A430262036A4568826933
:1013F00073242402A2430C68240214432022934342
:101400008A68456012011A438461496881630262F7
:1014100030BD30B5026AFF2301339A430262026A8B
:101420004568C3697024A3439C080B68A400234348
:1014300001246402A2438C68456024021443C36102
:101440004968C163046230BD30B5026A01231B03E1
:101450009A430262036A4568C26973242402A24364
:101460000C68240214430122520393438A684560A6
:1014700012031A43C46149680164026230BD30B589
:10148000036A046A6408640004628469F025AC435A
:10149000120122430A24A3430B438261036230BD3D
:1014A00030B5036A1024A34303628469036A0F25DD
:1014B0002D031203AC432243A024A3430901194383
:1014C0008261016230BD000010B50122D1031148D4
:1014D000FEF71DFF0120FFF7CFFDC820FEF742FEFB
:1014E000FFF76AFDFFF74AFD002110230AA2084614
:1014F000FFF724FE102308A202210020FFF71EFEA2
:101500000021102309A20846FFF718FE00F058F842
:1015100010BD0000000800502020202020202020A6
:1015200020202020202020200000000050574D20A7
:10153000205445535420202020202020000000006B
:101540001FB500F049F84068804700F045F8007882
:10155000002824D100F040F80121114C01702078BE
:101560000A210A30C0B2207048430E49C8630821DE
:101570000D48FFF794FB20786E2805D100202070DD
:1015800008210948FFF79EFB227808A1684600F071
:1015900049F810236A4602210020FFF7CFFD1FBD46
:1015A0000C000020000400401800002050574D207F
:1015B0003A20256420202020202020202000000028
:1015C00004480349416001210170002141707047C6
:1015D000E1150008040000200048704704000020C6
:1015E00010B5012189030D48FEF78CFE0C494B789C
:1015F000002B08D00022012B0AD0022B02D1012897
:1016000000D14A7010BD0028FCD10120487010BDE7
:101610000028FCD1022048700A7010BD000800505C
:10162000040000200FB410B504A9074B02AA0398C8
:1016300000F01CF8044602A9002000F0BFF8204684
:1016400010BC08BC04B01847BD17000802E008C869
:10165000121F08C1002AFAD170477047002001E02C
:1016600001C1121F002AFBD170470000FFB58DB0E9
:101670000446002506E025280AD0109A0F999047C5
:10168000641C6D1C20780028F5D1284611B0F0BDEF
:1016900000270121484A009700E00743641C237893
:1016A0000846203B98401042F7D120782E2817D1C9
:1016B000042007436078641C2A280CD10E98641C0F
:1016C00002C800910E900BE000990A225143303974
:1016D0004018641C00902078014630390929F3D95C
:1016E00020780028D1D0642808D0692806D0752831
:1016F0001ED0109A0F9990476D1C5BE00A200E993E
:10170000019001C90E91002802DA40422D2102E029
:10171000390504D52B216A461172012103E0F9072E
:1017200004D02021F7E70BAE0B910DE00021FAE782
:101730000A200E99019001C90E91F7E70199FEF771
:10174000D7FC3031761E31700028F7D103A8801BFA
:1017500020300190780701D5009801E00120009029
:101760000199884201DD401A00E000200027009026
:1017700006E002A8109AC05D0F9990476D1C7F1C6F
:101780000B988742F5DB04E0109A30200F999047C0
:101790006D1C0099481E00900029F5DC05E03078AA
:1017A000109A761C0F9990476D1C0199481E019064
:1017B0000029F4DC641C65E7092801000A68531C51
:1017C0000B6010707047002100E0491C8142FCD37F
:1017D0007047FEF7B1FDFFF73DFDFFF70FFBFFF789
:1017E00067FBFFF771FEFFF7ABFEFCE700000000B0
:1017F00000000000002F0000000007000700001498
:101800007F147F1400242A7F2A12006264081323A5
:1018100000364955225000000503000000001C223C
:101820004100000041221C000014083E081400087A
:10183000083E0808000000A060000008080808082A
:10184000000060600000002010080402003E5149C2
:10185000453E0000427F4000004261514946002160
:1018600041454B31001814127F100027454545397A
:10187000003C4A49493000017109050300364949D5
:10188000493600064949291E00003636000000008E
:1018900056360000000814224100001414141414D9
:1018A0000000412214080002015109060032495982
:1018B000513E007C1211127C007F49494936003E9E
:1018C00041414122007F4141221C007F4949494159
:1018D000007F09090901003E4149497A007F080853
:1018E000087F0000417F4100002040413F01007F10
:1018F00008142241007F40404040007F020C027FDC
:10190000007F0408107F003E4141413E007F0909ED
:101910000906003E4151215E007F09192946004613
:10192000494949310001017F0101003F4040403FEA
:10193000001F2040201F003F4038403F0063140834
:10194000146300070870080700615149454300000F
:101950007F41410000552A552A55000041417F0032
:101960000004020102040040404040400000010227
:101970000400002054545478007F48444438003810
:101980004444442000384444487F00385454541898
:1019900000087E0901020018A4A4A47C007F0804AA
:1019A00004780000447D4000004080847D00007F7A
:1019B000102844000000417F4000007C0418047897
:1019C000007C0804047800384444443800FC242493
:1019D00024180018242418FC007C0804040800487B
:1019E0005454542000043F444020003C4040207C9C
:1019F000001C2040201C003C4030403C004428108B
:101A00002844001CA0A0A07C004464544C4414143E
:101A10001414141400000000000000000000000076
:101A200000000000000000F800000000000000338B
:101A30003000000000100C06100C06000000000032
:101A40000000000040C07840C0784000043F04041B
:101A50003F040400007088FC08300000001820FFDC
:101A6000211E0000F008F000E018000000211C0317
:101A70001E211E0000F00888700000001E21232493
:101A80001927211010160E000000000000000000B1
:101A900000000000000000E0180402000000000741
:101AA0001820400000020418E00000000040201848
:101AB00007000000404080F0804040000202010F1B
:101AC00001020200000000F0000000000101011FFF
:101AD00001010100000000000000000080B0700063
:101AE00000000000000000000000000000010101F3
:101AF0000101010100000000000000000030300082
:101B0000000000000000000080601804006018065B
:101B10000100000000E010080810E000000F102095
:101B200020100F00001010F8000000000020203FDF
:101B30002020000000700808088870000030282469
:101B4000222130000030088888483000001820200A
:101B500020110E000000C02010F80000000704242F
:101B6000243F240000F80888880808000019212074
:101B700020110E0000E0108888180000000F1120CE
:101B800020110E0000380808C83808000000003F87
:101B9000000000000070880808887000001C2221E6
:101BA00021221C0000E010080810E0000000312293
:101BB00022110F00000000C0C00000000000003033
:101BC0003000000000000080000000000000806085
:101BD0000000000000008040201008000001020406
:101BE00008102000404040404040400004040404ED
:101BF00004040400000810204080000000201008A9
:101C000004020100007048080808F00000000030DD
:101C100036010000C030C828E810E000071827246B
:101C200023140B000000C038E0000000203C230219
:101C30000227382008F8888888700000203F20207C
:101C400020110E00C03008080808380007182020AE
:101C50002010080008F808080810E000203F2020A5
:101C600020100F0008F88888E8081000203F202086
:101C70002320180008F88888E8081000203F20007A
:101C800003000000C03008080838000007182020B2
:101C9000221E020008F808000008F808203F210171
:101CA00001213F20000808F8080800000020203F1C
:101CB0002020000000000808F8080800C08080808C
:101CC0007F00000008F888C028180800203F200185
:101CD0002638200008F8080000000000203F2020DF
:101CE0002020300008F8F800F8F80800203F003FF6
:101CF000003F200008F830C00008F808203F20000E
:101D000007183F00E01008080810E0000F1020201E
:101D100020100F0008F808080808F000203F2101F3
:101D200001010000E01008080810E0000F1824244A
:101D300038504F0008F8888888887000203F2000BD
:101D4000030C302000708808080838000038202173
:101D500021221C00180808F8080818000000203F7D
:101D60002000000008F808000008F808001F2020E4
:101D700020201F000878880000C8380800000738B5
:101D80000E010000F80800F80008F800033C070006
:101D9000073C0300081868808068180820302C036E
:101DA000032C30200838C800C83808000000203F45
:101DB0002000000010080808C83808002038262134
:101DC00020201800000000FE020202000000007F38
:101DD00040404000000C30C0000000000000000146
:101DE0000638C00000020202FE0000000040404031
:101DF0007F00000000000402020204000000000056
:101E000000000000000000000000000080808080D2
:101E100080808080000202040000000000000000BA
:101E20000000000000008080808000000019242253
:101E300022223F2008F8008080000000003F11208F
:101E400020110E000000008080800000000E112094
:101E500020201100000000808088F800000E112072
:101E600020103F200000808080800000001F222280
:101E700022221300008080F0888888180020203FEC
:101E8000202000000000808080808000006B9494FF
:101E90009493600008F8008080800000203F2100BB
:101EA00000203F2000809898000000000020203F84
:101EB00020200000000000809898000000C0808072
:101EC000807F000008F8000080808000203F24020E
:101ED0002D302000000808F8000000000020203FFE
:101EE000202000008080808080808000203F2000B3
:101EF0003F20003F8080008080800000203F210044
:101F000000203F200000808080800000001F2020F3
:101F100020201F00808000808000000080FFA12022
:101F200020110E000000008080808000000E112033
:101F300020A0FF80808080008080800020203F21C2
:101F40002000010000008080808080000033242475
:101F500024241900008080E0808000000000001F21
:101F6000202000008080000000808000001F2020D2
:101F700020103F20808080000080808000010E3093
:101F80000806010080800080008080800F300C03F4
:101F90000C300F0000808000808080000020312EF7
:101FA0000E312000808080000080808080818E70D3
:101FB0001806010000808080808080000021302C85
:101FC0002221300000000000807C0202000000009E
:101FD000003F404000000000FF0000000000000043
:101FE000FF0000000002027C800000000040403F33
:101FF00000000000000601010202040400000000CD
:1020000000000000000000000000000001020304C6
:1020100006070809030406080C1018203000000009
:102020004020000800000020180000004C160008A6
:102030005820000818000020400400005C1600082A
:102040000000000000000000000000000000000090
:08205000000000000000200068
:04000005080000C12E
:00000001FF
