:020000040800F2
:1000000018080020D50000080D2A00089F250008C8
:1000100000000000000000000000000000000000E0
:10002000000000000000000000000000652D000836
:1000300000000000000000006D2C0008672D000883
:10004000E7000008E7000008E7000008E7000008F4
:10005000E7000008E7000008E70000086B08000858
:100060000000000019080008E7000008290800083F
:10007000D9070008E7000008E7000008E7000008CB
:10008000E7000008452E0008E70000080000000017
:10009000E7000008E7000008E7000008E7000008A4
:1000A000E7000008E7000008E7000008E700000894
:1000B000B5340008E7000008000000000000000060
:1000C0000348854600F076FB00480047E5460008F7
:1000D000180800200448804704480047FEE7FEE770
:1000E000FEE7FEE7FEE7FEE7F12D0008C10000088D
:1000F00030B50B46014600202022012409E00D46C0
:10010000D5409D4205D31D469540491B2546954047
:1001100040191546521E002DF1DC30BDF0B51FB45C
:100120000646002082B005464024019100901BE065
:10013000019922460F46304600F078FA049A059B52
:10014000801A994110D310461946224600F05EFAF3
:10015000361A8F410197224601200021009F00F0AE
:1001600055FA38184D4100902046641E0028DFDC07
:10017000019B00982946324607B0F0BDF0B51FB488
:1001800086B000200090019002900698069980B2F7
:1001900004900798090C02040014114307900027EB
:1001A000089D099806913E463C4603900398A9B2E3
:1001B0000204000C039004982D0C154348430021C1
:1001C000224600F023FAC719714110340E46402C24
:1001D000ECDB3846029A00F019FA009A019B80186D
:1001E0000090594102980191103002904028CCDBD8
:1001F00000980BB0F0BD03460B439B0703D009E00A
:1002000008C9121F08C0042AFAD203E00B78037051
:10021000401C491C521EF9D27047D2B201E0027054
:10022000401C491EFBD270470022F6E710B513466A
:100230000A4604461946FFF7F0FF204610BD421C4F
:100240000178401C0029FBD1801A7047F0B50746A1
:100250000846584087B0C00F049048000E46590029
:1002600040084908BC1A884105D2384631461E4626
:1002700017460B4602465800400810434CD0300D3C
:10028000039040055900400D490D0590401A029019
:10029000402872DA18030121000B09050843019078
:1002A00004980092002805D001995242002088410C
:1002B00000920190029840210A1A0199009800F0DA
:1002C000A5F905460C466B4607CB00F0C0F9C019EE
:1002D0007141039A0E0D0023D71756401A467A40F3
:1002E000164344D0049A002A2DD0029A012A039A78
:1002F00015DC1205C01A914101263605001C71411A
:10030000D20F059ED2070093019202962A462346F9
:1003100000F0FEF907B0F0BD38463146FAE71605A1
:10032000224A0F46B218C01AB74101210905001C24
:100330004F4100187F41114618187941E20F1043D0
:100340006D19644113E0E2076D0815436408C207A4
:100350001443039A01261205C01A91413605001C68
:100360007141CE07400830434908C01851412A4620
:10037000234600F0C0F9CDE7FFE7049801224000D2
:10038000C117121A00238B4104983146C417381A3A
:10039000A141EEE730B40124E407634030BC55E7E7
:1003A00030B40124E407614030BC4FE70000E0FFB7
:1003B000F0B51FB488B00B990998002448400999FA
:1003C000C00F490049080991C0070B9900904900E6
:1003D00049080B9109990898A64608431CD00B9927
:1003E0000A98084318D0099801244000420D48009B
:1003F000410D099824050003000B204309900B9838
:100400000003000B20430B9050181C494018002299
:1004100001901446104605E0002001460DB0F0BDE5
:10042000032801DA034600E003239C46C11A0AAE02
:100430000AE05F0008ADED5B4F00F75B7D430027EE
:10044000AA187C41491C5B1E6145F2DD410004ABEA
:100450005A522104120C0A43240C401C0828DFDBEA
:10046000019802900099704601910090059B049AB2
:100470000799069800F04CF9D0E700000DFCFFFF4B
:10048000F0B50C465C4085B0E40FE40703944C00E3
:100490000026640859009446490802460296224301
:1004A00021D062460A431ED06200570D4A000E0357
:1004B0002303550D012402462C492405781B1B0BF0
:1004C000360B401823432643614600901C46501AC1
:1004D000B44103D30098401C009002E092180098A9
:1004E0005B41002803DA0020014605B0F0BD002082
:1004F000012109050746864611E064461D46141B86
:10050000B54106D36546521BB341744607430C43BD
:10051000A646CD0740084908284392185B41054686
:100520000D43EAD11046184313D060461946504097
:100530007140084306D06046101AB34106D201222A
:10054000002306E000220123DB0702E00122D24360
:100550005310009874460105381C6141029C039DAC
:100560000019694100F0C7F8BFE70000FD03000073
:1005700010B500229623114600F084F810BD00004B
:100580000EB505490291002100910A460B460191E2
:1005900000F0BEF803B000BD33040000C20F4100FC
:1005A00040020123400ADB05D207090EC0187F294B
:1005B00001DA00207047962903DC9623591AC840B7
:1005C00001E096398840002AF4D04042704700008C
:1005D0004A0009030123090B1B051943094B10B5F8
:1005E000520D9A4201DA002010BD064B34339A4274
:1005F00003DC9A1A00F01AF810BD0349511888401C
:1006000010BD0000FF030000CDFBFFFF10B5202A46
:1006100004DB0146203A9140002010BD9140202388
:100620009C1A0346E3401943904010BD10B5202AA0
:1006300004DB0846203AD040002110BD0B46D340D1
:10064000D0402024A21A91400843194610BD10B58D
:10065000202A06DBCB170846203A1041C1170B436E
:1006600006E00B461341D0402024A21A91400843D3
:10067000194610BD002904DA401C490001D1400888
:100680004000704770B40024050C05D1102400040C
:1006900002D1002921D01124050E01D10002083415
:1006A000050F01D10001241D850F01D18000A41C7C
:1006B000002801DB4000641C002908D020252E1BE7
:1006C0000D46F540A14000D0012129430843010611
:1006D0001B1B000ADB1D02D5002070BC7047DB0528
:1006E000181880180029F8DA401C4900F5D170BCB0
:1006F00040084000704710B5002B08DA0024401C69
:10070000614192185B411A4301D14008400010BD7D
:10071000F0B51FB482B005460C0003D0084602F0C5
:10072000E7FE02E002F0E4FE20300246009021469F
:100730002846FFF76BFF049B059A04460F461843B3
:100740001143084314D0184610431BD00098402191
:100750000A1A18460599FFF769FF05460E46009AE2
:1007600005990498FFF752FF084305D0012004E0E3
:100770002046394607B0F0BD0020C11705430E439F
:100780002C43374300990E986305401A7905E40A13
:1007900000220C43FD0A0A3002D500200146E9E799
:1007A0000105101969410C9C0D9D00196941FFF765
:1007B000A2FFDFE7064C0125064E05E0E36807CC03
:1007C0002B430C3C98471034B442F7D3FFF77CFC22
:1007D0003C5500085C55000810B5024800F09CF834
:1007E00010BD00000402002038B50446094808493D
:1007F0000068FFF77DFC604300900098002805D05A
:100800000098401E009000980028F9D138BD0000E3
:1008100040420F001401002010B5024800F0D2FA47
:1008200010BD00008402002010B5024800F0CAFA92
:1008300010BD0000AC03002030B4446C1C252C40DB
:100840000125A540046C6560046863608368102B13
:1008500005D0036899600068C26030BC70470368C7
:100860009A600068C16030BC704710B501208002FA
:1008700000F0A8FB10BD7047F8B50C4605464035A2
:10088000297C01290DD00121297401688A68520749
:1008900009D5416D202211434165002028740120B3
:1008A000F8BD0220F8BD194B6268D8054710184EF4
:1008B0009A4215D08A6A23685B035B0B1A438A62EB
:1008C0002168490305D5B1680143B1600A20FFF7EB
:1008D0008BFF2068800315D5B0683843B06011E005
:1008E0008A6A23685B035B0B9A438A622168490327
:1008F00002D5B1688143B1602068800302D5B06839
:10090000B843B06000202874F8BD0000011000005A
:10091000002701407047704770B5044620680168A1
:10092000490702D54168490705D40168090734D54C
:100930004168090731D5616DC90604D4616D012292
:10094000520211436165C1680C250905890F002910
:100950001BD12021095D002917D10168090714D591
:10096000816801224907002908DB4168A9434160E9
:10097000606D110288431043606506E0606D2021C0
:1009800008436065A06D1043A0652046FFF7C2FFD5
:10099000A069012801D02068056020680168090667
:1009A0000DD5406800060AD5606D01210904084391
:1009B0006065204600F002F9216880200860206808
:1009C0000168C90613D54168C90610D5216B1025E9
:1009D000002902D0C168C90707D0A16D02221143C6
:1009E000A16505602046FFF796FF2068056070BD91
:1009F00070B50446002C06D0606D264600254036B2
:100A0000002802D006E0012070BDA565357420469F
:100A100000F0D6F8606DC00603D4206881684907ED
:100A200006D5606D1021084360653574012070BDE6
:100A3000616DFF2201329143022211436165816899
:100A40005C4A8907890F012902D10168C9072BD1A6
:100A5000032361689B07994205D05B42994202D00B
:100A60005B00994209D10169890089080161206808
:100A700001696368194301610CE001698900890813
:100A8000016190680F2189048843906090686168D3
:100A9000084390602068C16818239943C1602068AA
:100AA000C168A3681943C160906801214906884361
:100AB00090609068A18E4906084390602068816824
:100AC000C90004D4816801221207114381602068A3
:100AD000C168394A1140C1602069E268022825D006
:100AE00000200243204620300178037B49035B004D
:100AF00019430A43216B0A43A16989030A43E16947
:100B0000C9030A432168CB681A43CA60616A0A466E
:100B1000FF3AC23A05D0A26A11432268D36819434A
:100B2000D16042780121012A02D00BE00420D8E7ED
:100B30000078002823D0606D202210436065A06DEE
:100B40000843A065E06B012820D020680169C9072F
:100B500003D0016949084900016120684169C90859
:100B6000C900416120684169A26B11434161A565DB
:100B7000606D80088000401C6065002070BD2068AA
:100B8000C26801231B041A43C260DBE720680269C4
:100B9000FF239B009A43026120680269236CA66CC4
:100BA0001A43636C33431A430261206802690A43A3
:100BB0000261D2E7002701401902FEFF70470000E2
:100BC00010B586B0044614216846FFF72DFB114985
:100BD000206888421CD11048416B42151143416383
:100BE000C26A02210A43C262C06A0840059003201B
:100BF00000900190002002906946084800F0EEF94C
:100C0000002211460C2000F001FB0C2000F0F4FA49
:100C100006B010BD00240140001002400004005046
:100C2000F0B4054600201F2301265B1E5C1C05D086
:100C3000DF06FF0E3446BC400C42F6D0002A06D038
:100C4000082A18D0102A12D0182A0CD00120002807
:100C500007D12B68596129688B681824A343134373
:100C60008B60F0BC7047072BF1D30120EFE7082B16
:100C7000EDD30120EBE7102BE9D30120E7E70000DB
:100C800010B50446002C03D0607F002802D006E097
:100C9000012010BD00202077204600F035F802200A
:100CA00060772079002808D02046E268A168FFF725
:100CB000B7FF002809D0012010BD21681148486104
:100CC000206881681822914381606079002814D0DF
:100CD0002168206908612068816860229143626907
:100CE000114381602068816880229143A269114389
:100CF000816001206077002010BD00202168C04382
:100D00000861E8E7B71DC10408B5006805498842D5
:100D100007D10548026B81140A430263006B084047
:100D2000009008BD003002400010024030B401467F
:100D300020314A790023022A05D00422C2630B71B4
:100D400030BC01207047026814680E25AC43146063
:100D500002681468640864001460446C1C22144027
:100D600001252A46006CA24042604D710B7130BCD7
:100D70001846704770B50024014620314A79022A8E
:100D800003D00421C163012418E0026813680E2512
:100D9000AB431360026813685B085B001360436C2D
:100DA0001C22134001252A469A40036C5A604D715B
:100DB00000220A71816B002900D08847204670BD4F
:100DC000C06B7047F0B4016C0B6801680C68456C2F
:100DD0001C26042735403A46AA401A4211D0620721
:100DE0000FD50A68920602D40A68BA430A60416CB9
:100DF00031408F40016C4F60016B00293AD0F0BC4C
:100E000008470227AF4002461F402032002F17D06C
:100E1000A70715D50B689B0605D40B680A24A343C6
:100E20000B6001215171436C022133409940036CE6
:100E3000596000211171C16A00291BD0F0BC08471C
:100E40000827AF401F4215D0230713D50B680E2487
:100E5000A3430B60436C0124334021469940036C4B
:100E60005960C463547100211171416B002901D094
:100E7000F0BC0847F0BC704770B50446002C3BD06E
:100E80001E48256814212818FFF732F98000606495
:100E90001B48206402212046203041712968194AEC
:100EA0001140E368A26866691A43236933431A4311
:100EB000A3691A43E3691A43236A1A430A432A605F
:100EC0000122A168920391420FD00F498B6A656C91
:100ED0001C2215400F26AE40B3438B62656C6368DD
:100EE00015408A6AAB4013438B620021E163012203
:100EF00042710171002070BD012070BDF8FFFDBF7F
:100F0000000002400F80FFFF80000240F8B5044659
:100F10008C460025204620300179012909D0012680
:100F2000067147790021012F05D00171022528465D
:100F3000F8BD0220F8BD02274771E163206801680F
:100F400049084900016061462046FFF775FC206BA7
:100F5000002805D0206801680E221143016009E0D5
:100F600020680168042291430160206801680A2218
:100F7000114301602068016831430160D7E770B513
:100F8000044600F0F3F80546601C00D0641C00F035
:100F9000EDF8401BA042FAD370BD0000012110B54E
:100FA0008902884208D1054A0549941E606A03F007
:100FB00005FC60600120606110BD0000020000209F
:100FC0001C01002010B504494A69024202D0486160
:100FD000FFF7E4FF10BD000000040140F0B4002260
:100FE0000B68002B70D0012494400B68A44623406A
:100FF000002B6AD04C68022C01D0122C0CD1D408E2
:10100000A40027183D6A5407E40E0F26A640B543F6
:101010000E69A6402E433E624C68012C05D0022C7E
:1010200003D0112C01D0122C11D185685400032655
:10103000A640B543CE68A6402E4386604468654608
:10104000AC430D79ED06ED0F9540254345600768EB
:1010500054000325A540AF430E79B607B60FA6404E
:101060003E430660C668AE438D68A5403543C56003
:101070004C68E40050D52C4C656B01263543656304
:1010800095082A4CAD002F19BD689407240F0F2630
:10109000A640B54305263607B04201D100261BE025
:1010A000234EB04201D1012616E0224EB04201D1BA
:1010B000022611E0204EB04201D103260CE01F4E63
:1010C000B04203D1042607E02BE025E01C4EB042DD
:1010D00001D1052600E00626A6402E43BE60194D2C
:1010E0002C689C434E68F60300D51C432C606C684A
:1010F0009C434E68B60300D51C436C60AC689C43AF
:101100004E68F60200D51C43AC60EC689C434E6808
:10111000B60200D51C43EC60521C0B68D34000D0D3
:1011200061E7F0BC70470000001002400000014081
:101130000004005000080050000C00500010005047
:10114000001C0050000401400069084201D0012049
:1011500070470020704742694A4042617047002A48
:1011600001D08161704781627047000001480068CA
:10117000704700001801002002480168491C016006
:10118000704700001801002010B5002407480168CE
:10119000402211430160002000F00AF8002801D02D
:1011A000012401E000F01CF8204610BD00200240A0
:1011B00070B50546002409487D21C9000068FEF786
:1011C00097FF00F045FE002801D0012404E0002232
:1011D0002946501E00F01AF8204670BD1401002068
:1011E0000448416B012211434163816B02041143A6
:1011F0008163704700100240C106C90E012088407B
:10120000014908607047000000E100E08207D30E4A
:10121000FF229A408907090E994000280BDA00073F
:10122000000F0838830808489B001818C3699343C7
:101230000B43C3617047830804489B001818036878
:1012400093430B430360704700ED00E000E400E0CF
:10125000F8B5044620785D4D80067BD500265C48B5
:10126000806BC00005D45A48816B0204114381632E
:10127000012658480168C90517D40068FF210131CB
:10128000084354490860FFF771FF0746514800685A
:10129000C0050AD4FFF76AFFC01B642801D90320E8
:1012A000F8BD4C480068C005F4D5494F38680321A3
:1012B0000905084062681140814208D09003800F00
:1012C000032804D13868800301D50120F8BD2869BE
:1012D000032109040840002824D00A40824221D07A
:1012E000207880061ED5286988432A690121C9040F
:1012F0000A432A612A698A432A612861C00511D5F7
:10130000FFF734FF0090286980050BD4FFF72EFF0C
:101310000099411A3048814201D90320F8BD28695B
:101320008005F3D560688103890F032905D13A68E8
:1013300009058A43084002433A602869032261682C
:101340001204114008432861012E03D1B96B300704
:101350008143B9632078C00705D0E868A168800898
:1013600080000843E8602078800705D5E8680C21F4
:101370008843E1680843E8602078400706D5E868BC
:1013800003218902884321690843E8602078000727
:1013900006D5E86803210903884361690843E860CA
:1013A0002088C00506D5E868032109048843A1699F
:1013B0000843E8602078000606D5E8680321890420
:1013C0008843E1690843E8600020F8BD401002400E
:1013D000001002400070004088130000F8B5044679
:1013E0000E46002C12D066480068C007C00FB042FD
:1013F0000ED2634801684908490031430160006822
:10140000C007C00FB04203D00120F8BD0120F8BDD5
:1014100020785C4F800705D5F868F0218843A168E3
:101420000843F8602078C00772D06068022808D0AE
:1014300003280BD001280ED03968890510D401206B
:10144000F8BD396889030BD40120F8BD39688901DA
:1014500006D40120F8BD3968490701D40120F8BD40
:10146000F968890889000143F960FFF77FFE0546A6
:10147000616802290FD0032920D0012931D0F968F1
:101480000907890F44D0FFF771FE411B3E48814296
:101490003AD90320F8BDF9680907890F022937D026
:1014A000FFF764FE411B3848814201D90320F8BD93
:1014B000F8680007800F0228F2D129E0F9680907CF
:1014C000890F032924D0FFF751FE411B2E4881428A
:1014D00001D90320F8BDF8680007800F0328F2D176
:1014E00016E0F9680907890F012911D0FFF73EFEC0
:1014F000411B2548814201D90320F8BDF868000747
:10150000800F0128F2D103E0F8680007800FBAD1FC
:101510001B480168C907C90FB1420BD901684908C6
:101520004900314301600068C007C00FB04201D0DC
:101530000120F8BD2078400706D5F8680721090288
:101540008843E1680843F8602078000707D5F86809
:101550000721C90288432169C9000843F86000F0E7
:101560003FF8F968094A0906090F515CC840084963
:1015700008600020FFF71CFE0028DAD1F8BD00004B
:101580000020024000100240881300001855000897
:101590001401002001480068704700001401002079
:1015A00000B5FFF7F7FF0449C968044A4905490F28
:1015B000515CC84000BD00000010024031550008D9
:1015C00000B5FFF7E7FF0449C968044A8904490FD9
:1015D000515CC84000BD00000010024031550008B9
:1015E00010B51C4AD1680C230846184004280BD0BB
:1015F000082810D00C2810D050680004410F491C56
:101600000120C003884010BD1068C00601D51248F3
:1016100010BD124810BD124810BD8802114B000FBA
:10162000185C0902890F491CD368DB0304D50C4AF6
:101630005043FEF75DFD10BD1268D20604D5064A80
:101640005043FEF755FD10BD044A5043FEF750FDD0
:1016500010BD00000010024000093D000024F4000D
:1016600000127A0028550008F0B583B00446002C1B
:101670000FD0F64EF5680C200540F76801200004F5
:1016800007402078C0075BD0082D09D00C2D03D06F
:101690000FE0012003B0F0BD01200004874208D113
:1016A000306880034CD56068002849D1012003B020
:1016B000F0BD012061680004814203D1316801431B
:1016C000316015E0052301221B049204994206D1E2
:1016D00031681143316031680143316008E031689D
:1016E000814331603168014001913068904330603E
:1016F0006068002812D0FFF739FD0290306880033F
:101700001ED4FFF733FD0299401A642802D9032042
:1017100003B0F0BD30688003F3D511E0FFF726FD7C
:101720000290306880030BD5FFF720FD0299401A24
:10173000642802D9032003B0F0BD30688003F3D4DD
:101740002078800767D5E068810604D532682021BB
:101750000A43326088430923042D17D00C2D01D190
:10176000002F13D0002841D03168994301433160E4
:10177000FFF7FCFC0746306840072ED4FFF7F6FC65
:10178000C01B022826D9032003B0F0BD31684907E9
:1017900001D500281BD071681F22120291432269D3
:1017A0001202114371603168994301433160FFF7C0
:1017B00017FFF16809060A0FA549895CC840A549C9
:1017C00008600020FFF7F4FC0028DDD123E00120B1
:1017D00003B0F0BD30684007D0D570681F21090202
:1017E0008843216909020843706014E030684008AA
:1017F00040003060FFF7BAFC0746306840070AD562
:10180000FFF7B4FCC01B022802D9032003B0F0BDCF
:1018100030684007F4D42078C0066AD5002D15D072
:10182000A06900284FD03068FF21013108433060A3
:10183000FFF79CFC07463068800535D4FFF796FC1F
:10184000C01B02282DD9032003B0F0BD30688005ED
:1018500002D5A069002821D0706807214903884378
:10186000216A084370607068217F0002000A09063F
:1018700008437060206A410B491C0120C003884066
:10188000F16809060A0F7249895CC840714908600D
:101890000020FFF78DFC0028D6D12AE0012003B0FC
:1018A000F0BD30688005C9D57068072149038843B9
:1018B000216A084370607068217F0002000A0906EF
:1018C0000843706015E03168FF20013081433160CA
:1018D000FFF74CFC0746306880050AD5FFF746FC49
:1018E000C01B022802D9032003B0F0BD3068800578
:1018F000F4D42078584F00072FD56069002816D0FF
:101900003869012108433861FFF730FC02903869DB
:10191000800722D4FFF72AFC0299401A022802D934
:10192000032003B0F0BD38698007F3D515E03869AE
:10193000400840003861FFF719FC029038698007C1
:101940000BD5FFF713FC0299401A022802D9032095
:1019500003B0F0BD38698007F3D42078400774D510
:1019600000200190B06BC00006D4B06B01210907C4
:101970000843B0630120019038480168C90518D4B4
:1019800001688015014335480160FFF7EFFB0290C5
:1019900032480068C0050CD4FFF7E8FB0299401AF2
:1019A000642802D9032003B0F0BD2C480068C005AC
:1019B000F2D5FF20A2680130824203D13969014388
:1019C00039611BE001218902002A0AD005231B028C
:1019D0009A420DD13A690A433A6139690143396142
:1019E0000CE03A6982433A6138698843386105E01E
:1019F0003A6982433A61386988433861A0680028AF
:101A000013D0FFF7B3FB0290386980052DD4FFF7A0
:101A1000ADFB0299411A1248814202D9032003B05A
:101A2000F0BD38698005F2D51FE0FFF79FFB0290FB
:101A30003869800519D5FFF799FB0299411A0848C2
:101A400081420FD9032003B0F0BD16E00010024020
:101A5000185500081401002040100240007000409A
:101A60008813000038698005E5D40198012804D165
:101A7000B06B012109078843B063606A002864D015
:101A80000C2D49D001252D0602280FD03068A8431F
:101A90003060FFF76BFB04463068800155D5FFF7D7
:101AA00065FB001B022833D90320CCE73068A8432C
:101AB0003060FFF75BFB07463068800109D5FFF710
:101AC00055FBC01B022801D90320BCE73068800108
:101AD000F5D4E16AA06AF2680843216BFD231B0478
:101AE0009A4311430843F060306828433060FFF7A1
:101AF0003DFB04463068800127D4FFF737FB001B0D
:101B0000022801D903209EE730688001F5D51CE04A
:101B100030688001C3D418E0012814D0F068012196
:101B20000904A26A014091420BD10F218904E26AA3
:101B30000140914205D1032189050840216B88426B
:101B400003D001207FE701207DE700207BE7000034
:101B5000F8B50446002C05D02546203568780028C5
:101B600002D006E00120F8BD00202870204600F0D9
:101B700055F8022068702168CA2048622168532005
:101B80004862204601F07FF8FF260427002804D091
:101B9000206846626F700120F8BD206881681E4A87
:101BA00011408160206881686268A36911432269DD
:101BB0001A43114381602168E06808612068016967
:101BC00022891204114301612068C1688022914377
:101BD000C1602068C16C89088900C164E1696069DD
:101BE00001432068C26C1143C1642068806880068C
:101BF0000BD4204600F00EF9002806D0206846627B
:101C00006F70002028700120F8BD20684662012016
:101C100068700020F8BD0000BFFF8FFF0068054915
:101C2000884205D1044801690122920411430161EF
:101C3000704700000028004040100240F8B50446FC
:101C40000B46254620352878012806D0012028702B
:101C500002206870002A02D008E00220F8BD5878FF
:101C6000C10603D5EF2108400A305870002A1DD064
:101C7000D8789E7800040643587819780002490302
:101C8000084306432168CA204862216853204862FD
:101C9000204600F0F8FF0027002818D02168FF2018
:101CA0004862042068702F700120F8BDD87800F0D9
:101CB000DEFF0604587800F0DAFF00020643987849
:101CC00000F0D5FF0643187840030643DAE71148D1
:101CD0000640206846602068C16880229143C16048
:101CE0002068806880060CD4204600F093F8002815
:101CF00007D02168FF204862042068702F700120FF
:101D0000F8BD2168FF204862012068702F70002014
:101D1000F8BD00003FFFFF00F8B504460D4626461B
:101D200020363078012829D00120307002207070D0
:101D3000002A25D020688068400601D40020E87081
:101D40002878AF78000407436878E978000209042E
:101D5000084307432168CA2048622168532048622B
:101D6000204600F090FF002821D02168FF20486223
:101D700004207070002030700120F8BD0220F8BDF2
:101D800020688068400601D40020E870287800F0C0
:101D90006EFF0704687800F06AFF00020743A87826
:101DA00000F065FF0743E87800040743D2E71848CE
:101DB00007402068076020688168012292049143EF
:101DC0008160E96828690143206882681143816065
:101DD0002068C16880229143C160206880688006C5
:101DE0000DD4204600F016F8002808D02168FF2006
:101DF000486204207070002030700120F8BD216816
:101E0000FF2048620120707000203070F8BD000093
:101E10007F7F7F0070B504462068C168A02291438F
:101E2000C160FFF7A3F905462068C06880060CD49E
:101E30007D26F600FFF79AF9401BB04201D9032036
:101E400070BD2068C0688006F4D5002070BD000019
:101E500010B40B49401E884202D910BC01207047C3
:101E60000849486108480723C2691202120A4C0453
:101E70002243C261002088610B6110BC70470000E2
:101E8000FFFFFF0000E000E004ED00E0F0B40246D8
:101E90002032137E012B16D00126167602235376AC
:101EA00003685C689F687025AC430D6825438024F7
:101EB000A743496839435D60006881605676002019
:101EC0001076F0BC7047F0BC0220704770B5044635
:101ED000002C05D025462035687E002802D006E07B
:101EE000012070BD00202876204600F00BF802206B
:101EF0006876211D206800F0ADFF01206876002083
:101F000070BD000010B50068084988420CD108482F
:101F1000816B102211438163002211461120FFF7CB
:101F200075F91120FFF768F910BD0000001000409E
:101F3000001002400168CB6801221343CB600068A7
:101F400081684907490F062902D0016811430160E1
:101F500000207047704770B504462068016900256D
:101F6000C9438907002916DBC168C943890712D410
:101F7000E91E01610120207620688069800703D076
:101F80002046FFF7E7FF05E0204600F07BF82046FB
:101F900000F079F8257620680169C943490718D40B
:101FA000C168C943490714D40421C943016102200F
:101FB0002076206880698005800F03D02046FFF7D7
:101FC000C9FF05E0204600F05DF8204600F05BF810
:101FD000257620680169C943090717D4C168C94338
:101FE000090713D40821C943016104202076206821
:101FF000C069800703D02046FFF7ACFF05E020460C
:1020000000F040F8204600F03EF82576206801698F
:10201000C943C90618D4C168C943C90614D41021DC
:10202000C9430161082020762068C0698005800FBF
:1020300003D02046FFF78EFF05E0204600F022F88F
:10204000204600F020F8257620680169C943C907B9
:1020500008D1C168C943C90704D1891E016120465E
:1020600000F012F820680169C943490609D4C16823
:10207000C943490605D44021C9430161204600F007
:1020800043F870BD7047704770B500681B498842BF
:102090002ED11B4C1B49206A401C2062884201D172
:1020A0000020206264210546FEF722F8002904D1B1
:1020B000A068002809D00020A060FF2191312846A7
:1020C000FEF716F8002902D006E00120F4E7E068E8
:1020D00000280ED00020E060192149012846FEF7B3
:1020E00007F8002904D12069002804D000202061CD
:1020F00070BD0120EFE70120F9E70000001000406B
:10210000000000209F8601007047704770B50446AC
:10211000616FA56F2068826810261206002A14DA03
:10212000212912D18168802291438160A06E00280C
:1021300008D0FEF7FBFD002804D0A06EFEF740FE9D
:10214000202809D0204600F0EAFF2068816849066F
:1021500018D5222D03D015E0E667032070BD8168F5
:10216000402291438160E06E002808D0FEF7DEFD3A
:10217000002804D0E06EFEF723FE202804D020467D
:1021800000F0B0FF002070BDE667032070BD70470F
:10219000F8B504462368D86919689A6805072D0FB1
:1021A000002D09D1860607D58E0605D5216E00299A
:1021B00001D020468847F8BD002D6AD0D507ED0F25
:1021C000FF2621360E402E4363D0C60706D0CE052B
:1021D00004D501261E62E36F3343E36786070223BB
:1021E0000427002E06DAD60704D026683362E66F8D
:1021F0003E43E667460706D5D20704D02268176239
:10220000E26F1A43E267020709D520220A402A43F7
:1022100005D0236808221A62E36F1343E367E26F75
:10222000002AC8D0800606D5880604D5216E00296C
:1022300001D020468847E06F21688968490601D4AB
:10224000000720D5204600F04DFF20688168490630
:1022500015D58168402291438160E06E00280AD044
:102260001A498163E06EFEF785FD0028A3D0E06E79
:10227000816B8847F8BD2046FFF789FFF8BD2046EF
:10228000FFF785FFF8BD2046FFF781FF0020E067DC
:10229000F8BDC50208D5520206D501200005186216
:1022A0002046FFF732FFF8BD020607D50A0605D51E
:1022B000616E0029F7D020468847F8BD4006FCD55E
:1022C0004806FAD5204600F01DFFF8BD4130000851
:1022D00010B50446002C03D0606F002802D007E040
:1022E000012010BD002170200155204600F028F883
:1022F0002420606720680168490849000160204681
:1023000000F016FF012819D0606A002802D020468C
:1023100000F0FEFD206841680922D202914341602D
:10232000206881682A229143816020680168012227
:1023300011430160204600F051FE10BD012010BD88
:10234000F0B587B0064614216846FDF76DFF2049B9
:102350003068884239D11F49886B012252041043EA
:102360008863C86A01221043C862C86A0025104009
:1023700005900C2000900220019003200390042778
:1023800005200295694604970007FEF727FE134CC7
:102390001148A560E56081C4E56080202561A060EA
:1023A0002020A56160610D48083CFEF765FD00280E
:1023B00001D0FEF760FAF466002211461C20A662E6
:1023C000FEF724FF1C20FEF717FF07B0F0BD00004A
:1023D000004400400010024058000240AC030020BE
:1023E000F8B50446A06F202801D00220F8BD0029CE
:1023F0000AD0002A08D00123A0681B03984209D103
:102400002069002802D005E00120F8BDC80701D0EE
:102410000120F8BD25466035287C012827D00127FA
:102420002F746165582002530026E6672220A067BA
:10243000E06E00281DD01849C162E16E174808639C
:10244000E16E17484863E06E8663606D21688446DC
:10245000134624316246E06EFEF758FD002808D08E
:102460001020E0672E74202060670120F8BD022054
:10247000F8BD2E7420680168FF220132114301600B
:102480002068816839438160206881684022114357
:1024900081600020F8BD00009D300008DB3000089E
:1024A0005530000870477047FFB583B004460F46AB
:1024B0001546606F202802D0022007B0F0BD002F23
:1024C0000AD0002D08D00120A168000381420BD161
:1024D0002069002803D007E0012007B0F0BDF8070D
:1024E00002D0012007B0F0BD204660300290007C91
:1024F000012827D00298012101740020E0672120E3
:102500006067FEF733FE01902646403635827582BD
:102510000120A1680003814202D12069002814D063
:102520003D460027708A00281DD0069800900022A2
:1025300080212046019B00F081FF002807D0032066
:1025400007B0F0BD022007B0F0BD0025EAE7002D7E
:1025500016D02168287888626D1C708A401E7082AF
:10256000708A0028E1D10698009000224021204680
:10257000019B00F063FF002809D0032007B0F0BDE5
:1025800038882168C005C00D8862BF1CE5E720209F
:10259000606702990020087407B0F0BD7047FEE73D
:1025A00070B50446082517E0002000F08BFB0220E0
:1025B00002F068F8E009C00100F0B0FB022002F070
:1025C00061F86006040E022002F05CF8012000F0C1
:1025D00079FB022002F056F828466D1EEDB2002865
:1025E000E2D100F06FFB022002F04CF870BD10B594
:1025F000012000F093FB022002F044F8012000F0DB
:1026000061FB022002F03EF8002000F087FB022070
:1026100002F038F8002000F055FB022002F032F8FA
:1026200010BD10B5002000F04DFB022002F02AF88A
:10263000002000F073FB022002F024F8012000F0DB
:1026400041FB022002F01EF8012000F067FB02208F
:1026500002F018F810BD10B5052400F049FB022067
:1026600002F010F8012000F02DFB022002F00AF821
:1026700006E0641EA4B2022002F004F8002C0DD083
:1026800000F02EFB0028F4D100F056FB002000F0F3
:1026900019FB022001F0F6FF002010BD00F04CFBFA
:1026A000FFF7BFFF012010BD1CB50F490F48019176
:1026B00000900F4B0F4A1049104802F0F1F8104CEF
:1026C000002860620ED00F4902F098F8002805D16A
:1026D00001210022C9030C48FEF741FD0221606A76
:1026E00002F095F81CBD00009946000891460008CC
:1026F000854B0008714B0008C34900087949000860
:1027000000000020400ECF19000800501CB5002129
:102710001D4800911B4A01910260C1638160012341
:1027200081631205036142600246C160203211706C
:102730005370FF23C233436281621173016381616D
:10274000042241634261C161FEF752F9002801D0C1
:10275000FEF791F80D4800904014019069460A4830
:10276000FEF78AF8002801D0FEF785F808480090A7
:1027700069460548FEF780F8002801D0FEF77BF88F
:102780001CBD0000002401400402002000010020C4
:102790000002002410B509480749016000210171B9
:1027A00041714161816101210162FEF769FA0028EE
:1027B00001D0FEF760F810BD00300240600200203A
:1027C00008B51748016B012211430163006B1549DD
:1027D0001040009014489203016082600021416023
:1027E0004022C260416181618022C1610261016257
:1027F000FEF742FB002801D0FEF73DF8002211460B
:102800000920FEF703FD0920FEF7F6FC0022114621
:102810000B20FEF7FBFC0B20FEF7EEFC08BD0000D2
:10282000001002400800024084020020F0B587B08A
:1028300014216846FDF7F8FC2F48C26A04210A43B8
:10284000C262C26A0A400592C16A01252943C16277
:10285000C16A29400591C26A02210A43C262C06A64
:102860008E03084005902A4631462448FEF777FC3F
:102870002F020520002239460007FEF770FC0022D7
:1028800070211F48FEF76BFCA80300240090019400
:10289000694602941948FEF7A1FB0294694617485D
:1028A000009601950394FEF799FB05200294694672
:1028B0000007009701950394FEF790FBA802009093
:1028C000104801900520694602940007FEF786FB38
:1028D0007020009002946946019503940848FEF721
:1028E0007DFB002211460720FEF790FC0720FEF733
:1028F00083FC07B0F0BD000000100240000800504B
:10290000000400500000111010B586B01421684674
:10291000FDF78AFC00241B491B48059412C07F2147
:1029200001608460C460FF2104613431446141600E
:102930000838FFF70DF9002801D0FDF79CFF17219B
:10294000684601703B214170372181700394002259
:1029500069460D480494FFF7DFF9002801D0FDF720
:102960008AFF01206946087548758875CC75002274
:1029700005A90548FFF762F9002801D0FDF77BFFA4
:1029800006B010BD00280040CC0200201CB5002479
:102990000E4800940C49019401601F21846041603D
:1029A0000B494461C160FFF791FA002801D0FDF79F
:1029B00062FF0094694605480194FFF767FA002812
:1029C00001D0FDF758FF1CBD00100040F0020020B0
:1029D000E703000010B50C480A4901604B21C9010A
:1029E000416000218160C16001618161C1610C228F
:1029F000016242614162FFF76BFC002801D0FDF7E4
:102A00003AFF10BD004400402C030020704770B511
:102A100000242046B030C1B2002000F00CF90021A3
:102A2000084600F008F91021002000F004F9002504
:102A30000021012000F0FFF86D1CEDB2802DF7D3CE
:102A4000641CE4B2042CE4D370BD10B5AE210020A8
:102A500000F0F1F8D521002000F0EDF880210020F1
:102A600000F0E9F8A821002000F0E5F81F2100207F
:102A700000F0E1F8D321002000F0DDF80021084645
:102A800000F0D9F84021002000F0D5F8B021002056
:102A900000F0D1F88D21002000F0CDF814210020A5
:102AA00000F0C9F8A121002000F0C5F8C8210020DD
:102AB00000F0C1F8DA21002000F0BDF8002108463E
:102AC00000F0B9F88121002000F0B5F8FF210020C6
:102AD00000F0B1F8D921002000F0ADF81F2100204E
:102AE00000F0A9F8DB21002000F0A5F8402100202B
:102AF00000F0A1F8A421002000F09DF8FFF787FF67
:102B0000AF21002000F097F810BD000010B5054B74
:102B1000012805D0012220211846FEF720FB10BD18
:102B20000022F8E70004005010B50446B031C9B2E5
:102B3000002000F080F821090020103100F07BF81F
:102B40002107090F002000F076F810BDFFB581B015
:102B5000203A019800240D46D6B27F2803D90020E0
:102B60008D1CEDB20190102B29460FD0FFF7DCFF32
:102B70000620464314483518295D012000F05BF813
:102B8000641CE4B2062CF7D305B0F0BDFFF7CCFF10
:102B900037010E4E3819315C012000F04CF8641CEE
:102BA000E4B2082CF6D36D1CE9B20198FFF7BCFF24
:102BB000002438198019017A012000F03CF8641CC7
:102BC000E4B2082CF5D3DFE7964B0008BE4D0008B1
:102BD000FFB581B017460446002506460FE02046A3
:102BE000049B0299FFF7B2FF0834E4B2782C04D9B1
:102BF00002980024801CC0B202906D1CEDB27A5D78
:102C0000002AECD1002507E020222846049B0299E7
:102C1000FFF79CFF0835EDB2B542F5D307E020225F
:102C20002046049B0299FFF791FF0834E4B2802C00
:102C3000F5D305B0F0BD70B50D460446FFF7D7FCDF
:102C40007820FFF7ADFCFFF706FD002C0CD04020EC
:102C5000FFF7A6FCFFF7FFFC2846FFF7A1FCFFF7F4
:102C6000FAFCFFF7DEFC70BD0020F1E770470021A1
:102C70000A2804D3491C0A38C0B20A28FAD2090724
:102C8000090E0843704770B504462068C1684906BC
:102C900016D40021C943C160FEF768FA05462068D2
:102CA000C06840060CD47D26F600FEF75FFA401B94
:102CB000B04201D9032070BD2068C0684006F4D539
:102CC000002070BD0521FF2209070132002803D032
:102CD0008869104388617047886A1043886270472A
:102CE00010B510210148FEF72FFA10BD0004005066
:102CF00000B585B014216846FDF796FA1020002132
:102D00000090012001910391029069460248FEF76C
:102D100065F905B000BD000000040050054910220F
:102D2000002803D08869104388617047886A10437F
:102D3000886270470004005000B585B014216846D1
:102D4000FDF772FA102000900120019000200290FF
:102D5000039069460248FEF741F905B000BD000046
:102D600000040050704710B5FEF706FA10BD0000D1
:102D700010B59AB034216846FDF756FA142115A80B
:102D8000FDF752FA20210DA8FDF74EFA1748016809
:102D90000322D2029143C214891801600A200090D4
:102DA0001020049002200990400401210B900001A2
:102DB000059100240C9003910A946846FEF754FC98
:102DC0000F20159003201690179418940121199440
:102DD00015A8FEF703FB22200D90012040040E9061
:102DE00010940DA8FEF734FA1AB010BD0070004020
:102DF00010480168821511430160C1680E4A1140F4
:102E0000C16001680D4A11400160816849084900AC
:102E1000816001680122920491430160C168FD2232
:102E200012049143C160002101610549C00388601B
:102E300070470000001002400C40FF88F6FFF6FECD
:102E400000ED00E010B50248FFF785F810BD000066
:102E5000F0020020F0B402680124A407144D154EBE
:102E6000154FA04205D0A84203D0B04201D0B842CD
:102E700003D170239A434B681A43A04205D0A8425D
:102E800003D0B04201D0B84204D103231B029A43BD
:102E9000CB681A4380239A430B691A4302608A68FD
:102EA000C2620968816201214161F0BC7047000083
:102EB00000040040000801400014014010B5012248
:102EC000D1030D48FEF74BF90120FFF71FFEC82084
:102ED000FEF755F8FFF7B9FDFFF799FD0021102324
:102EE00006A20846FFF774FE102304A20221002068
:102EF000FFF76EFE10BD00000008005020202020CB
:102F00002020202020202020202020200000000041
:102F100010B4818CC90707D001684A6801235B049B
:102F20009A43836A1A434A60818C890707D50168EE
:102F30004A6801231B049A43C36A1A434A60818C7E
:102F4000490707D501684A6801239B049A43036B2C
:102F50001A434A60818C090707D501684A68012332
:102F6000DB039A43436B1A434A60818CC90607D539
:102F700001688A6801231B039A43836B1A438A60A2
:102F8000818C890607D501688A6801235B039A430F
:102F9000C36B1A438A60818C490612D501684B685D
:102FA00001221205046C934323434B60016C914250
:102FB00007D101684A6803235B059A43436C1A43AF
:102FC0004A60818C090607D501684A680123DB0441
:102FD000806C9A4302434A6010BC7047F8B50446BF
:102FE0000025E567FEF7C2F8074620680068134E23
:102FF00000070BD501213B460022490520460096DB
:1030000000F01CFA002801D00320F8BD20680068F9
:1030100040070BD501213B4600228905204600963A
:1030200000F00CFA002801D00320F8BD20206067D2
:10303000A067603425740020F8BD0000FFFFFF0189
:1030400010B5806A0022014640314A834A82FFF768
:103050009EF810BD70B5846A606FA56F216889689D
:1030600000260906002906DA212804D15220065339
:10307000204600F054F820688068400606D5222DCE
:1030800004D15A200653204600F02CF8E06F10219E
:103090000843E0672046FFF77AF870BD10B5014697
:1030A000886A09680968890614D400225A210A52DC
:1030B00001680A68FF2301339A430A6001688A683D
:1030C000520852008A6001688A6840239A438A60E5
:1030D00020218167FFF7E6F910BD10B5806AFFF780
:1030E000E2F910BD01680A68FF2321339A430A60A0
:1030F00001688A68520852008A6020218167002195
:103100000166704710B501680A6840239A430A6057
:103110002021416700214166FFF740FA10BD016898
:103120000A68C0239A430A60202141677047000063
:10313000F8B504461021002000250023226894469B
:103140002669A268E769324366693E4332436646B0
:103150003668AB4F3E40164362461660226856689A
:1031600003273F03BE43E7683E435660A2692768D2
:10317000A44EBC46B74201D0266A32436646B668C2
:103180000B273F02BE431643624696609E4E22685E
:103190009E4FB24212D1FE68B607B60F06D0012E7E
:1031A00008D0022E04D0032E38D105E0012135E0ED
:1031B000022133E0042131E008212FE0944EB24295
:1031C00012D1FE680C273E4006D0042E08D0082EEF
:1031D00004D00C2E22D105E000211FE002211DE0C9
:1031E00004211BE0082119E08A4EB24201D10021DE
:1031F00014E0894EB24201D100210FE0814EB2426B
:103200000CD1FE680327BF023E4020D01715F61BE5
:1032100021D0F61B1DD0BE4200D10821794E7F4F30
:10322000B24240D1002918D002291AD004291FD057
:10323000082921D00125002B78D062685000101891
:10324000984202D81003984219D20125D2E00021F9
:10325000E4E70221E2E70421E0E7FEF7A1F90346F3
:10326000E9E73868C00601D56D4BE4E76D4BE2E74E
:10327000FEF7B6F90346DEE70123DB03DBE7190EB1
:103280001B0250080026181871413346FCF746FF10
:1032900003210902644A411A914202D82168C86098
:1032A000A8E00125A6E00122E369D2035F4E934224
:1032B00056D1092944D20A007A44127992189744C7
:1032C000040E183F2B3F3F3F3600FEF769F9616857
:1032D00040004A088018FCF70BFF80B231E0FEF78F
:1032E0006FF9616840004A088018FCF701FF80B25E
:1032F00027E03868C00607D561684D4A480880183D
:10330000FCF7F6FE80B21CE061684A4A4808801863
:10331000FCF7EEFE80B214E0FEF762F9616840004F
:103320004A088018FCF7E4FE80B20AE062E06168B7
:103330000122480812048018FCF7DAFE80B200E08F
:10334000012501461039B14208D83B4902460A40DE
:103350000007410F11432068C1604BE0012549E09F
:1033600009293ED20B007B441B79DB189F44040DD6
:103370001639293939393200FEF712F961684A08DD
:103380008018FCF7B5FE80B22CE0FEF719F96168F1
:103390004A088018FCF7ACFE80B223E03868C0060B
:1033A00007D561681E484A081018FCF7A1FE80B2D4
:1033B00018E061681B484A081018FCF799FE80B2B3
:1033C00010E0FEF70DF961684A088018FCF790FEDE
:1033D00080B207E0616848088018FCF789FE80B277
:1033E00000E0012501461039B14202D82168C860C9
:1033F00000E001250020206660662846F8BD000038
:10340000F369FFEF004800400038014040100240DF
:1034100000440040004C00400050004000100240BA
:1034200000093D000024F400FFFC0F00EFFF000046
:1034300000127A000048E801F0FF0000FFB581B0FB
:103440000A9D04460E4617462068C16930468843E7
:1034500017D00020B84211D1681C07D0FDF786FEB6
:103460000499401AA8420ED8002D0CD02068C169DA
:10347000304688431BD00020B842EDD0002005B074
:10348000F0BD0120E6E720680168FF22A1329143E8
:1034900001602068816849084900816020206067D8
:1034A000A067002060342074032005B0F0BD012027
:1034B000E2E7000010B50348FEF76AFE01F00EFADD
:1034C00010BD00002C0300200FB410B50846074AB9
:1034D00002A901F0A6F8044602A9002001F0B0F804
:1034E000204610BC08BC04B0184700004146000844
:1034F0002021020C01D010211046020A01D01046F2
:103500000839020901D01046091F820801D010466F
:10351000891E420801D0881E7047081A7047F8B506
:1035200004148BB2264682B25E430D141046371443
:103530005843360480190021794116466E433714EA
:1035400036048019794126466E438919F8BDF8B5CD
:10355000040C8BB2264682B25E430D0C1046370C2B
:103560005843360480190021794116466E43370CC2
:1035700036048019794126466E438919F8BD30B466
:103580007446641E2578641CAB4200D21D46635D00
:103590005B00E31830BC184770477047FEB505461E
:1035A000092100F025FF01900621284600F020FFA8
:1035B00004040721284600F01BFF000204430821F1
:1035C000284600F015FF2043FCF7DAFF2A4F0022BF
:1035D0003B46FCF7EDFEFCF7FBFF06460022092107
:1035E000284601F018F83B21284600F001FF40244E
:1035F000204302463B21284601F00DF83B21284696
:1036000000F0F6FE8006F9D4D92069460870002043
:103610004870887003236A460621284600F0DEFFC2
:103620003B21284600F0E4FE204302463B21284689
:1036300000F0F1FF3B21284600F0DAFE8006F9D4C5
:1036400009212846019A00F0E6FF3046FCF798FF72
:1036500000223B46FCF714FFFCF7BAFF020C694658
:103660000A70020A4A70887003236A4606212846B7
:1036700000F0B4FFFEBD000080844E4070477047EC
:10368000704702E008C8121F08C1002AFAD170472B
:103690007047002001E001C1121F002AFBD17047D2
:1036A000F8B50446C0690E464068C07A012810D1BA
:1036B0001C21204600F09CFEE16980064D68800ECA
:1036C000296AFCF715FD8800E9690958204600F0D1
:1036D00051FC002525750121204600F0EDFBFA2262
:1036E0001121204600F097FF40221146204600F0AD
:1036F00092FF40224121204600F08DFF0A20607594
:10370000207D0127384320750721204600F0D4FB97
:103710001221204600F06CFE4007F9D50422122148
:10372000204600F078FF207D042108432075E069E1
:1037300000688169002901D00120884712212046B4
:1037400000F056FEC00708D001221221204600F0EA
:1037500062FF3770207D082102E03570207D022154
:10376000084320750121204600F0A6FB6575002066
:10377000F8BD70B50C460546312100F039FEC2088F
:10378000D20022433121284600F045FF70BD10B51C
:103790000A46372100F03FFF10BD10B500240B0092
:1037A000FFF7EDFE092C060B13171B1F23282C0017
:1037B0001146FFF775FF044620E01178002900D07C
:1037C0000121C0694068C17218E0117800F03CFC2A
:1037D00014E0117800F04BFC10E0117800F048FB89
:1037E0000CE0117800F094FB08E0C06911784068A3
:1037F000817203E01278392100F00DFF204610BDE0
:10380000704710B50446407D022817D1802212214E
:10381000204600F000FFE0694068807A00280ED062
:103820000021204600F048FB00206075E069006838
:10383000002803D0C068002800D0804710BD0220B7
:10384000F3E770B50446407D022801D0062824D154
:10385000E0694068C07A01281AD11C21204600F096
:10386000C7FD8506E069AD0E46682846316AFCF75B
:103870003FFC8800F1690958204600F07BFBE069B5
:103880000068002804D04169002901D028468847F3
:1038900002221221204600F0BEFE70BD38B50C4653
:1038A00002236A46202100F07FFD6846008840BA66
:1038B0002080002038BD38B50446002060752022E5
:1038C0000C21204600F0A7FEE06940680168204610
:1038D00000F050FBE06940688179204600F0C7FBAA
:1038E000E0694068C179204600F0C2FAE0694068AA
:1038F000017A204600F00CFBE069406841792046DF
:1039000000F0A2FBE0691D214068457A204600F0E6
:103910006FFD420852002A431D21204600F07BFE25
:10392000E069022340686A4645721E21204600F085
:103930003BFD1E21204600F05BFD014668460170FC
:103940001F21204600F054FD68460078FF258208BC
:10395000920003200243684602701E21204600F0B8
:103960005AFE2A461F21204600F055FEE0694068B5
:10397000417D204600F0DFFAE0694068C18A2046B8
:1039800000F0E0FA3F220B21204600F044FE8025A3
:103990000921204600F02CFD4206520E2A4309213F
:1039A000204600F038FEE069042140684156204678
:1039B00000F0FEFA0121204600F07EFA38BD00003A
:1039C00070B50C4605461B2100F012FDE969054A59
:1039D00049680968914201D99D3800E0A4382080E7
:1039E000002070BD40DD4A1FF7B50446C0690026BF
:1039F00040681546007A002805D01C21204600F0BA
:103A0000F7FC400618D51221204600F0F1FC800694
:103A100016D520221221204600F0FDFDE069006845
:103A2000002803D00069002800D08047E069406882
:103A3000807A002801D0667586E00220607583E0F8
:103A40002046192100F0D4FC010605D5C043401CD6
:103A50000006800E404200E0800860761A21204671
:103A600000F0C6FC19216156474A00290DDAE369C6
:103A70005B681B68934203D9091800099D3802E06E
:103A800009180009A43808180BE0E16949680968B9
:103A9000914203D9010908189D3802E0010908186C
:103AA000A43860831021204600F0A2FC0746E0699C
:103AB0004068407A012814D01321204600F098FC79
:103AC00028703A460D21204600F0A5FD2A782046B0
:103AD000019900F086FCE0694068807E012820D0D2
:103AE00038E03A460D21204600F095FDE069406837
:103AF000817E012909D0427D2046019900F071FCA8
:103B0000E0694068407D2870E5E7407D0199801CB0
:103B1000C2B2204600F065FCE0694068407D801C30
:103B2000F1E729780198891E00F090FD0146030A0B
:103B3000019A2878921E825C934205D1CAB20199FB
:103B4000491E415C8A4203D00A202E70C043FEBD4C
:103B5000801E2870E0690068002809D08768002F5F
:103B600006D019231A22E356A25E29780198B84795
:103B7000E0694068807A002802D066750020FEBDAA
:103B800002206075FAE7000040DD4A1F70B5044668
:103B9000012100F091F9E06941684879092802D0D3
:103BA0000322362111E00868AA49884206D9022278
:103BB0003621204600F02FFD642205E00222362146
:103BC000204600F028FD7F223A21204600F023FD08
:103BD000E0694068057E012D33D03321204600F096
:103BE00007FCBE210840421C3321204600F013FD93
:103BF0001D223B21204600F00EFDE069406805765D
:103C0000E069802540684079092877D23121204633
:103C100000F0EEFB4206520E3121204600F0FBFC84
:103C200000223021204600F0F6FCE069406840792F
:103C30000300FFF7A4FC09131A2734414E6464649F
:103C400069003321204600F0D3FB4121084302469E
:103C50003321204600F0DFFC1922CAE748222F2139
:103C6000204600F0D8FC7C4944E044222F21204625
:103C700000F0D1FCE06940680068FCF781FC00229C
:103C8000764B32E044222F21204600F0C4FCE0694C
:103C900040680068FCF774FC0022714B25E0442268
:103CA0002F21204600F0B7FCE06940680068FCF76F
:103CB00067FC00226B4B18E044222F21204600F0C5
:103CC000AAFCE06940680068FCF75AFC0022664BD9
:103CD0000BE044222F21204600F09DFCE069406863
:103CE0000068FCF74DFC0022604BFCF7AFFAFCF7D4
:103CF0006FFC0146204600F03DF905E013E040224C
:103D00002F21204600F087FCE069426851799079C4
:103D1000062910D0072910D0082910D0D07A002801
:103D200010D001210FE03121204600F061FB284333
:103D300002463121E5E70A28F3D00B28F1D00C2800
:103D4000EFD0EBE70021204600F0A5F8E0694068DD
:103D5000C07A012826D14421204600F049FB28439F
:103D600002464421204600F056FCE06924214068C8
:103D7000027B204600F04FFC1C21204600F038FB5F
:103D8000E16980064D68800E296AFCF7B1F9880068
:103D9000E9690958204600F0EDF8E0694068C07A0A
:103DA000012821D00F221121204600F034FC4021AF
:103DB000204600F01DFB0C210840401C024640211B
:103DC000204600F028FC4121204600F011FB82062D
:103DD000920E41212046803200F01DFCE0694068CF
:103DE000417A01290CD012E01D221121204600F059
:103DF00012FC4021204600F0FBFA33210840DDE7A9
:103E0000817E01291FD0417D204600F094F8FF22D9
:103E10001221204600F0FFFB02206075E069406837
:103E2000807A012813D000220F21204600F0F3FBF6
:103E300000220D21204600F0EEFB0521204600F077
:103E40003BF8002070BD407D801CC1B2DCE706213C
:103E5000F4E7000040DD4A1F821E00000082BE40E1
:103E60000082CE408057D4408084DE40C058E44079
:103E700070B50C4605461D2100F0BAFAF121084044
:103E800061000843C2B21D21284600F0C4FBE86966
:103E90004068C47170BD70B50C460546262100F01F
:103EA000A7FAF7210840E1000843C2B226212846BC
:103EB00000F0B1FB70BD000070B50C460546012155
:103EC00000F096FA4107490F064A8C42117006D05D
:103ED000C208D20022430121284600F09CFB0020AA
:103EE00070BD0000B000002070B50C4605464D21A5
:103EF00000F07EFA0921284600F07AFA002C01D061
:103F0000872200E084224D21284600F084FB70BD0A
:103F100070B50C4605461E2100F06AFAFB210840E8
:103F2000A1000843C2B21E21284600F074FBE869D4
:103F30004068047270BD10B50A46222100F06BFB88
:103F4000002010BD38B50C46054602236A462021E4
:103F500000F02AFA210A68460170447002236A467A
:103F60002021284600F03AFBE8694068C48200201E
:103F700038BD000038B50446C06940680160084695
:103F8000FCF7FEFA0022094BFCF77AFAFCF720FB5B
:103F9000020C69460A70020A4A70887003236A4656
:103FA0000621204600F01AFB002038BD80844E40D8
:103FB00070B50C460646112901DD012100E0002103
:103FC000FFF792FF0921304600F012FA05464D2115
:103FD000304600F00DFA0146EA097020002A25D08B
:103FE00087228A4303D0022C0DDA02240EE0052C2E
:103FF00001DA052402E0142C00DD142405432A090B
:104000001201601F06E0112C00DD112405432A096E
:104010001201A01E0007000F02430921304600F0E4
:10402000FAFAF06940680471E0B270BD0021C9433A
:104030008C4201DA0C4602E00E2C00DD0E24054312
:104040002A091201601CE5E770B50C4605461D21E2
:1040500000F0CEF90007000F21010843C2B21D2174
:10406000284600F0D8FAE8694068447170BD70B520
:104070000C4605460C2901D90C2405E0062C01D27A
:10408000062419E0062C17D00321FFF772FB0A2142
:104090002846FFF77CFB1E21284600F0A9F90007FF
:1040A000000F21010843C2B21E21284600F0B3FAD6
:1040B000E8694068847170BD0521FFF75AFB0C2147
:1040C000E6E7FEB500270E4604461546002908D04F
:1040D000E0694068817E381F012905D0FF2D02D894
:1040E0000FE00220C043FEBDFD2DFCD81146304636
:1040F00000F0ACFA010A71556D1CA9B27054491C4C
:104100008DB2E8B2009001212046FFF7D5FEE069AC
:104110004068457E012D33D03321204600F068F9F8
:10412000BE210840421C3321204600F074FA1D22B3
:104130003B21204600F06FFAE06940684576E0696F
:104140004068C17A012928D0F720002501902A462D
:104150002421204600F05FFA11212046019A00F048
:104160005AFAE06942685179907906292CD00729DA
:104170002CD008292CD0D07A00282CD001212BE07B
:104180003321204600F034F9BE2108400246332195
:10419000204600F040FA1922CAE7F5210191057B7B
:1041A0001C21204600F024F9E1698006496802914B
:1041B000800E096AFBF79CFF88000299C9690958BB
:1041C0002046FFF7D7FEC2E70A28D7D00B28D5D064
:1041D0000C28D3D0CFE700212046FFF75CFE012159
:1041E000204600F005F9400707D101212046FFF7DE
:1041F00063FE216964204968884722212046009A8D
:1042000000F009FA00220E21204600F004FA0022F4
:104210000D21204600F0FFF9204632460021009B88
:1042200000F0DCF977224021204600F0F4F930223A
:104230004121204600F0EFF9FF221221204600F034
:10424000EAF92046009900F017F905460620607546
:1042500003212046FFF730FE0A3518E021690120CE
:1042600009688847E0694068007D00280FD07F1CFE
:10427000AF420CD9E06900684068002800D0804750
:1042800001212046FFF718FE0820C043FEBD122181
:10429000204600F0ADF80007E0D5E069006800684E
:1042A000002800D0804708221221204600F0B3F9F0
:1042B00001212046FFF700FE0020FEBD70B5044638
:1042C00000200546002917D0012915D0022918D051
:1042D000032910D11E21204600F08AF80821084346
:1042E00002461E21204600F096F903212046FFF7E2
:1042F000E3FD0621617570BD2046FFF7DDFD6575A4
:1043000070BD2046FFF742FC0221F3E7F8B50746EF
:104310000025684614460E460570002916D0002C6C
:1043200014D025801221384600F062F8410610D5DD
:1043300040221221384600F06EF96A46314638466E
:10434000FFF752FB694609782180F8BD0220C0437F
:10435000F8BD000603D509207D75C043F8BD0620D1
:10436000C043F8BD70B588B014460D4606462022FD
:104370000C496846FBF73FFF082D03D90320C043D3
:1043800008B070BDA80069460858FCF707F941B2AB
:104390003046FFF70DFE002C02D0FCF7E9F8206054
:1043A0000020EDE7F8530008F8B50546C0680C4654
:1043B00041681E46174600208847A96860060968BC
:1043C000400E8847002405E0A868406880473855BB
:1043D000641CE4B2B442F7D3E8684168012088471E
:1043E000F8BD134610B50A460021FFF7DDFF10BDEA
:1043F00008B501236A46FFF7D7FF6846007808BD75
:1044000010B50446C068016800290FD00020884715
:104410002169022009688847E0680168012088470F
:1044200021690A2009688847002010BD0020C04388
:1044300010BD30B5457D002202242B00FFF79FF808
:104440000B0E1010090907070E0E12120E000320A2
:1044500009E0C0694068807A002801D00A7003E052
:104460000C7001E004200870002030BD0520C0431E
:1044700070470520C0437047F0B585B007460391EB
:10448000C069262140688679C479C08A0090384680
:10449000FFF7AEFF0007C00F0490F869406840794D
:1044A000062808D0072808D0082808D0092808D0EE
:1044B000002005B0F0BD414D04E0414D02E0414D0A
:1044C00000E0414D0120B0404049FFF728F82A465E
:1044D0000023FBF723FE054602913C490098FFF7B5
:1044E00036F83B4B0022C01851412A46029BFBF78D
:1044F00045FE364A0023FBF711FE00900498019117
:10450000002800D00220301A800004900398B100E7
:10451000C000411AF8694068027A002A00D00122DE
:104520001201407A8918002800D01420081A27495F
:104530001C30FFF70CF80023049AFBF7EFFD0F4641
:104540000646384321D0214A00233046FBF7E6FDDA
:1045500020480021101A1D4A8B4105D20023304605
:104560003946FBF7DBFD07E0002330463946FBF711
:10457000D5FD0022401C5141221D0023FBF7FEFD0A
:10458000124A0023FBF7FAFD01E000200146124B1E
:104590000022C01851412A46029BFBF7EFFD0B4A4F
:1045A0000023FBF7BBFD009A019C101861417D229E
:1045B000D2000023FBF7B2FD401C7AE724F4000090
:1045C00048E8010090D0030020A1070040420F00FE
:1045D00090D940001027000000127A00F8B5054677
:1045E000C0680C4641681E46174600208847A968E7
:1045F0008020096820438847002405E0A968385DC9
:1046000009688847641CE4B2B442F7D3E86841689B
:1046100001208847F8BD07B5012302AAFFF7DEFF96
:104620000EBDF8B516460F460446002503E0394690
:10463000B047641C6D1C20780028F8D12846F8BDCE
:104640000A68531C0B6010707047000070B5054677
:1046500000200B4C02460FE0AB5C1B0258400023CD
:10466000060403D54004000C604001E04004000C47
:104670005B1C082BF4DB521C8A42EDD370BD00009A
:1046800021100000002100E0491C8142FCD370474A
:1046900010B5FCF774FC10BD401EFDD27047000041
:1046A000F0B500230E4D1A462F4619460A3709E089
:1046B000491C445C6E5CB44200D15B1C7E5CB4421D
:1046C00000D1521C445C002CF2D1052A03D0052BEA
:1046D00003D00320F0BD0220F0BD0120F0BD00009A
:1046E00091000020FCF750FDFEF742FBFEF79EF81C
:1046F000FEF766F8FEF74EF8FEF76CF9FEF704F9E0
:10470000FEF744F9FEF702F8FEF7D8FB00F00AFACC
:1047100000F0FEF8FDF7C8FF1C48FDF70BFC1C4934
:1047200010200A68106209680A6802430A6064235C
:10473000032218491648FDF7B7FE142216491448FB
:10474000FDF74EFE144815A12038FEF7BDFE1248B5
:1047500016A11038FEF7B8FE0E4C00252D3CA068BF
:1047600001280ED10C4A00211023203A0846FEF7FA
:104770002FFA094A1023103A02210020FEF728FAE6
:10478000A56000F05FF900F041F9E8E7F0020020D1
:104790002C0300202D000020A00100204758435486
:1047A00020494F54202020202020200048656C6C98
:1047B0006F20576F726C64202020200030B40028D6
:1047C00009D0002907D0002A05D009C8C46A1846B4
:1047D000A44630BC6047022030BCC043704730B4B0
:1047E000002807D0002905D009C8846A1846A446C5
:1047F00030BC6047022030BCC0437047002803D063
:1048000005C88369104618470220C0437047002836
:1048100003D005C8C369104618470220C04370473B
:1048200010B50400029818D0002916D0002814D022
:10483000E0611A486460206008340EC400202070D3
:104840006070143C352207212046FFF7E4FE072163
:104850002046FFF7CDFD352801D0002010BD2046B1
:10486000FFF7CEFD2046FEF799FE00212046FFF718
:1048700023FB00212046FFF71FFB01212046FFF705
:10488000B7FD80210843024601212046FFF7C3FE01
:104890002046FFF710F8204610BD0000B053000876
:1048A000F8B50C4C079E069D2160606020460830DC
:1048B0000CC060C00146083101601C3141600346F4
:1048C00002460090083B103A3C390348FFF7A8FF26
:1048D000F8BD0000B4000020F403002010B5094822
:1048E0000068C169C9060CD5102101620548FDF7B1
:1048F0000DFC054901200870142204490148FDF708
:104900006FFD10BD2C03002000000020A00100203E
:10491000F0B5184887B0C16A01242143C162C06A5A
:10492000022520400590202003266A4671C20527F3
:104930003F0769463846FCF751FB402000900020B5
:1049400001AA61C269463846FCF748FB80206A46E6
:1049500071C269463846FCF741FB01228021384686
:10496000FCF7FDFB012220213846FCF7F8FB07B0DD
:10497000F0BD000000100240F8B5002420270526F5
:1049800025463607B7620120FFF786FE6006040E53
:10499000B7610120FFF780FE40213046FCF7D4FBD1
:1049A000002801D0641CE4B20120FFF775FE6D1CE5
:1049B000EDB2082DE6D3B7620120FFF76DFE204669
:1049C000F8BDF1B500258027202605242407012005
:1049D000FFF762FEA6620098A840000604D50120F9
:1049E000FFF75AFEA76103E00120FFF755FEA7621B
:1049F0000120FFF751FEA6616D1CEDB2082DE6D334
:104A00000120FFF749FEA662A762F8BD10B50A486B
:104A1000416901290ED1002141614288642307497F
:104A20000748FDF741FD0449642303222831044867
:104A3000FDF73AFD10BD0000000000201C01002021
:104A40002C030020F8B5314C00252078012841D1F5
:104A500025702F48FFF724FE012804D002280BD030
:104A6000032823D030E029496423052291312948C5
:104A7000FDF71AFD28A107E02449642305229B3194
:104A80002448FDF711FD25A16846FEF71DFD684687
:104A9000FBF7D5FB82B26946606AFFF7A0FE0221F0
:104AA000606AFFF7B4FE0120E0610DE0174964235E
:104AB000032228311748FDF7F7FC14496423062226
:104AC000A5311448FDF7F0FC114900200D54401C9D
:104AD0001428FBD9E069012817D10126E068F60304
:104AE0000F4F012807D131463846FCF734FBA06947
:104AF000E560401CA061A0690A2806D1A5610122D9
:104B000031463846E561FCF72AFBF8BD000000207D
:104B1000A00100202C030020310000003200000022
:104B20000008005010B5114886B0C26A01210A433E
:104B3000C262C06A052408400590812000010090EF
:104B40000320019102912407039069462046FCF757
:104B500045FA0122D1022046FCF701FB0122102177
:104B60002046FCF7FCFA06B010BD00000010024021
:104B700001210522C9021207002801D09161704766
:104B800091627047052210211207002801D091611F
:104B90007047916270470000000000000000002F85
:104BA000000000000700070000147F147F14002499
:104BB0002A7F2A12006264081323003649552250C6
:104BC00000000503000000001C22410000004122FB
:104BD0001C000014083E08140008083E08080000E5
:104BE00000A06000000808080808000060600000DD
:104BF000002010080402003E5149453E0000427F5B
:104C00004000004261514946002141454B310018A6
:104C100014127F10002745454539003C4A49493068
:104C20000001710905030036494949360006494922
:104C3000291E00003636000000005636000000082D
:104C4000142241000014141414140000412214080A
:104C500000020151090600324959513E007C1211EF
:104C6000127C007F49494936003E41414122007F84
:104C70004141221C007F49494941007F090909013E
:104C8000003E4149497A007F0808087F0000417FC3
:104C90004100002040413F01007F08142241007F75
:104CA00040404040007F020C027F007F0408107FDC
:104CB000003E4141413E007F09090906003E415145
:104CC000215E007F09192946004649494931000102
:104CD000017F0101003F4040403F001F2040201F56
:104CE000003F4038403F0063140814630007087019
:104CF000080700615149454300007F4141000055CC
:104D00002A552A55000041417F0000040201020497
:104D10000040404040400000010204000020545484
:104D20005478007F484444380038444444200038D4
:104D30004444487F00385454541800087E09010246
:104D40000018A4A4A47C007F080404780000447D1B
:104D50004000004080847D00007F10284400000057
:104D6000417F4000007C04180478007C080404782B
:104D700000384444443800FC242424180018242417
:104D800018FC007C08040408004854545420000413
:104D90003F444020003C4040207C001C2040201C20
:104DA000003C4030403C004428102844001CA0A097
:104DB000A07C004464544C441414141414140000D3
:104DC00000000000000000000000000000000000E3
:104DD00000F8000000000000003330000000001068
:104DE0000C06100C0600000000000000000040C08F
:104DF0007840C0784000043F04043F040400007081
:104E000088FC08300000001820FF211E0000F00878
:104E1000F000E018000000211C031E211E0000F01D
:104E20000888700000001E21232419272110101665
:104E30000E00000000000000000000000000000064
:104E400000E01804020000000007182040000002E3
:104E50000418E00000000040201807000000404057
:104E600080F0804040000202010F010202000000B9
:104E700000F0000000000101011F0101010000001D
:104E800000000000000080B0700000000000000082
:104E9000000000000000000101010101010100000B
:104EA00000000000000000303000000000000000A2
:104EB000000080601804006018060100000000E097
:104EC00010080810E000000F102020100F00001044
:104ED00010F8000000000020203F2020000000709B
:104EE0000808088870000030282422213000003093
:104EF0000888884830000018202020110E0000008B
:104F0000C02010F8000000070424243F240000F80B
:104F10000888880808000019212020110E0000E0F0
:104F2000108888180000000F112020110E00003892
:104F30000808C83808000000003F000000000070AA
:104F4000880808887000001C222121221C0000E033
:104F500010080810E0000000312222110F000000AC
:104F600000C0C00000000000003030000000000061
:104F700000800000000000008060000000000000D1
:104F8000804020100800000102040810200040406A
:104F900040404040400004040404040404000008AD
:104FA0001020408000000020100804020100007062
:104FB00048080808F0000000003036010000C0304A
:104FC000C828E810E0000718272423140B0000006D
:104FD000C038E0000000203C23020227382008F8F7
:104FE000888888700000203F202020110E00C030EB
:104FF000080808083800071820202010080008F8C2
:1050000008080810E000203F202020100F0008F8BA
:105010008888E8081000203F20202320180008F886
:105020008888E8081000203F200003000000C030FE
:1050300008080838000007182020221E020008F87F
:1050400008000008F808203F210101213F20000846
:1050500008F8080800000020203F20200000000081
:105060000808F8080800C08080807F00000008F869
:1050700088C028180800203F20012638200008F8A2
:10508000080000000000203F20202020300008F809
:10509000F800F8F80800203F003F003F200008F823
:1050A00030C00008F808203F200007183F00E0103B
:1050B00008080810E0000F10202020100F0008F84A
:1050C00008080808F000203F210101010000E0105D
:1050D00008080810E0000F18242438504F0008F882
:1050E000888888887000203F2000030C30200070E2
:1050F0008808080838000038202121221C001808E0
:1051000008F8080818000000203F2000000008F8F8
:1051100008000008F808001F202020201F00087841
:10512000880000C83808000007380E010000F808A1
:1051300000F80008F800033C0700073C03000818CB
:1051400068808068180820302C03032C3020083831
:10515000C800C83808000000203F200000001008E8
:105160000808C83808002038262120201800000030
:1051700000FE020202000000007F40404000000CE0
:1051800030C000000000000000010638C00000022E
:105190000202FE000000004040407F0000000000CE
:1051A00004020202040000000000000000000000F1
:1051B00000000000000080808080808080800002ED
:1051C00002040000000000000000000000000000D9
:1051D0008080808000000019242222223F2008F8CD
:1051E000008080000000003F112020110E00000010
:1051F000008080800000000E11202020110000009F
:1052000000808088F800000E112020103F20000050
:10521000808080800000001F222222221300008054
:1052200080F0888888180020203F2020000000009F
:10523000808080808000006B94949493600008F8D4
:10524000008080800000203F210000203F2000805F
:105250009898000000000020203F2020000000005F
:1052600000809898000000C08080807F000008F8CF
:10527000000080808000203F24022D3020000008A4
:1052800008F8000000000020203F2020000080805F
:10529000808080808000203F20003F20003F808071
:1052A000008080800000203F210000203F2000007F
:1052B000808080800000001F202020201F00808030
:1052C00000808000000080FFA12020110E0000005F
:1052D000008080808000000E112020A0FF80808050
:1052E00080008080800020203F21200001000000FD
:1052F00080808080800000332424242419000080D2
:1053000080E0808000000000001F202000008080DE
:10531000000000808000001F202020103F2080809F
:1053200080000080808000010E300806010080802F
:105330000080008080800F300C030C300F00008054
:105340008000808080000020312E0E31200080807F
:1053500080000080808080818E70180601000080AF
:105360008080808080000021302C222130000000CD
:105370000000807C020200000000003F404000006E
:105380000000FF00000000000000FF00000000021D
:10539000027C800000000040403F0000000000064A
:1053A00001010202040400000000000000000000EF
:1053B00001440008734400086D440008453F00089C
:1053C0009D38000865430008753F0008BD4200088D
:1053D00033440008C1390008C34000080D430008E9
:1053E0009B370008013800080338000843380008DC
:1053F00000000000000000000000004000008040AD
:105400000000004100002041000060410000804198
:10541000000090410000A04100B1081940F31719A5
:1054200080352719C077361900BA451940FC541940
:10543000803E6419C080731900C382194005921917
:105440008047A119C089B01900CCBF19400ECF19EF
:105450008050DE19C092ED1900D5FC1940170C1AC6
:1054600080591B1AC09B2A1A00DE391A4020491A9B
:105470008062581AC0A4671A00E7761A4029861A73
:10548000806B951AC0ADA41A00F0B31A4032C31A4B
:105490008074D21AC0B6E11A00F9F01A403B001B22
:1054A000807D0F1BC0BF1E1B00022E1B40443D1BF6
:1054B00080864C1BC0C85B1B000B6B1B404D7A1BCE
:1054C000808F891BC0D1981B0014A81B4056B71BA6
:1054D0008098C61BC0DAD51B001DE51B405FF41B7E
:1054E00080A1031CC0E3121C0026221C4068311C52
:1054F00080AA401CC0EC4F1C002F5F1C40716E1C2A
:1055000080B37D1CC0F58C1C00389C1C407AAB1C01
:1055100080BCBA1CC0FEC91C0000000000000000D6
:105520000102030406070809030406080C101820EA
:105530003000000000010203040000005C55000878
:10554000000000201C010000823600087856000888
:105550001C010020FC06000092360008000000003C
:105560000000000001000000010000000100000038
:10557000000000000000000000000000000000002B
:10558000000000000D0A000000313233000000006E
:10559000000000000000000000000000000000000B
:1055A00000000000000000000000000000000000FB
:1055B00000000000000000000000000000000000EB
:1055C00000000000000000000000000000000000DB
:1055D00000000000000000000000000000000000CB
:1055E00000000000000000000000000000565250C3
:1055F000313F0000000000565250323F00000000D2
:10560000004572726F72000000000000010000008F
:10561000000000000000000000000000000000008A
:10562000000000000000000000000000000000007A
:1056300000000000000000007F36000881360008EE
:105640007D3600089B35000899350008400ECF19BB
:10565000140807010100000032000000640000008F
:10566000000A10000000010018540008400000006B
:08567000000020000000000012
:04000005080000C12E
:00000001FF
