:020000040800F2
:1000000058050020D50000081D1D0008FF19000834
:1000100000000000000000000000000000000000E0
:100020000000000000000000000000005520000853
:1000300000000000000000004B1F000857200008CF
:10004000E7000008E7000008E7000008E7000008F4
:10005000E7000008E7000008E7000008CD070008F7
:1000600000000000E7000008E7000008E7000008C3
:10007000E7000008E7000008E7000008E7000008C4
:10008000E700000831210008E70000080000000038
:10009000E7000008E7000008E7000008E7000008A4
:1000A000E7000008E7000008E7000008E700000894
:1000B000E7000008E7000008000000000000000062
:1000C0000348854600F070FB004800474D380008A3
:1000D000580500200448804704480047FEE7FEE733
:1000E000FEE7FEE7FEE7FEE7DD200008C1000008AE
:1000F00030B50B46014600202022012409E00D46C0
:10010000D5409D4205D31D469540491B2546954047
:1001100040191546521E002DF1DC30BDF0B51FB45C
:100120000646002082B005464024019100901BE065
:10013000019922460F46304600F072FA049A059B58
:10014000801A994110D310461946224600F058FAF9
:10015000361A8F410197224601200021009F00F0AE
:100160004FFA38184D4100902046641E0028DFDC0D
:10017000019B00982946324607B0F0BDF0B51FB488
:1001800086B000200090019002900698069980B2F7
:1001900004900798090C02040014114307900027EB
:1001A000089D099806913E463C4603900398A9B2E3
:1001B0000204000C039004982D0C154348430021C1
:1001C000224600F01DFAC719714110340E46402C2A
:1001D000ECDB3846029A00F013FA009A019B801873
:1001E0000090594102980191103002904028CCDBD8
:1001F00000980BB0F0BD03460B439B0703D009E00A
:1002000008C9121F08C0042AFAD203E00B78037051
:10021000401C491C521EF9D27047D2B201E0027054
:10022000401C491EFBD270470022F6E710B513466A
:100230000A4604461946FFF7F0FF204610BD0000AD
:10024000F0B507460846584087B0C00F04904800F4
:100250000E46590040084908BC1A884105D2384664
:1002600031461E4617460B460246580040081043CA
:100270004CD0300D039040055900400D490D0590BC
:10028000401A0290402872DA18030121000B090578
:100290000843019004980092002805D00199524229
:1002A0000020884100920190029840210A1A019989
:1002B000009800F0A5F905460C466B4607CB00F008
:1002C000C0F9C0197141039A0E0D0023D71756408B
:1002D0001A467A40164344D0049A002A2DD0029A36
:1002E000012A039A15DC1205C01A91410126360530
:1002F000001C7141D20F059ED20700930192029615
:100300002A46234600F0FEF907B0F0BD38463146D4
:10031000FAE71605224A0F46B218C01AB741012162
:100320000905001C4F4100187F41114618187941FA
:10033000E20F10436D19644113E0E2076D081543A5
:100340006408C2071443039A01261205C01A91419A
:100350003605001C7141CE07400830434908C018DB
:1003600051412A46234600F0C0F9CDE7FFE7049843
:1003700001224000C117121A00238B410498314614
:10038000C417381AA141EEE730B40124E4076340F2
:1003900030BC55E730B40124E407614030BC4FE77E
:1003A0000000E0FFF0B51FB488B00B990998002455
:1003B00048400999C00F490049080991C0070B99A5
:1003C0000090490049080B9109990898A6460843EE
:1003D0001CD00B990A98084318D0099801244000B2
:1003E000420D4800410D099824050003000B2043ED
:1003F00009900B980003000B20430B9050181C49E8
:100400004018002201901446104605E000200146E5
:100410000DB0F0BD032801DA034600E003239C463B
:10042000C11A0AAE0AE05F0008ADED5B4F00F75B52
:100430007D430027AA187C41491C5B1E6145F2DD03
:10044000410004AB5A522104120C0A43240C401CF4
:100450000828DFDB01980290009970460191009016
:10046000059B049A0799069800F04CF9D0E7000024
:100470000DFCFFFFF0B50C465C4085B0E40FE407CF
:1004800003944C000026640859009446490802462B
:100490000296224321D062460A431ED06200570DC5
:1004A0004A000E032303550D012402462C4924055E
:1004B000781B1B0B360B40182343264361460090E4
:1004C0001C46501AB44103D30098401C009002E02F
:1004D000921800985B41002803DA0020014605B01D
:1004E000F0BD0020012109050746864611E064465B
:1004F0001D46141BB54106D36546521BB3417446D5
:1005000007430C43A646CD074008490828439218E4
:100510005B4105460D43EAD11046184313D06046AF
:10052000194650407140084306D06046101AB34146
:1005300006D20122002306E000220123DB0702E0AD
:100540000122D2435310009874460105381C6141C2
:10055000029C039D0019694100F0C7F8BFE7000045
:10056000FD03000010B500229623114600F084F828
:1005700010BD00000EB505490291002100910A4608
:100580000B46019100F0BEF803B000BD330400003B
:10059000C20F410040020123400ADB05D207090EC9
:1005A000C0187F2901DA00207047962903DC9623C2
:1005B000591AC84001E096398840002AF4D04042D8
:1005C000704700004A0009030123090B1B0519436A
:1005D000094B10B5520D9A4201DA002010BD064BAE
:1005E00034339A4203DC9A1A00F01AF810BD03491A
:1005F0005118884010BD0000FF030000CDFBFFFF35
:1006000010B5202A04DB0146203A9140002010BD9D
:10061000914020239C1A0346E3401943904010BDAB
:1006200010B5202A04DB0846203AD040002110BD36
:100630000B46D340D0402024A21A914008431946CB
:1006400010BD10B5202A06DBCB170846203A104112
:10065000C1170B4306E00B461341D0402024A21AD9
:1006600091400843194610BD002904DA401C490096
:1006700001D140084000704770B40024050C05D13A
:100680001024000402D1002921D01124050E01D12B
:1006900000020834050F01D10001241D850F01D18E
:1006A0008000A41C002801DB4000641C002908D045
:1006B00020252E1B0D46F540A14000D001212943E5
:1006C000084301061B1B000ADB1D02D5002070BC7D
:1006D0007047DB05181880180029F8DA401C49001B
:1006E000F5D170BC40084000704710B5002B08DA07
:1006F0000024401C614192185B411A4301D140081B
:10070000400010BDF0B51FB482B005460C0003D008
:10071000084601F087FD02E001F084FD203002462A
:10072000009021462846FFF76BFF049B059A04467C
:100730000F4618431143084314D0184610431BD0EA
:10074000009840210A1A18460599FFF769FF0546E7
:100750000E46009A05990498FFF752FF084305D00A
:10076000012004E02046394607B0F0BD0020C11743
:1007700005430E432C43374300990E986305401AF6
:100780007905E40A00220C43FD0A0A3002D5002054
:100790000146E9E70105101969410C9C0D9D0019FE
:1007A0006941FFF7A2FFDFE7064C0125064E05E091
:1007B000E36807CC2B430C3C98471034B442F7D382
:1007C000FFF782FC6C4500088C45000810B54020FE
:1007D00000F04AF8802000F047F80120800300F084
:1007E00043F810BD704770B5044600F011F9054696
:1007F000601C00D0641C00F00BF9401BA042FAD32F
:1008000070BD000030B51749FF254A68C335002385
:10081000521C8C6840280BD0802819D14A60AA420B
:1008200016D1012C17D0022C17D0032C09D116E0B9
:100830004A60AA420CD1012C05D0022C05D0032C11
:1008400007D00B6003E00B2000E00C2008604B6039
:1008500030BD0D20FAE71520F8E71620F6E717203F
:10086000F4E700002800002010B504494A6902425C
:1008700002D04861FFF7C6FF10BD00000004014030
:10088000F0B400220B68002B70D0012494400B6858
:10089000A4462340002B6AD04C68022C01D0122CB5
:1008A0000CD1D408A40027183D6A5407E40E0F2683
:1008B000A640B5430E69A6402E433E624C68012C0B
:1008C00005D0022C03D0112C01D0122C11D1856837
:1008D00054000326A640B543CE68A6402E4386604A
:1008E00044686546AC430D79ED06ED0F9540254310
:1008F0004560076854000325A540AF430E79B6074D
:10090000B60FA6403E430660C668AE438D68A5405C
:100910003543C5604C68E40050D52C4C656B01260E
:100920003543656395082A4CAD002F19BD689407BF
:10093000240F0F26A640B54305263607B04201D145
:1009400000261BE0234EB04201D1012616E0224EC4
:10095000B04201D1022611E0204EB04201D103265F
:100960000CE01F4EB04203D1042607E02BE025E047
:100970001C4EB04201D1052600E00626A6402E43BB
:10098000BE60194D2C689C434E68F60300D51C438D
:100990002C606C689C434E68B60300D51C436C60A9
:1009A000AC689C434E68F60200D51C43AC60EC6812
:1009B0009C434E68B60200D51C43EC60521C0B6889
:1009C000D34000D061E7F0BC704700000010024047
:1009D000000001400004005000080050000C0050CE
:1009E00000100050001C0050000401400069084243
:1009F00001D0012070470020704742694A4042619F
:100A00007047002A01D08161704781627047000001
:100A100001480068704700009C00002002480168FF
:100A2000491C0160704700009C00002010B50024A4
:100A300007480168402211430160002000F00AF8D5
:100A4000002801D0012401E000F01CF8204610BD70
:100A50000020024070B50546002409487D21C900E8
:100A60000068FFF745FB00F06DFE002801D001246F
:100A700004E000222946501E00F01AF8204670BDFE
:100A8000980000200448416B012211434163816BAF
:100A9000020411438163704700100240C106C90E71
:100AA00001208840014908607047000000E100E033
:100AB0008207D30EFF229A408907090E9940002829
:100AC0000BDA0007000F0838830808489B00181845
:100AD000C36993430B43C3617047830804489B0079
:100AE0001818036893430B430360704700ED00E060
:100AF00000E400E0F8B5044620785D4D80067BD523
:100B000000265C48806BC00005D45A48816B020403
:100B100011438163012658480168C90517D400684C
:100B2000FF210131084354490860FFF771FF074670
:100B300051480068C0050AD4FFF76AFFC01B64284B
:100B400001D90320F8BD4C480068C005F4D5494FD1
:100B5000386803210905084062681140814208D0C5
:100B60009003800F032804D13868800301D5012049
:100B7000F8BD2869032109040840002824D00A4050
:100B8000824221D0207880061ED5286988432A69B0
:100B90000121C9040A432A612A698A432A6128611A
:100BA000C00511D5FFF734FF0090286980050BD4EC
:100BB000FFF72EFF0099411A3048814201D90320E6
:100BC000F8BD28698005F3D560688103890F032982
:100BD00005D13A6809058A43084002433A6028690A
:100BE000032261681204114008432861012E03D1D9
:100BF000B96B30078143B9632078C00705D0E86836
:100C0000A168800880000843E8602078800705D547
:100C1000E8680C218843E1680843E86020784007D1
:100C200006D5E86803218902884321690843E86002
:100C30002078000706D5E868032109038843616925
:100C40000843E8602088C00506D5E8680321090448
:100C50008843A1690843E8602078000606D5E86863
:100C6000032189048843E1690843E8600020F8BD56
:100C70004010024000100240007000408813000045
:100C8000F8B504460E46002C12D066480068C0072E
:100C9000C00FB0420ED26348016849084900314391
:100CA00001600068C007C00FB04203D00120F8BD4A
:100CB0000120F8BD20785C4F800705D5F868F02149
:100CC0008843A1680843F8602078C00772D0606844
:100CD000022808D003280BD001280ED039688905D6
:100CE00010D40120F8BD396889030BD40120F8BD68
:100CF0003968890106D40120F8BD3968490701D453
:100D00000120F8BDF968890889000143F960FFF7FF
:100D10007FFE0546616802290FD0032920D00129F2
:100D200031D0F9680907890F44D0FFF771FE411BE4
:100D30003E4881423AD90320F8BDF9680907890F76
:100D4000022937D0FFF764FE411B3848814201D9A0
:100D50000320F8BDF8680007800F0228F2D129E0CF
:100D6000F9680907890F032924D0FFF751FE411BB9
:100D70002E48814201D90320F8BDF8680007800F92
:100D80000328F2D116E0F9680907890F012911D06B
:100D9000FFF73EFE411B2548814201D90320F8BDE3
:100DA000F8680007800F0128F2D103E0F868000717
:100DB000800FBAD11B480168C907C90FB1420BD9CE
:100DC000016849084900314301600068C007C00F4D
:100DD000B04201D00120F8BD2078400706D5F86860
:100DE000072109028843E1680843F860207800077A
:100DF00007D5F8680721C90288432169C90008435B
:100E0000F86000F019F8F968094A0906090F515C01
:100E1000C840084908600020FFF71CFE0028DAD10E
:100E2000F8BD0000002002400010024088130000BE
:100E3000504500089800002010B51C4AD1680C23CA
:100E40000846184004280BD0082810D00C2810D0D1
:100E500050680004410F491C0120C003884010BDA8
:100E60001068C00601D5124810BD124810BD1248C6
:100E700010BD8802114B000F185C0902890F491C34
:100E8000D368DB0304D50C4A5043FFF731F910BD9A
:100E90001268D20604D5064A5043FFF729F910BD5F
:100EA000044A5043FFF724F910BD0000001002402F
:100EB00000093D000024F40000127A00604500089B
:100EC000F0B583B00446002C0FD0F64EF5680C2028
:100ED0000540F7680120000407402078C0075BD078
:100EE000082D09D00C2D03D00FE0012003B0F0BD78
:100EF00001200004874208D1306880034CD5606827
:100F0000002849D1012003B0F0BD01206168000430
:100F1000814203D131680143316015E0052301228C
:100F20001B049204994206D1316811433160316843
:100F30000143316008E0316881433160316801402C
:100F400001913068904330606068002812D0FFF74C
:100F50005FFD0290306880031ED4FFF759FD0299AF
:100F6000401A642802D9032003B0F0BD3068800322
:100F7000F3D511E0FFF74CFD0290306880030BD5EC
:100F8000FFF746FD0299401A642802D9032003B0F6
:100F9000F0BD30688003F3D42078800767D5E0681F
:100FA000810604D5326820210A4332608843092330
:100FB000042D17D00C2D01D1002F13D0002841D0C3
:100FC0003168994301433160FFF722FD07463068DD
:100FD00040072ED4FFF71CFDC01B022826D9032092
:100FE00003B0F0BD3168490701D500281BD07168F6
:100FF0001F2212029143226912021143716031686B
:10100000994301433160FFF717FFF16809060A0FA2
:10101000A549895CC840A54908600020FFF71AFD72
:101020000028DDD123E0012003B0F0BD3068400787
:10103000D0D570681F21090288432169090208433D
:10104000706014E03068400840003060FFF7E0FC5A
:101050000746306840070AD5FFF7DAFCC01B0228B4
:1010600002D9032003B0F0BD30684007F4D42078E3
:10107000C0066AD5002D15D0A06900284FD0306871
:10108000FF21013108433060FFF7C2FC074630689A
:10109000800535D4FFF7BCFCC01B02282DD90320E6
:1010A00003B0F0BD3068800502D5A069002821D0CA
:1010B0007068072149038843216A0843706070689B
:1010C000217F0002000A090608437060206A410B74
:1010D000491C0120C0038840F16809060A0F7249C3
:1010E000895CC840714908600020FFF7B3FC002804
:1010F000D6D12AE0012003B0F0BD30688005C9D503
:101100007068072149038843216A0843706070684A
:10111000217F0002000A09060843706015E031686B
:10112000FF20013081433160FFF772FC07463068D1
:1011300080050AD5FFF76CFCC01B022802D90320EA
:1011400003B0F0BD30688005F4D42078584F000714
:101150002FD56069002816D038690121084338610D
:10116000FFF756FC02903869800722D4FFF750FC45
:101170000299401A022802D9032003B0F0BD386951
:101180008007F3D515E03869400840003861FFF763
:101190003FFC0290386980070BD5FFF739FC0299B4
:1011A000401A022802D9032003B0F0BD3869800735
:1011B000F3D42078400774D500200190B06BC000B4
:1011C00006D4B06B012109070843B06301200190E8
:1011D00038480168C90518D40168801501433548AD
:1011E0000160FFF715FC029032480068C0050CD47E
:1011F000FFF70EFC0299401A642802D9032003B0BD
:10120000F0BD2C480068C005F2D5FF20A26801306F
:10121000824203D13969014339611BE0012189020E
:10122000002A0AD005231B029A420DD13A690A43CB
:101230003A613969014339610CE03A6982433A61A4
:1012400038698843386105E03A6982433A61386910
:1012500088433861A068002813D0FFF7D9FB0290BB
:10126000386980052DD4FFF7D3FB0299411A124843
:10127000814202D9032003B0F0BD38698005F2D560
:101280001FE0FFF7C5FB02903869800519D5FFF70D
:10129000BFFB0299411A084881420FD9032003B0CD
:1012A000F0BD16E0001002405045000898000020F4
:1012B000401002400070004088130000386980052B
:1012C000E5D40198012804D1B06B012109078843B6
:1012D000B063606A002864D00C2D49D001252D062A
:1012E00002280FD03068A8433060FFF791FB044616
:1012F0003068800155D5FFF78BFB001B022833D9DE
:101300000320CCE73068A8433060FFF781FB074635
:101310003068800109D5FFF77BFBC01B022801D98B
:101320000320BCE730688001F5D4E16AA06AF26866
:101330000843216BFD231B049A4311430843F060CB
:10134000306828433060FFF763FB04463068800153
:1013500027D4FFF75DFB001B022801D903209EE77D
:1013600030688001F5D51CE030688001C3D418E0F6
:10137000012814D0F06801210904A26A01409142B9
:101380000BD10F218904E26A0140914205D103216A
:1013900089050840216B884203D001207FE70120A6
:1013A0007DE700207BE7000010B50B460068416830
:1013B0000D480140080CD870CC04E40E5C708C061B
:1013C000A40E9C700904490F1970002A0AD100F07C
:1013D000BDFDD870587800F0B9FD5870987800F0CD
:1013E000B5FD9870002010BD3FFFFF0010B50B4603
:1013F0000168896A5960016809694904490C996062
:10140000006801680E4801408802800E18704C0484
:10141000640E5C704C06640E9C70090C40242140E4
:10142000D970002A0AD100F091FD1870587800F0A8
:101430008DFD5870987800F089FD9870002010BDDF
:101440007F7F7F00F8B50446002C05D02546203567
:101450006878002802D006E00120F8BD002028703E
:10146000204600F055F8022068702168CA204862C2
:10147000216853204862204600F07CFDFF260427A7
:10148000002804D0206846626F700120F8BD2068F3
:1014900081681E4A11408160206881686268A36982
:1014A000114322691A43114381602168E068086191
:1014B0002068016922891204114301612068C16812
:1014C00080229143C1602068C16C89088900C16491
:1014D000E169606901432068C26C1143C1642068FE
:1014E000806880060BD4204600F00EF9002806D054
:1014F000206846626F70002028700120F8BD2068C7
:101500004662012068700020F8BD0000BFFF8FFF19
:1015100000680549884205D1044801690122920406
:101520001143016170470000002800404010024054
:10153000F8B504460B46254620352878012806D004
:101540000120287002206870002A02D008E00220E2
:10155000F8BD5878C10603D5EF2108400A3058700D
:10156000002A1DD0D8789E78000406435878197850
:1015700000024903084306432168CA2048622168E3
:1015800053204862204600F0F5FC0027002818D0C0
:101590002168FF204862042068702F700120F8BD88
:1015A000D87800F0DBFC0604587800F0D7FC000285
:1015B0000643987800F0D2FC0643187840030643AF
:1015C000DAE711480640206846602068C16880223A
:1015D0009143C1602068806880060CD4204600F0EA
:1015E00093F8002807D02168FF2048620420687023
:1015F0002F700120F8BD2168FF204862012068702B
:101600002F700020F8BD00003FFFFF00F8B5044632
:101610000D46264620363078012829D0012030702A
:1016200002207070002A25D020688068400601D40E
:101630000020E8702878AF78000407436878E978DC
:1016400000020904084307432168CA204862216850
:1016500053204862204600F08DFC002821D02168EC
:10166000FF20486204207070002030700120F8BD17
:101670000220F8BD20688068400601D40020E87090
:10168000287800F06BFC0704687800F067FC000223
:101690000743A87800F062FC0743E878000407439A
:1016A000D2E7184807402068076020688168012257
:1016B000920491438160E968286901432068826847
:1016C000114381602068C16880229143C160206815
:1016D000806880060DD4204600F016F8002808D057
:1016E0002168FF20486204207070002030700120C3
:1016F000F8BD2168FF204862012070700020307022
:10170000F8BD00007F7F7F0070B504462068C16887
:10171000A0229143C160FFF77BF905462068C068AD
:1017200080060CD47D26F600FFF772F9401BB0420C
:1017300001D9032070BD2068C0688006F4D5002060
:1017400070BD000010B40B49401E884202D910BC85
:10175000012070470849486108480723C2691202FE
:10176000120A4C042243C261002088610B6110BC44
:1017700070470000FFFFFF0000E000E004ED00E024
:10178000F0B402462032137E012B16D001261676C5
:101790000223537603685C689F687025AC430D682C
:1017A00025438024A743496839435D600068816010
:1017B000567600201076F0BC7047F0BC02207047CF
:1017C00070B50446002C05D025462035687E0028DB
:1017D00002D006E0012070BD00202876204600F0EF
:1017E0000BF802206876211D206800F0A9FC01207A
:1017F0006876002070BD000010B500680849884276
:101800000CD10848816B1022114381630022022110
:101810001120FFF74DF91120FFF740F910BD00002E
:1018200000100040001002400168CB680122134301
:10183000CB60006881684907490F062902D001681A
:101840001143016000207047704770B5044620685E
:1018500001690025C9438907002916DBC168C9430E
:10186000890712D4E91E0161012020762068806971
:10187000800703D02046FFF7E7FF05E0204600F091
:101880007BF8204600F079F8257620680169C94385
:10189000490718D4C168C943490714D40421C9436E
:1018A000016102202076206880698005800F03D0C6
:1018B0002046FFF7C9FF05E0204600F05DF820460E
:1018C00000F05BF8257620680169C943090717D441
:1018D000C168C943090713D40821C9430161042021
:1018E00020762068C069800703D02046FFF7ACFF50
:1018F00005E0204600F040F8204600F03EF825764E
:1019000020680169C943C90618D4C168C943C9061A
:1019100014D41021C9430161082020762068C069D1
:101920008005800F03D02046FFF78EFF05E020469C
:1019300000F022F8204600F020F8257620680169A2
:10194000C943C90708D1C168C943C90704D1891E61
:101950000161204600F012F820680169C943490678
:1019600009D4C168C943490605D44021C94301616E
:10197000204600F043F870BD7047704770B50068AE
:101980001A49884230D11A4C0A2125686D1C284614
:101990002560FEF7ADFB0026002905D1A068401C9C
:1019A000A060052800D1A66064212846FEF7A0FBB0
:1019B000002904D1606800280AD0002060607D21E1
:1019C000C9002846FEF794FBA069014302D006E057
:1019D0000120F3E70121C9030648FFF70EF8064985
:1019E0002068884200D1266070BD000000100040D1
:1019F0000000002000080050102700007047FEE79C
:101A000070B50446082517E0002000F0D2FA022045
:101A100001F06CFEE009C00100F0F8FA022001F0CC
:101A200065FE6006040E022001F060FE012000F059
:101A3000C0FA022001F05AFE28466D1EEDB20028C1
:101A4000E2D100F0B6FA022001F050FE70BD10B5F0
:101A5000012000F0DBFA022001F048FE012000F036
:101A6000A8FA022001F042FE002000F0CFFA022086
:101A700001F03CFE002000F09CFA022001F036FE4E
:101A800010BD10B5002000F094FA022001F02EFEE7
:101A9000002000F0BBFA022001F028FE012000F037
:101AA00088FA022001F022FE012000F0AFFA0220A5
:101AB00001F01CFE10BD10B5052400F091FA0220C3
:101AC00001F014FE012000F074FA022001F00EFE75
:101AD00006E0641EA4B2022001F008FE002C0DD026
:101AE00000F076FA0028F4D100F09EFA002000F011
:101AF00060FA022001F0FAFD002010BD00F094FA17
:101B0000FFF7BFFF012010BD1CB50F490F48019121
:101B100000900F4B0F4A1049104801F083FF104C02
:101B2000002820620ED00F4901F029FF002805D1BE
:101B300001210022C9030C48FEF763FF0221206A3D
:101B400001F026FF1CBD000001370008F93600082F
:101B5000BD3B0008A93B0008133B0008C93A000838
:101B600000000020400ECF1900080050F0B587B0EB
:101B700014216846FEF758FB3348C26A04210A4321
:101B8000C262C26A0A400592C16A02242143C1624C
:101B9000C16A21400591C16A01263143C162C06A10
:101BA000A50330400590002229462848FEF729FF6A
:101BB000002233212648FEF724FF05200022E10100
:101BC0000007FEF71EFF6003224F00906946019751
:101BD00002941E48FEF754FE0095002501960295DA
:101BE00069461A480395FEF74BFE30200090029597
:101BF0006946019603951648FEF742FE03200090C1
:101C000069460196039502941148FEF739FEE001FA
:101C10000090052069460196039502940007FEF79F
:101C20002FFEC02000906946019702940848FEF7F5
:101C300027FE002201210720FEF73AFF0720FEF7CA
:101C40002DFF07B0F0BD000000100240000800505A
:101C5000000400500000111010B51B491B4800245F
:101C600012C07F2101608460C460FF2104613431AF
:101C7000446141600838FFF7E5FB002801D0FEF71A
:101C8000B1FD124816211438017020214170322113
:101C90008170C4600146046100221430FFF7B6FC75
:101CA000002801D0FEF79EFD094801210170417016
:101CB0008170C470014600220448FFF739FC0028F7
:101CC00001D0FEF78FFD10BD00280040D400002099
:101CD000240000201CB500240E4800940C490194F7
:101CE00001601F21846041600B494461C160FFF7BE
:101CF00067FD002801D0FEF775FD00946946054890
:101D00000194FFF73DFD002801D0FEF76BFD1CBDDF
:101D100000100040F8000020E7030000704770B595
:101D200000242046B030C1B2002000F0F3F80021BA
:101D3000084600F0EFF81021002000F0EBF8002535
:101D40000021012000F0E6F86D1CEDB2802DF7D3E4
:101D5000641CE4B2042CE4D370BD10B5AE210020A5
:101D600000F0D8F8D521002000F0D4F88021002020
:101D700000F0D0F8A821002000F0CCF81F210020AE
:101D800000F0C8F8D321002000F0C4F80021084674
:101D900000F0C0F84021002000F0BCF8B021002085
:101DA00000F0B8F88D21002000F0B4F814210020D4
:101DB00000F0B0F8A121002000F0ACF8C82100200C
:101DC00000F0A8F8DA21002000F0A4F8002108466D
:101DD00000F0A0F88121002000F09CF8FF210020F5
:101DE00000F098F8D921002000F094F81F2100207D
:101DF00000F090F8DB21002000F08CF8402100205A
:101E000000F088F8A421002000F084F8FFF787FF95
:101E1000AF21002000F07EF810BD000010B5054B8A
:101E2000012805D0012220211846FEF7EAFD10BD49
:101E30000022F8E70004005010B50446B031C9B2E2
:101E4000002000F067F821090020103100F062F84E
:101E50002107090F002000F05DF810BDFFB581B02B
:101E6000203A019800240D46D6B27F2803D90020DD
:101E70008D1CEDB20190102B29460FD0FFF7DCFF2F
:101E80000620464314483518295D012000F042F829
:101E9000641CE4B2062CF7D305B0F0BDFFF7CCFF0D
:101EA00037010E4E3819315C012000F033F8641C04
:101EB000E4B2082CF6D36D1CE9B20198FFF7BCFF21
:101EC000002438198019017A012000F023F8641CDD
:101ED000E4B2082CF5D3DFE7CE3B0008F63D00085E
:101EE000FFB581B017460E46044600250DE0314689
:101EF0002046049BFFF7B2FF0834E4B2782C02D9E5
:101F00000024B61CF6B26D1CEDB27A5D002AEED14B
:101F100005B0F0BD70B50D460446FFF798FD78207A
:101F2000FFF76EFDFFF7C7FD002C0CD04020FFF738
:101F300067FDFFF7C0FD2846FFF762FDFFF7BBFD19
:101F4000FFF79FFD70BD0020F1E7704701090A22ED
:101F500051430007000F4018C0B2704700210A2803
:101F600004D3491C0A38C0B20A28FAD20907090E5C
:101F70000843704770B504462068C168490616D406
:101F80000021C943C160FEF743FD05462068C068D3
:101F900040060CD47D26F600FEF73AFD401BB04209
:101FA00001D9032070BD2068C0684006F4D5002028
:101FB00070BD0521FF2209070132002803D088697E
:101FC000104388617047886A104388627047000038
:101FD00010B510210148FEF709FD10BD00040050A6
:101FE00000B585B014216846FEF71EF910200021C7
:101FF0000090012001910391029069460248FEF78A
:102000003FFC05B000BD000000040050054910224F
:10201000002803D08869104388617047886A10439C
:10202000886270470004005000B585B014216846EE
:10203000FEF7FAF810200090012001900020029095
:10204000039069460248FEF71BFC05B000BD000086
:1020500000040050704710B5FEF7E0FC10BD000012
:1020600010B59AB034216846FEF7DEF814210DA8A9
:10207000FEF7DAF8202112A8FEF7D6F81648016814
:102080000322D2029143C214891801600A200090F1
:102090001020049002200990400401210B900001BF
:1020A000059100240C9003910A946846FEF708FFFE
:1020B0000F200D9003200E900F9410940121119485
:1020C0000DA8FEF7DDFD202012900003139012A84A
:1020D000FEF710FD1AB010BD0070004010480168F6
:1020E000821511430160C1680E4A1140C160016848
:1020F0000D4A11400160816849084900816001680A
:102100000122920491430160C168FD2212049143AF
:10211000C160002101610549C0038860704700006B
:10212000001002400C40FF88F6FFF6FE00ED00E0D4
:1021300010B50248FFF789FB10BD0000F800002031
:10214000F0B402680124A407144D154E154FA042A7
:1021500005D0A84203D0B04201D0B84203D17023C9
:102160009A434B681A43A04205D0A84203D0B0421C
:1021700001D0B84204D103231B029A43CB681A430F
:1021800080239A430B691A4302608A68C262096815
:10219000816201214161F0BC7047000000040040F1
:1021A000000801400014014010B50122D1030D4880
:1021B000FEF727FC0120FFF731FEC820FEF713FBD6
:1021C000FFF7CBFDFFF7ABFD0021102306A2084669
:1021D000FFF786FE102304A202210020FFF780FEF5
:1021E00010BD0000000800502020202020202020CA
:1021F0002020202020202020000000000FB410B557
:1022000004A9074B02AA039801F0A6F8044602A904
:10221000002001F049FA204610BC08BC04B0184761
:10222000A93600082021020C01D010211046020A14
:1022300001D010460839020901D01046091F820852
:1022400001D01046891E420801D0881E7047081A26
:102250007047F8B504148BB2264682B25E430D1463
:102260001046371458433604801900217941164628
:102270006E43371436048019794126466E43891916
:10228000F8BDF8B5040C8BB2264682B25E430D0C45
:102290001046370C58433604801900217941164600
:1022A0006E43370C36048019794126466E438919EE
:1022B000F8BD30B47446641E2578641CAB4200D26D
:1022C0001D46635D5B00E31830BC184770477047DC
:1022D000FEB50546092100F025FF0190062128469C
:1022E00000F020FF04040721284600F01BFF000235
:1022F00004430821284600F015FF2043FEF73AF971
:102300002A4F00223B46FEF74DF8FEF75BF90646E2
:1023100000220921284601F018F83B21284600F048
:1023200001FF4024204302463B21284601F00DF8DE
:102330003B21284600F0F6FE8006F9D4D9206946F4
:10234000087000204870887003236A4606212846DA
:1023500000F0DEFF3B21284600F0E4FE2043024669
:102360003B21284600F0F1FF3B21284600F0DAFE31
:102370008006F9D409212846019A00F0E6FF30468C
:10238000FEF7F8F800223B46FEF774F8FEF71AF95C
:10239000020C69460A70020A4A70887003236A4672
:1023A0000621284600F0B4FFFEBD000080844E40A8
:1023B00070477047704702E008C8121F08C1002A22
:1023C000FAD170477047002001E001C1121F002AB6
:1023D000FBD17047F8B50446C0690E464068C07A24
:1023E000012810D11C21204600F09CFEE1698006E6
:1023F0004D68800E296AFDF77BFE8800E96909585F
:10240000204600F051FC002525750121204600F0F2
:10241000EDFBFA221121204600F097FF40221146E1
:10242000204600F092FF40224121204600F08DFF1F
:102430000A206075207D012738432075072120463A
:1024400000F0D4FB1221204600F06CFE4007F9D5C5
:1024500004221221204600F078FF207D0421084349
:102460002075E06900688169002901D00120884752
:102470001221204600F056FEC00708D0012212218A
:10248000204600F062FF3770207D082102E03570A1
:10249000207D0221084320750121204600F0A6FB83
:1024A00065750020F8BD70B50C460546312100F079
:1024B00039FEC208D20022433121284600F045FFF0
:1024C00070BD10B50A46372100F03FFF10BD10B5B2
:1024D00000240B00FFF7EDFE092C060B13171B1F42
:1024E00023282C001146FFF775FF044620E01178E1
:1024F000002900D00121C0694068C17218E011783C
:1025000000F03CFC14E0117800F04BFC10E0117876
:1025100000F048FB0CE0117800F094FB08E0C06983
:1025200011784068817203E01278392100F00DFFC4
:10253000204610BD704710B50446407D022817D1D3
:1025400080221221204600F000FFE0694068807A76
:1025500000280ED00021204600F048FB00206075C6
:10256000E0690068002803D0C068002800D08047D8
:1025700010BD0220F3E770B50446407D022801D06B
:10258000062824D1E0694068C07A01281AD11C21AC
:10259000204600F0C7FD8506E069AD0E4668284676
:1025A000316AFDF7A5FD8800F1690958204600F061
:1025B0007BFBE0690068002804D04169002901D054
:1025C0002846884702221221204600F0BEFE70BD38
:1025D00038B50C4602236A46202100F07FFD68468C
:1025E000008840BA2080002038BD38B5044600205D
:1025F000607520220C21204600F0A7FEE0694068AB
:102600000168204600F050FBE0694068817920466F
:1026100000F0C7FBE0694068C179204600F0C2FACB
:10262000E0694068017A204600F00CFBE0694068F0
:102630004179204600F0A2FBE0691D214068457AFF
:10264000204600F06FFD420852002A431D2120461B
:1026500000F07BFEE069022340686A4645721E2155
:10266000204600F03BFD1E21204600F05BFD0146A8
:10267000684601701F21204600F054FD684600782E
:10268000FF258208920003200243684602701E2143
:10269000204600F05AFE2A461F21204600F055FE33
:1026A000E0694068417D204600F0DFFAE06940685B
:1026B000C18A204600F0E0FA3F220B21204600F0BC
:1026C00044FE80250921204600F02CFD4206520ED2
:1026D0002A430921204600F038FEE06904214068C1
:1026E0004156204600F0FEFA0121204600F07EFA15
:1026F00038BD000070B50C4605461B2100F012FDE8
:10270000E969054A49680968914201D99D3800E0A4
:10271000A4382080002070BD40DD4A1FF7B5044674
:10272000C069002640681546007A002805D01C21A3
:10273000204600F0F7FC400618D51221204600F094
:10274000F1FC800616D520221221204600F0FDFD66
:10275000E0690068002803D00069002800D08047A5
:10276000E0694068807A002801D0667586E0022022
:10277000607583E02046192100F0D4FC010605D5E0
:10278000C043401C0006800E404200E08008607696
:102790001A21204600F0C6FC19216156474A00293B
:1027A0000DDAE3695B681B68934203D909180009D5
:1027B0009D3802E009180009A43808180BE0E16907
:1027C00049680968914203D9010908189D3802E057
:1027D00001090818A43860831021204600F0A2FCEB
:1027E0000746E0694068407A012814D0132120464A
:1027F00000F098FC28703A460D21204600F0A5FD17
:102800002A782046019900F086FCE0694068807EC5
:10281000012820D038E03A460D21204600F095FDF1
:10282000E0694068817E012909D0427D20460199F6
:1028300000F071FCE0694068407D2870E5E7407D6C
:102840000199801CC2B2204600F065FCE069406836
:10285000407D801CF1E729780198891E00F02AFF4D
:102860000146030A019A2878921E825C934205D1A0
:10287000CAB20199491E415C8A4203D00A202E70D7
:10288000C043FEBD801E2870E0690068002809D0A2
:102890008768002F06D019231A22E356A25E2978F2
:1028A0000198B847E0694068807A002802D06675D0
:1028B0000020FEBD02206075FAE7000040DD4A1FDF
:1028C00070B50446012100F091F9E069416848794A
:1028D000092802D00322362111E00868AA4988425B
:1028E00006D902223621204600F02FFD642205E0A1
:1028F00002223621204600F028FD7F223A21204680
:1029000000F023FDE0694068057E012D33D03321BE
:10291000204600F007FCBE210840421C332120461F
:1029200000F013FD1D223B21204600F00EFDE06962
:1029300040680576E069802540684079092877D2AB
:102940003121204600F0EEFB4206520E3121204696
:1029500000F0FBFC00223021204600F0F6FCE0698C
:10296000406840790300FFF7A4FC09131A2734419B
:102970004E64646469003321204600F0D3FB41219A
:10298000084302463321204600F0DFFC1922CAE743
:1029900048222F21204600F0D8FC7C4944E0442204
:1029A0002F21204600F0D1FCE06940680068FDF767
:1029B000E1FD0022764B32E044222F21204600F038
:1029C000C4FCE06940680068FDF7D4FD0022714B4B
:1029D00025E044222F21204600F0B7FCE069406842
:1029E0000068FDF7C7FD00226B4B18E044222F2141
:1029F000204600F0AAFCE06940680068FDF7BAFDD7
:102A00000022664B0BE044222F21204600F09DFC63
:102A1000E06940680068FDF7ADFD0022604BFDF7FE
:102A20000FFCFDF7CFFD0146204600F03DF905E023
:102A300013E040222F21204600F087FCE069426825
:102A400051799079062910D0072910D0082910D083
:102A5000D07A002810D001210FE03121204600F06B
:102A600061FB284302463121E5E70A28F3D00B2811
:102A7000F1D00C28EFD0EBE70021204600F0A5F8BC
:102A8000E0694068C07A012826D14421204600F040
:102A900049FB284302464421204600F056FCE069E9
:102AA00024214068027B204600F04FFC1C21204678
:102AB00000F038FBE16980064D68800E296AFDF759
:102AC00017FB8800E9690958204600F0EDF8E06935
:102AD0004068C07A012821D00F221121204600F041
:102AE00034FC4021204600F01DFB0C210840401C16
:102AF00002464021204600F028FC4121204600F0FB
:102B000011FB8206920E41212046803200F01DFC0E
:102B1000E0694068417A01290CD012E01D221121A0
:102B2000204600F012FC4021204600F0FBFA332141
:102B30000840DDE7817E01291FD0417D204600F05D
:102B400094F8FF221221204600F0FFFB022060755E
:102B5000E0694068807A012813D000220F212046C6
:102B600000F0F3FB00220D21204600F0EEFB0521D2
:102B7000204600F03BF8002070BD407D801CC1B2B3
:102B8000DCE70621F4E7000040DD4A1F821E00005A
:102B90000082BE400082CE408057D4408084DE4018
:102BA000C058E44070B50C4605461D2100F0BAFA45
:102BB000F121084061000843C2B21D21284600F0FF
:102BC000C4FBE8694068C47170BD70B50C46054629
:102BD000262100F0A7FAF7210840E1000843C2B21D
:102BE0002621284600F0B1FB70BD000070B50C46F0
:102BF0000546012100F096FA4107490F064A8C422A
:102C0000117006D0C208D20022430121284600F0EC
:102C10009CFB002070BD00003400002070B50C4605
:102C200005464D2100F07EFA0921284600F07AFA87
:102C3000002C01D0872200E084224D21284600F09C
:102C400084FB70BD70B50C4605461E2100F06AFA83
:102C5000FB210840A1000843C2B21E21284600F013
:102C600074FBE8694068047270BD10B50A46222101
:102C700000F06BFB002010BD38B50C460546022362
:102C80006A46202100F02AFA210A68460170447041
:102C900002236A462021284600F03AFBE869406892
:102CA000C482002038BD000038B50446C0694068C1
:102CB00001600846FDF75EFC0022094BFDF7DAFBD8
:102CC000FDF780FC020C69460A70020A4A7088709F
:102CD00003236A460621204600F01AFB002038BD77
:102CE00080844E4070B50C460646112901DD012155
:102CF00000E00021FFF792FF0921304600F012FAB0
:102D000005464D21304600F00DFA0146EA097020D3
:102D1000002A25D087228A4303D0022C0DDA022410
:102D20000EE0052C01DA052402E0142C00DD142449
:102D300005432A091201601F06E0112C00DD112451
:102D400005432A091201A01E0007000F02430921B2
:102D5000304600F0FAFAF06940680471E0B270BDE4
:102D60000021C9438C4201DA0C4602E00E2C00DD42
:102D70000E2405432A091201601CE5E770B50C46D4
:102D800005461D2100F0CEF90007000F2101084380
:102D9000C2B21D21284600F0D8FAE86940684471A3
:102DA00070BD70B50C4605460C2901D90C2405E010
:102DB000062C01D2062419E0062C17D00321FFF7B8
:102DC00072FB0A212846FFF77CFB1E21284600F0F3
:102DD000A9F90007000F21010843C2B21E212846AD
:102DE00000F0B3FAE8694068847170BD0521FFF70F
:102DF0005AFB0C21E6E7FEB500270E4604461546B1
:102E0000002908D0E0694068817E381F012905D07B
:102E1000FF2D02D80FE00220C043FEBDFD2DFCD8DF
:102E20001146304600F046FC010A71556D1CA9B2EE
:102E30007054491C8DB2E8B2009001212046FFF782
:102E4000D5FEE0694068457E012D33D03321204610
:102E500000F068F9BE210840421C3321204600F0F2
:102E600074FA1D223B21204600F06FFAE0694068A9
:102E70004576E0694068C17A012928D0F72000250D
:102E800001902A462421204600F05FFA11212046B5
:102E9000019A00F05AFAE06942685179907906295E
:102EA0002CD007292CD008292CD0D07A00282CD05F
:102EB00001212BE03321204600F034F9BE210840E7
:102EC00002463321204600F040FA1922CAE7F521D4
:102ED0000191057B1C21204600F024F9E169800660
:102EE00049680291800E096AFDF702F9880002998B
:102EF000C96909582046FFF7D7FEC2E70A28D7D08C
:102F00000B28D5D00C28D3D0CFE700212046FFF7DF
:102F10005CFE0121204600F005F9400707D10121A0
:102F20002046FFF763FE2169642049688847222113
:102F30002046009A00F009FA00220E21204600F0F7
:102F400004FA00220D21204600F0FFF92046324607
:102F50000021009B00F0DCF977224021204600F0A0
:102F6000F4F930224121204600F0EFF9FF2212212E
:102F7000204600F0EAF92046009900F017F90546CE
:102F80000620607503212046FFF730FE0A3518E061
:102F90002169012009688847E0694068007D0028B0
:102FA0000FD07F1CAF420CD9E06900684068002850
:102FB00000D0804701212046FFF718FE0820C043BB
:102FC000FEBD1221204600F0ADF80007E0D5E06913
:102FD00000680068002800D080470822122120469F
:102FE00000F0B3F901212046FFF700FE0020FEBDEE
:102FF00070B5044600200546002917D0012915D0D8
:10300000022918D0032910D11E21204600F08AF889
:103010000821084302461E21204600F096F90321AC
:103020002046FFF7E3FD0621617570BD2046FFF7DE
:10303000DDFD657570BD2046FFF742FC0221F3E718
:10304000F8B507460025684614460E460570002967
:1030500016D0002C14D025801221384600F062F8DA
:10306000410610D540221221384600F06EF96A461A
:1030700031463846FFF752FB694609782180F8BD92
:103080000220C043F8BD000603D509207D75C0436A
:10309000F8BD0620C043F8BD70B588B014460D4693
:1030A000064620220C496846FDF7A5F8082D03D9ED
:1030B0000320C04308B070BDA80069460858FDF75A
:1030C00067FA41B23046FFF70DFE002C02D0FDF743
:1030D00049FA20600020EDE730440008F8B50546C5
:1030E000C0680C4641681E46174600208847A968FC
:1030F00060060968400E8847002405E0A86840681B
:1031000080473855641CE4B2B442F7D3E86841689C
:1031100001208847F8BD134610B50A460021FFF785
:10312000DDFF10BD08B501236A46FFF7D7FF6846EB
:10313000007808BD10B50446C068016800290FD0AA
:10314000002088472169022009688847E0680168F3
:103150000120884721690A2009688847002010BD9E
:103160000020C04310BD30B5457D002202242B0055
:10317000FFF79FF80B0E1010090907070E0E121229
:103180000E00032009E0C0694068807A002801D061
:103190000A7003E00C7001E004200870002030BDCC
:1031A0000520C04370470520C0437047F0B585B087
:1031B00007460391C069262140688679C479C08A90
:1031C00000903846FFF7AEFF0007C00F0490F86983
:1031D00040684079062808D0072808D0082808D079
:1031E000092808D0002005B0F0BD414D04E0414D54
:1031F00002E0414D00E0414D0120B0404049FFF761
:1032000028F82A460023FCF789FF054602913C492D
:103210000098FFF736F83B4B0022C01851412A4670
:10322000029BFCF7ABFF364A0023FCF777FF0090C8
:1032300004980191002800D00220301A80000490E8
:103240000398B100C000411AF8694068027A002A68
:1032500000D001221201407A8918002800D01420E1
:10326000081A27491C30FFF70CF80023049AFCF7D2
:1032700055FF0F460646384321D0214A00233046E9
:10328000FCF74CFF20480021101A1D4A8B4105D243
:10329000002330463946FCF741FF07E00023304663
:1032A0003946FCF73BFF0022401C5141221D002300
:1032B000FCF764FF124A0023FCF760FF01E00020E6
:1032C0000146124B0022C01851412A46029BFCF7CE
:1032D00055FF0B4A0023FCF721FF009A019C1018B0
:1032E00061417D22D2000023FCF718FF401C7AE7E1
:1032F00024F4000048E8010090D0030020A107005A
:1033000040420F0090D940001027000000127A00C0
:10331000F8B50546C0680C4641681E4617460020B1
:103320008847A9688020096820438847002405E071
:10333000A968385D09688847641CE4B2B442F7D3D1
:10334000E868416801208847F8BD07B5012302AA53
:10335000FFF7DEFF0EBD0000FFB58FB0054600266B
:1033600006E025280AD0129A119990476D1C761C08
:1033700028780028F5D1304613B0F0BD002402941F
:103380000121B54A009400E004436D1C2B780846E7
:10339000203B98401042F7D128782A280ED00222EC
:1033A000287801463039092916D802990A23594349
:1033B0003039401814436D1C0290F1E7109802C890
:1033C00002911090002904DA01204003044348428E
:1033D0000290022004436D1C28782E2817D1042067
:1033E000044368786D1C2A280CD110986D1C02C803
:1033F000009110900BE000990A2251433039401897
:103400006D1C00902878014630390929F3D92878B5
:103410006C2810D006DC4C281AD068280ED06A28F8
:1034200017D104E0742813D07A2812D110E00120BB
:10343000400504430CE00121090501E003210905D1
:103440000C436978814203D10120000524186D1CCA
:103450006D1C2878692874D006DC00288BD063287E
:1034600027D0642806D16CE06E2808D073282CD0B1
:10347000752878D0129A11999047761C5FE0600207
:10348000400F022809D003280DD0042810980168A5
:103490000DD00E60001D109051E01098F2170168D9
:1034A0000E604A60F6E7109801680E80F2E70E7031
:1034B000F0E710986A4601781173001D1090002003
:1034C000507303A80190012005E0109802C80191F3
:1034D00010900020C04361070CD5002700E07F1C3E
:1034E00000998F420FDA8742F9DB0199C95D002903
:1034F000F5D108E0002700E07F1C8742FCDB019942
:10350000C95D0029F8D102982146C01B0290129B88
:10351000119A00F0B3F88019C61907E001980199D3
:103520000078491C0191129A119990477F1EF5D29B
:103530002146129B119A029800F090F886196D1C92
:1035400016E70A200190109901C910916102490FF4
:10355000032900D100B2042900D140B2002803DAC7
:1035600040422D2103E00DE0210504D52B216A46C0
:103570001173012103E0E10711D02021F7E70CAF1F
:103580000C9114E00A200190109901C91091610278
:10359000490F032900D180B2042900D1C0B2002113
:1035A000EDE70199FCF7A4FD30317F1E397000284A
:1035B000F7D104A8C01B20300190600704D501207A
:1035C00000048443009801E00120009001998842A2
:1035D00001DD401A00E00020411800900C98091805
:1035E0000298401A0290E00306D42146129B119AD9
:1035F000029800F043F8861900200D9008E003A916
:10360000085C129A119990470D98401C761C0D90F9
:103610000C998842F3DBE0030CD52146129B119AEA
:10362000029800F02BF8861904E0129A30201199C4
:103630009047761C0099481E00900029F5DC05E0B3
:103640003878129A7F1C11999047761C0199481E70
:1036500001900029F4DC6BE709280100F8B5044665
:1036600000251E461746880404D405E0394620206C
:10367000B0476D1C641EF9D52846F8BDFFB5044659
:10368000002581B01E46C80301D5302700E0202761
:10369000880404D505E038460399B0476D1C641EC4
:1036A000F9D5284605B0F0BD0A68531C0B601070B0
:1036B0007047000070B5054600200B4C02460FE035
:1036C000AB5C1B0258400023060403D54004000CE9
:1036D000604001E04004000C5B1C082BF4DB521C32
:1036E0008A42EDD370BD000021100000002100E0EF
:1036F000491C8142FCD3704710B5FDF774F810BD2A
:10370000401EFDD27047000070B52A4E002530687B
:10371000294C0B2816D1A069401CA061022800D1B9
:10372000A5612648217B0170217C4170217D81703B
:10373000014600222248FDF769FF00222149204866
:10374000FDF7F6FE30680C2805D015280AD016289B
:1037500007D1042529E0E069401CE061032800D17D
:10376000E56170BDE06900280AD001280FD0022869
:10377000F7D16069401C60613C28F2D1656170BD81
:10378000E068401CE0601828F9D1E56070BD206950
:10379000401C20613C28F9D1256170BD10220A49E6
:1037A000206A00F0DDF86D1EF7D3A0680028F5D17F
:1037B00070BD00002800002000000020C000002094
:1037C000D400002024000020B0000020F8B5012023
:1037D0001C4C1D4D0246A06002212846FDF711F940
:1037E000002201212846FDF70CF9FF2605270136A6
:1037F0003F07002231463846FDF703F90220014613
:10380000A06000222846FDF7FCF801221146284658
:10381000FDF7F7F8002231463846FDF7F2F80320AD
:10382000A060002202212846FDF7EBF800220121CA
:103830002846FDF7E6F8012231463846FDF7E1F863
:10384000F8BD0000280000200004005008B5FDF776
:10385000EDF8FEF705FCFEF789F9FEF7FDF9FEF736
:1038600039FAFEF7A1FC00F079F900F0F9F8FEF75B
:103870004BF92E48FDF7D8FF2D4C00252D4EFFF7B4
:10388000A5FFFFF741FFA069002827D100222A49A0
:103890002A48FDF7ABFD002229492848FDF784FDA1
:1038A00028A12948FEF7AAFC234881780091437893
:1038B0000278254825A11030FEF7A0FC6068012899
:1038C0000CD100211023204A0846FEF709FB1E4AAE
:1038D0001023103202210020FEF702FBA06901280C
:1038E00021D1C10301221C48FDF78BF81BA116480A
:1038F000FEF784FC60690090134814A1103023691E
:10390000E268FEF77BFC606801280CD100211023DF
:103910000D4A0846FEF7E4FA0B4A10231032022142
:103920000020FEF7DDFA3560A9E70000F80000206E
:103930000000002028000020C0000020D40000204B
:103940002400002052544300A00000202532642DA2
:103950002532642D25326400000800505345540080
:1039600030B4002807D0002905D009C8846A184659
:10397000A44630BC6047022030BCC04370470028DA
:1039800003D005C88369104618470220C04370471A
:10399000002803D005C8C369104618470220C04359
:1039A0007047000010B50400029818D0002916D006
:1039B000002814D0E0611A486460206008340EC406
:1039C000002020706070143C352207212046FFF74C
:1039D000BCFC07212046FFF7A5FB352801D00020BD
:1039E00010BD2046FFF7A6FB2046FEF771FC002124
:1039F0002046FFF7FBF800212046FFF7F7F80121EA
:103A00002046FFF78FFB8021084302460121204614
:103A1000FFF79BFC2046FEF7E8FD204610BD0000A6
:103A2000E8430008F8B50C4C079E069D21606060D5
:103A3000204608300CC060C00146083101601C31CE
:103A40004160034602460090083B103A3C39034867
:103A5000FFF7A8FFF8BD0000380000203401002067
:103A6000F0B5184887B0C16A01242143C162C06A19
:103A7000022520400590202003266A4671C20527B2
:103A80003F0769463846FCF7FBFE402000900020C7
:103A900001AA61C269463846FCF7F2FE80206A46F8
:103AA00071C269463846FCF7EBFE01228021384698
:103AB000FCF7A7FF012220213846FCF7A2FF07B040
:103AC000F0BD000000100240F8B5002420270526B4
:103AD00025463607B7620120FFF712FE6006040E86
:103AE000B7610120FFF70CFE40213046FCF77EFF56
:103AF000002801D0641CE4B20120FFF701FE6D1C18
:103B0000EDB2082DE6D3B7620120FFF7F9FD20469C
:103B1000F8BDF1B5002580272026052424070120C3
:103B2000FFF7EEFDA6620098A840000604D501202C
:103B3000FFF7E6FDA76103E00120FFF7E1FDA762C3
:103B40000120FFF7DDFDA6616D1CEDB2082DE6D367
:103B50000120FFF7D5FDA662A762F8BD10B5114898
:103B600086B0C26A01210A43C262C06A05240840C5
:103B7000059081200001009003200191029124070B
:103B8000039069462046FCF77BFE0122D1022046C5
:103B9000FCF737FF012210212046FCF732FF06B068
:103BA00010BD00000010024001210522C9021207C9
:103BB000002801D091617047916270470522102161
:103BC0001207002801D09161704791627047000090
:103BD000000000000000002F0000000007000700A8
:103BE00000147F147F1400242A7F2A1200626408C4
:103BF0001323003649552250000005030000000041
:103C00001C224100000041221C000014083E081440
:103C10000008083E0808000000A06000000808082E
:103C20000808000060600000002010080402003E48
:103C30005149453E0000427F4000004261514946E3
:103C4000002141454B31001814127F1000274545D3
:103C50004539003C4A4949300001710905030036E5
:103C60004949493600064949291E000036360000F8
:103C700000005636000000081422410000141414FD
:103C800014140000412214080002015109060032F8
:103C90004959513E007C1211127C007F4949493636
:103CA000003E41414122007F4141221C007F4949A1
:103CB0004941007F09090901003E4149497A007FD5
:103CC0000808087F0000417F4100002040413F017B
:103CD000007F08142241007F40404040007F020CDA
:103CE000027F007F0408107F003E4141413E007F7B
:103CF00009090906003E4151215E007F0919294644
:103D00000046494949310001017F0101003F40401F
:103D1000403F001F2040201F003F4038403F0063CD
:103D200014081463000708700807006151494543EF
:103D300000007F41410000552A552A5500004141AD
:103D40007F000004020102040040404040400000A7
:103D500001020400002054545478007F4844443841
:103D600000384444442000384444487F00385454C8
:103D7000541800087E0901020018A4A4A47C007F46
:103D8000080404780000447D4000004080847D00E9
:103D9000007F102844000000417F4000007C041890
:103DA0000478007C0804047800384444443800FC5B
:103DB000242424180018242418FC007C0804040877
:103DC00000485454542000043F444020003C4040EC
:103DD000207C001C2040201C003C4030403C004423
:103DE00028102844001CA0A0A07C004464544C442B
:103DF000141414141414000000000000000000004B
:103E0000000000000000000000F8000000000000BA
:103E100000333000000000100C06100C06000000FB
:103E200000000000000040C07840C0784000043F1F
:103E300004043F040400007088FC083000000018EF
:103E400020FF211E0000F008F000E0180000002113
:103E50001C031E211E0000F00888700000001E21B7
:103E600023241927211010160E0000000000000066
:103E7000000000000000000000E018040200000044
:103E800000071820400000020418E0000000004075
:103E9000201807000000404080F0804040000202EF
:103EA000010F01020200000000F00000000001010B
:103EB000011F01010100000000000000000080B0AF
:103EC0007000000000000000000000000000000181
:103ED00001010101010100000000000000000030AC
:103EE0003000000000000000000080601804006046
:103EF00018060100000000E010080810E000000FA4
:103F0000102020100F00001010F80000000000200A
:103F1000203F202000000070080808887000003052
:103F200028242221300000300888884830000018FA
:103F3000202020110E000000C02010F80000000713
:103F40000424243F240000F8088888080800001989
:103F5000212020110E0000E0108888180000000FBA
:103F6000112020110E0000380808C8380800000091
:103F7000003F000000000070880808887000001CE6
:103F8000222121221C0000E010080810E00000009F
:103F9000312222110F00000000C0C000000000000C
:103FA0000030300000000000008000000000000031
:103FB0008060000000000000804020100800000128
:103FC00002040810200040404040404040000404EB
:103FD00004040404040000081020408000000020B5
:103FE000100804020100007048080808F0000000F2
:103FF000003036010000C030C828E810E000071883
:10400000272423140B000000C038E0000000203CEF
:1040100023020227382008F8888888700000203F93
:10402000202020110E00C0300808080838000718AA
:1040300020202010080008F808080810E000203FA1
:10404000202020100F0008F88888E8081000203F82
:1040500020202320180008F88888E8081000203F56
:10406000200003000000C0300808083800000718CE
:104070002020221E020008F808000008F808203F4F
:10408000210101213F20000808F808080000002055
:10409000203F2020000000000808F8080800C08029
:1040A00080807F00000008F888C028180800203FA2
:1040B00020012638200008F8080000000000203FFA
:1040C00020202020300008F8F800F8F80800203FF1
:1040D000003F003F200008F830C00008F808203FEB
:1040E000200007183F00E01008080810E0000F103B
:1040F000202020100F0008F808080808F000203FD2
:10410000210101010000E01008080810E0000F186C
:10411000242438504F0008F8888888887000203F91
:104120002000030C30200070880808083800003890
:10413000202121221C00180808F808081800000097
:10414000203F2000000008F808000008F808001FC1
:10415000202020201F000878880000C838080000B0
:1041600007380E010000F80800F80008F800033CCA
:104170000700073C03000818688080681808203092
:104180002C03032C30200838C800C8380800000071
:10419000203F2000000010080808C8380800203818
:1041A000262120201800000000FE0202020000006C
:1041B000007F40404000000C30C0000000000000C4
:1041C00000010638C00000020202FE0000000040AC
:1041D00040407F00000000000402020204000000D2
:1041E00000000000000000000000000000008080CF
:1041F00080808080808000020204000000000000B7
:104200000000000000000000808080800000001995
:10421000242222223F2008F8008080000000003F76
:10422000112020110E000000008080800000000E90
:10423000112020201100000000808088F800000E6E
:10424000112020103F200000808080800000001F8F
:10425000222222221300008080F088888818002003
:10426000203F202000000000808080808000006BC4
:1042700094949493600008F8008080800000203FB0
:10428000210000203F2000809898000000000020BE
:10429000203F20200000000000809898000000C00F
:1042A0008080807F000008F8000080808000203F30
:1042B00024022D302000000808F800000000002033
:1042C000203F202000008080808080808000203F70
:1042D00020003F20003F8080008080800000203F41
:1042E000210000203F200000808080800000001F0F
:1042F000202020201F00808000808000000080FFA0
:10430000A12020110E000000008080808000000E9F
:10431000112020A0FF8080808000808080002020ED
:104320003F21200001000000808080808000003359
:10433000242424241900008080E0808000000000F4
:10434000001F202000008080000000808000001FEF
:10435000202020103F20808080000080808000018D
:104360000E300806010080800080008080800F30C1
:104370000C030C300F000080800080808000002043
:10438000312E0E312000808080000080808080816E
:104390008E701806010000808080808080000021DF
:1043A000302C2221300000000000807C020200003E
:1043B0000000003F404000000000FF00000000003F
:1043C0000000FF0000000002027C800000000040AE
:1043D000403F00000000000601010202040400004A
:1043E000000000000000000035310008A73100087F
:1043F000A1310008792C0008D12500089930000867
:10440000A92C0008F12F000867310008F5260008E4
:10441000F72D000841300008CF240008352500089A
:104420003725000877250008000000000000000084
:1044300000000040000080400000004100002041DA
:104440000000604100008041000090410000A04158
:1044500000B1081940F3171980352719C0773619AC
:1044600000BA451940FC5419803E6419C080731984
:1044700000C38219400592198047A119C089B0195B
:1044800000CCBF19400ECF198050DE19C092ED1933
:1044900000D5FC1940170C1A80591B1AC09B2A1A08
:1044A00000DE391A4020491A8062581AC0A4671ADF
:1044B00000E7761A4029861A806B951AC0ADA41AB7
:1044C00000F0B31A4032C31A8074D21AC0B6E11A8F
:1044D00000F9F01A403B001B807D0F1BC0BF1E1B64
:1044E00000022E1B40443D1B80864C1BC0C85B1B3A
:1044F000000B6B1B404D7A1B808F891BC0D1981B12
:104500000014A81B4056B71B8098C61BC0DAD51BE9
:10451000001DE51B405FF41B80A1031CC0E3121CBF
:104520000026221C4068311C80AA401CC0EC4F1C95
:10453000002F5F1C40716E1C80B37D1CC0F58C1C6D
:1045400000389C1C407AAB1C80BCBA1CC0FEC91C45
:104550000000000000000000010203040607080933
:10456000030406080C101820300000008C450008D9
:1045700000000020A0000000B62300082C46000820
:10458000A0000020B8040000C623000800000000BE
:10459000000000000000000000000000000000001B
:1045A000000000000000000000000000000000000B
:1045B00000000000000000000000000000000000FB
:1045C00001000000000000000000000000000000EA
:1045D00000000000000000000000000000000000DB
:1045E000000000000000000000000000B3230008ED
:1045F000B5230008B1230008CF220008CD2200080F
:10460000400ECF191408070101000000320000001D
:1046100064000000000A100000000100504400087F
:0C4620004000000000002000000000002E
:04000005080000C12E
:00000001FF
